{
  "_format": "hh-sol-artifact-1",
  "contractName": "NFTClase",
  "sourceName": "contracts/NFT.sol",
  "abi": [
    {
      "inputs": [],
      "stateMutability": "nonpayable",
      "type": "constructor"
    },
    {
      "anonymous": false,
      "inputs": [
        {
          "indexed": true,
          "internalType": "address",
          "name": "owner",
          "type": "address"
        },
        {
          "indexed": true,
          "internalType": "address",
          "name": "approved",
          "type": "address"
        },
        {
          "indexed": true,
          "internalType": "uint256",
          "name": "tokenId",
          "type": "uint256"
        }
      ],
      "name": "Approval",
      "type": "event"
    },
    {
      "anonymous": false,
      "inputs": [
        {
          "indexed": true,
          "internalType": "address",
          "name": "owner",
          "type": "address"
        },
        {
          "indexed": true,
          "internalType": "address",
          "name": "operator",
          "type": "address"
        },
        {
          "indexed": false,
          "internalType": "bool",
          "name": "approved",
          "type": "bool"
        }
      ],
      "name": "ApprovalForAll",
      "type": "event"
    },
    {
      "anonymous": false,
      "inputs": [
        {
          "indexed": true,
          "internalType": "address",
          "name": "previousOwner",
          "type": "address"
        },
        {
          "indexed": true,
          "internalType": "address",
          "name": "newOwner",
          "type": "address"
        }
      ],
      "name": "OwnershipTransferred",
      "type": "event"
    },
    {
      "anonymous": false,
      "inputs": [
        {
          "indexed": true,
          "internalType": "address",
          "name": "from",
          "type": "address"
        },
        {
          "indexed": true,
          "internalType": "address",
          "name": "to",
          "type": "address"
        },
        {
          "indexed": true,
          "internalType": "uint256",
          "name": "tokenId",
          "type": "uint256"
        }
      ],
      "name": "Transfer",
      "type": "event"
    },
    {
      "inputs": [
        {
          "internalType": "address",
          "name": "to",
          "type": "address"
        },
        {
          "internalType": "uint256",
          "name": "tokenId",
          "type": "uint256"
        }
      ],
      "name": "approve",
      "outputs": [],
      "stateMutability": "nonpayable",
      "type": "function"
    },
    {
      "inputs": [
        {
          "internalType": "address",
          "name": "owner",
          "type": "address"
        }
      ],
      "name": "balanceOf",
      "outputs": [
        {
          "internalType": "uint256",
          "name": "",
          "type": "uint256"
        }
      ],
      "stateMutability": "view",
      "type": "function"
    },
    {
      "inputs": [
        {
          "internalType": "uint256",
          "name": "tokenId",
          "type": "uint256"
        }
      ],
      "name": "getApproved",
      "outputs": [
        {
          "internalType": "address",
          "name": "",
          "type": "address"
        }
      ],
      "stateMutability": "view",
      "type": "function"
    },
    {
      "inputs": [
        {
          "internalType": "address",
          "name": "owner",
          "type": "address"
        },
        {
          "internalType": "address",
          "name": "operator",
          "type": "address"
        }
      ],
      "name": "isApprovedForAll",
      "outputs": [
        {
          "internalType": "bool",
          "name": "",
          "type": "bool"
        }
      ],
      "stateMutability": "view",
      "type": "function"
    },
    {
      "inputs": [
        {
          "internalType": "address",
          "name": "recipient",
          "type": "address"
        },
        {
          "internalType": "string",
          "name": "_tokenURI",
          "type": "string"
        }
      ],
      "name": "mintNFT",
      "outputs": [
        {
          "internalType": "uint256",
          "name": "",
          "type": "uint256"
        }
      ],
      "stateMutability": "nonpayable",
      "type": "function"
    },
    {
      "inputs": [],
      "name": "name",
      "outputs": [
        {
          "internalType": "string",
          "name": "",
          "type": "string"
        }
      ],
      "stateMutability": "view",
      "type": "function"
    },
    {
      "inputs": [],
      "name": "owner",
      "outputs": [
        {
          "internalType": "address",
          "name": "",
          "type": "address"
        }
      ],
      "stateMutability": "view",
      "type": "function"
    },
    {
      "inputs": [
        {
          "internalType": "uint256",
          "name": "tokenId",
          "type": "uint256"
        }
      ],
      "name": "ownerOf",
      "outputs": [
        {
          "internalType": "address",
          "name": "",
          "type": "address"
        }
      ],
      "stateMutability": "view",
      "type": "function"
    },
    {
      "inputs": [],
      "name": "renounceOwnership",
      "outputs": [],
      "stateMutability": "nonpayable",
      "type": "function"
    },
    {
      "inputs": [
        {
          "internalType": "address",
          "name": "from",
          "type": "address"
        },
        {
          "internalType": "address",
          "name": "to",
          "type": "address"
        },
        {
          "internalType": "uint256",
          "name": "tokenId",
          "type": "uint256"
        }
      ],
      "name": "safeTransferFrom",
      "outputs": [],
      "stateMutability": "nonpayable",
      "type": "function"
    },
    {
      "inputs": [
        {
          "internalType": "address",
          "name": "from",
          "type": "address"
        },
        {
          "internalType": "address",
          "name": "to",
          "type": "address"
        },
        {
          "internalType": "uint256",
          "name": "tokenId",
          "type": "uint256"
        },
        {
          "internalType": "bytes",
          "name": "data",
          "type": "bytes"
        }
      ],
      "name": "safeTransferFrom",
      "outputs": [],
      "stateMutability": "nonpayable",
      "type": "function"
    },
    {
      "inputs": [
        {
          "internalType": "address",
          "name": "operator",
          "type": "address"
        },
        {
          "internalType": "bool",
          "name": "approved",
          "type": "bool"
        }
      ],
      "name": "setApprovalForAll",
      "outputs": [],
      "stateMutability": "nonpayable",
      "type": "function"
    },
    {
      "inputs": [
        {
          "internalType": "string",
          "name": "baseUri",
          "type": "string"
        }
      ],
      "name": "setbaseUri",
      "outputs": [],
      "stateMutability": "nonpayable",
      "type": "function"
    },
    {
      "inputs": [
        {
          "internalType": "bytes4",
          "name": "interfaceId",
          "type": "bytes4"
        }
      ],
      "name": "supportsInterface",
      "outputs": [
        {
          "internalType": "bool",
          "name": "",
          "type": "bool"
        }
      ],
      "stateMutability": "view",
      "type": "function"
    },
    {
      "inputs": [],
      "name": "symbol",
      "outputs": [
        {
          "internalType": "string",
          "name": "",
          "type": "string"
        }
      ],
      "stateMutability": "view",
      "type": "function"
    },
    {
      "inputs": [
        {
          "internalType": "uint256",
          "name": "tokenId",
          "type": "uint256"
        }
      ],
      "name": "tokenURI",
      "outputs": [
        {
          "internalType": "string",
          "name": "",
          "type": "string"
        }
      ],
      "stateMutability": "view",
      "type": "function"
    },
    {
      "inputs": [
        {
          "internalType": "address",
          "name": "from",
          "type": "address"
        },
        {
          "internalType": "address",
          "name": "to",
          "type": "address"
        },
        {
          "internalType": "uint256",
          "name": "tokenId",
          "type": "uint256"
        }
      ],
      "name": "transferFrom",
      "outputs": [],
      "stateMutability": "nonpayable",
      "type": "function"
    },
    {
      "inputs": [
        {
          "internalType": "address",
          "name": "newOwner",
          "type": "address"
        }
      ],
      "name": "transferOwnership",
      "outputs": [],
      "stateMutability": "nonpayable",
      "type": "function"
    }
  ],
  "bytecode": "0x608060405234801561001057600080fd5b506040518060400160405280600581526020017f45754c65790000000000000000000000000000000000000000000000000000008152506040518060400160405280600581526020017f45754c6579000000000000000000000000000000000000000000000000000000815250816000908161008c91906103de565b50806001908161009c91906103de565b5050506100bb6100b06100c060201b60201c565b6100c860201b60201c565b6104b0565b600033905090565b6000600660009054906101000a900473ffffffffffffffffffffffffffffffffffffffff16905081600660006101000a81548173ffffffffffffffffffffffffffffffffffffffff021916908373ffffffffffffffffffffffffffffffffffffffff1602179055508173ffffffffffffffffffffffffffffffffffffffff168173ffffffffffffffffffffffffffffffffffffffff167f8be0079c531659141344cd1fd0a4f28419497f9722a3daafe3b4186f6b6457e060405160405180910390a35050565b600081519050919050565b7f4e487b7100000000000000000000000000000000000000000000000000000000600052604160045260246000fd5b7f4e487b7100000000000000000000000000000000000000000000000000000000600052602260045260246000fd5b6000600282049050600182168061020f57607f821691505b602082108103610222576102216101c8565b5b50919050565b60008190508160005260206000209050919050565b60006020601f8301049050919050565b600082821b905092915050565b60006008830261028a7fffffffffffffffffffffffffffffffffffffffffffffffffffffffffffffffff8261024d565b610294868361024d565b95508019841693508086168417925050509392505050565b6000819050919050565b6000819050919050565b60006102db6102d66102d1846102ac565b6102b6565b6102ac565b9050919050565b6000819050919050565b6102f5836102c0565b610309610301826102e2565b84845461025a565b825550505050565b600090565b61031e610311565b6103298184846102ec565b505050565b5b8181101561034d57610342600082610316565b60018101905061032f565b5050565b601f8211156103925761036381610228565b61036c8461023d565b8101602085101561037b578190505b61038f6103878561023d565b83018261032e565b50505b505050565b600082821c905092915050565b60006103b560001984600802610397565b1980831691505092915050565b60006103ce83836103a4565b9150826002028217905092915050565b6103e78261018e565b67ffffffffffffffff811115610400576103ff610199565b5b61040a82546101f7565b610415828285610351565b600060209050601f8311600181146104485760008415610436578287015190505b61044085826103c2565b8655506104a8565b601f19841661045686610228565b60005b8281101561047e57848901518255600182019150602085019450602081019050610459565b8683101561049b5784890151610497601f8916826103a4565b8355505b6001600288020188555050505b505050505050565b612e3b806104bf6000396000f3fe608060405234801561001057600080fd5b50600436106101165760003560e01c80638da5cb5b116100a2578063b88d4fde11610071578063b88d4fde146102cb578063c87b56dd146102e7578063e985e9c514610317578063eacabe1414610347578063f2fde38b1461037757610116565b80638da5cb5b1461025757806395d89b411461027557806397c8a68b14610293578063a22cb465146102af57610116565b806323b872dd116100e957806323b872dd146101b557806342842e0e146101d15780636352211e146101ed57806370a082311461021d578063715018a61461024d57610116565b806301ffc9a71461011b57806306fdde031461014b578063081812fc14610169578063095ea7b314610199575b600080fd5b61013560048036038101906101309190611be3565b610393565b6040516101429190611c2b565b60405180910390f35b610153610475565b6040516101609190611cd6565b60405180910390f35b610183600480360381019061017e9190611d2e565b610507565b6040516101909190611d9c565b60405180910390f35b6101b360048036038101906101ae9190611de3565b61054d565b005b6101cf60048036038101906101ca9190611e23565b610664565b005b6101eb60048036038101906101e69190611e23565b6106c4565b005b61020760048036038101906102029190611d2e565b6106e4565b6040516102149190611d9c565b60405180910390f35b61023760048036038101906102329190611e76565b61076a565b6040516102449190611eb2565b60405180910390f35b610255610821565b005b61025f610835565b60405161026c9190611d9c565b60405180910390f35b61027d61085f565b60405161028a9190611cd6565b60405180910390f35b6102ad60048036038101906102a89190612002565b6108f1565b005b6102c960048036038101906102c49190612077565b61090c565b005b6102e560048036038101906102e09190612158565b610922565b005b61030160048036038101906102fc9190611d2e565b610984565b60405161030e9190611cd6565b60405180910390f35b610331600480360381019061032c91906121db565b610af6565b60405161033e9190611c2b565b60405180910390f35b610361600480360381019061035c919061221b565b610b8a565b60405161036e9190611eb2565b60405180910390f35b610391600480360381019061038c9190611e76565b610bca565b005b60007f80ac58cd000000000000000000000000000000000000000000000000000000007bffffffffffffffffffffffffffffffffffffffffffffffffffffffff1916827bffffffffffffffffffffffffffffffffffffffffffffffffffffffff1916148061045e57507f5b5e139f000000000000000000000000000000000000000000000000000000007bffffffffffffffffffffffffffffffffffffffffffffffffffffffff1916827bffffffffffffffffffffffffffffffffffffffffffffffffffffffff1916145b8061046e575061046d82610c4d565b5b9050919050565b606060008054610484906122a6565b80601f01602080910402602001604051908101604052809291908181526020018280546104b0906122a6565b80156104fd5780601f106104d2576101008083540402835291602001916104fd565b820191906000526020600020905b8154815290600101906020018083116104e057829003601f168201915b5050505050905090565b600061051282610cb7565b6004600083815260200190815260200160002060009054906101000a900473ffffffffffffffffffffffffffffffffffffffff169050919050565b6000610558826106e4565b90508073ffffffffffffffffffffffffffffffffffffffff168373ffffffffffffffffffffffffffffffffffffffff16036105c8576040517f08c379a00000000000000000000000000000000000000000000000000000000081526004016105bf90612349565b60405180910390fd5b8073ffffffffffffffffffffffffffffffffffffffff166105e7610d02565b73ffffffffffffffffffffffffffffffffffffffff161480610616575061061581610610610d02565b610af6565b5b610655576040517f08c379a000000000000000000000000000000000000000000000000000000000815260040161064c906123db565b60405180910390fd5b61065f8383610d0a565b505050565b61067561066f610d02565b82610dc3565b6106b4576040517f08c379a00000000000000000000000000000000000000000000000000000000081526004016106ab9061246d565b60405180910390fd5b6106bf838383610e58565b505050565b6106df83838360405180602001604052806000815250610922565b505050565b6000806106f083611151565b9050600073ffffffffffffffffffffffffffffffffffffffff168173ffffffffffffffffffffffffffffffffffffffff1603610761576040517f08c379a0000000000000000000000000000000000000000000000000000000008152600401610758906124d9565b60405180910390fd5b80915050919050565b60008073ffffffffffffffffffffffffffffffffffffffff168273ffffffffffffffffffffffffffffffffffffffff16036107da576040517f08c379a00000000000000000000000000000000000000000000000000000000081526004016107d19061256b565b60405180910390fd5b600360008373ffffffffffffffffffffffffffffffffffffffff1673ffffffffffffffffffffffffffffffffffffffff168152602001908152602001600020549050919050565b61082961118e565b610833600061120c565b565b6000600660009054906101000a900473ffffffffffffffffffffffffffffffffffffffff16905090565b60606001805461086e906122a6565b80601f016020809104026020016040519081016040528092919081815260200182805461089a906122a6565b80156108e75780601f106108bc576101008083540402835291602001916108e7565b820191906000526020600020905b8154815290600101906020018083116108ca57829003601f168201915b5050505050905090565b6108f961118e565b80600990816109089190612737565b5050565b61091e610917610d02565b83836112d2565b5050565b61093361092d610d02565b83610dc3565b610972576040517f08c379a00000000000000000000000000000000000000000000000000000000081526004016109699061246d565b60405180910390fd5b61097e8484848461143e565b50505050565b606061098f8261149a565b6109ce576040517f08c379a00000000000000000000000000000000000000000000000000000000081526004016109c59061287b565b60405180910390fd5b60006008600084815260200190815260200160002080546109ee906122a6565b80601f0160208091040260200160405190810160405280929190818152602001828054610a1a906122a6565b8015610a675780601f10610a3c57610100808354040283529160200191610a67565b820191906000526020600020905b815481529060010190602001808311610a4a57829003601f168201915b505050505090506000610a786114db565b90506000815103610a8d578192505050610af1565b600082511115610ac2578082604051602001610aaa9291906128d7565b60405160208183030381529060405292505050610af1565b80610acc856114f2565b604051602001610add9291906128d7565b604051602081830303815290604052925050505b919050565b6000600560008473ffffffffffffffffffffffffffffffffffffffff1673ffffffffffffffffffffffffffffffffffffffff16815260200190815260200160002060008373ffffffffffffffffffffffffffffffffffffffff1673ffffffffffffffffffffffffffffffffffffffff16815260200190815260200160002060009054906101000a900460ff16905092915050565b6000610b9461118e565b610b9e60076115c0565b6000610baa60076115d6565b9050610bb684826115e4565b610bc08184611801565b8091505092915050565b610bd261118e565b600073ffffffffffffffffffffffffffffffffffffffff168173ffffffffffffffffffffffffffffffffffffffff1603610c41576040517f08c379a0000000000000000000000000000000000000000000000000000000008152600401610c389061296d565b60405180910390fd5b610c4a8161120c565b50565b60007f01ffc9a7000000000000000000000000000000000000000000000000000000007bffffffffffffffffffffffffffffffffffffffffffffffffffffffff1916827bffffffffffffffffffffffffffffffffffffffffffffffffffffffff1916149050919050565b610cc08161149a565b610cff576040517f08c379a0000000000000000000000000000000000000000000000000000000008152600401610cf6906124d9565b60405180910390fd5b50565b600033905090565b816004600083815260200190815260200160002060006101000a81548173ffffffffffffffffffffffffffffffffffffffff021916908373ffffffffffffffffffffffffffffffffffffffff160217905550808273ffffffffffffffffffffffffffffffffffffffff16610d7d836106e4565b73ffffffffffffffffffffffffffffffffffffffff167f8c5be1e5ebec7d5bd14f71427d1e84f3dd0314c0f7b2291e5b200ac8c7c3b92560405160405180910390a45050565b600080610dcf836106e4565b90508073ffffffffffffffffffffffffffffffffffffffff168473ffffffffffffffffffffffffffffffffffffffff161480610e115750610e108185610af6565b5b80610e4f57508373ffffffffffffffffffffffffffffffffffffffff16610e3784610507565b73ffffffffffffffffffffffffffffffffffffffff16145b91505092915050565b8273ffffffffffffffffffffffffffffffffffffffff16610e78826106e4565b73ffffffffffffffffffffffffffffffffffffffff1614610ece576040517f08c379a0000000000000000000000000000000000000000000000000000000008152600401610ec5906129ff565b60405180910390fd5b600073ffffffffffffffffffffffffffffffffffffffff168273ffffffffffffffffffffffffffffffffffffffff1603610f3d576040517f08c379a0000000000000000000000000000000000000000000000000000000008152600401610f3490612a91565b60405180910390fd5b610f4a838383600161186e565b8273ffffffffffffffffffffffffffffffffffffffff16610f6a826106e4565b73ffffffffffffffffffffffffffffffffffffffff1614610fc0576040517f08c379a0000000000000000000000000000000000000000000000000000000008152600401610fb7906129ff565b60405180910390fd5b6004600082815260200190815260200160002060006101000a81549073ffffffffffffffffffffffffffffffffffffffff02191690556001600360008573ffffffffffffffffffffffffffffffffffffffff1673ffffffffffffffffffffffffffffffffffffffff168152602001908152602001600020600082825403925050819055506001600360008473ffffffffffffffffffffffffffffffffffffffff1673ffffffffffffffffffffffffffffffffffffffff16815260200190815260200160002060008282540192505081905550816002600083815260200190815260200160002060006101000a81548173ffffffffffffffffffffffffffffffffffffffff021916908373ffffffffffffffffffffffffffffffffffffffff160217905550808273ffffffffffffffffffffffffffffffffffffffff168473ffffffffffffffffffffffffffffffffffffffff167fddf252ad1be2c89b69c2b068fc378daa952ba7f163c4a11628f55a4df523b3ef60405160405180910390a461114c8383836001611874565b505050565b60006002600083815260200190815260200160002060009054906101000a900473ffffffffffffffffffffffffffffffffffffffff169050919050565b611196610d02565b73ffffffffffffffffffffffffffffffffffffffff166111b4610835565b73ffffffffffffffffffffffffffffffffffffffff161461120a576040517f08c379a000000000000000000000000000000000000000000000000000000000815260040161120190612afd565b60405180910390fd5b565b6000600660009054906101000a900473ffffffffffffffffffffffffffffffffffffffff16905081600660006101000a81548173ffffffffffffffffffffffffffffffffffffffff021916908373ffffffffffffffffffffffffffffffffffffffff1602179055508173ffffffffffffffffffffffffffffffffffffffff168173ffffffffffffffffffffffffffffffffffffffff167f8be0079c531659141344cd1fd0a4f28419497f9722a3daafe3b4186f6b6457e060405160405180910390a35050565b8173ffffffffffffffffffffffffffffffffffffffff168373ffffffffffffffffffffffffffffffffffffffff1603611340576040517f08c379a000000000000000000000000000000000000000000000000000000000815260040161133790612b69565b60405180910390fd5b80600560008573ffffffffffffffffffffffffffffffffffffffff1673ffffffffffffffffffffffffffffffffffffffff16815260200190815260200160002060008473ffffffffffffffffffffffffffffffffffffffff1673ffffffffffffffffffffffffffffffffffffffff16815260200190815260200160002060006101000a81548160ff0219169083151502179055508173ffffffffffffffffffffffffffffffffffffffff168373ffffffffffffffffffffffffffffffffffffffff167f17307eab39ab6107e8899845ad3d59bd9653f200f220920489ca2b5937696c31836040516114319190611c2b565b60405180910390a3505050565b611449848484610e58565b6114558484848461187a565b611494576040517f08c379a000000000000000000000000000000000000000000000000000000000815260040161148b90612bfb565b60405180910390fd5b50505050565b60008073ffffffffffffffffffffffffffffffffffffffff166114bc83611151565b73ffffffffffffffffffffffffffffffffffffffff1614159050919050565b606060405180602001604052806000815250905090565b60606000600161150184611a01565b01905060008167ffffffffffffffff8111156115205761151f611ed7565b5b6040519080825280601f01601f1916602001820160405280156115525781602001600182028036833780820191505090505b509050600082602001820190505b6001156115b5578080600190039150507f3031323334353637383961626364656600000000000000000000000000000000600a86061a8153600a85816115a9576115a8612c1b565b5b04945060008503611560575b819350505050919050565b6001816000016000828254019250508190555050565b600081600001549050919050565b600073ffffffffffffffffffffffffffffffffffffffff168273ffffffffffffffffffffffffffffffffffffffff1603611653576040517f08c379a000000000000000000000000000000000000000000000000000000000815260040161164a90612c96565b60405180910390fd5b61165c8161149a565b1561169c576040517f08c379a000000000000000000000000000000000000000000000000000000000815260040161169390612d02565b60405180910390fd5b6116aa60008383600161186e565b6116b38161149a565b156116f3576040517f08c379a00000000000000000000000000000000000000000000000000000000081526004016116ea90612d02565b60405180910390fd5b6001600360008473ffffffffffffffffffffffffffffffffffffffff1673ffffffffffffffffffffffffffffffffffffffff16815260200190815260200160002060008282540192505081905550816002600083815260200190815260200160002060006101000a81548173ffffffffffffffffffffffffffffffffffffffff021916908373ffffffffffffffffffffffffffffffffffffffff160217905550808273ffffffffffffffffffffffffffffffffffffffff16600073ffffffffffffffffffffffffffffffffffffffff167fddf252ad1be2c89b69c2b068fc378daa952ba7f163c4a11628f55a4df523b3ef60405160405180910390a46117fd600083836001611874565b5050565b61180a8261149a565b611849576040517f08c379a00000000000000000000000000000000000000000000000000000000081526004016118409061287b565b60405180910390fd5b806008600084815260200190815260200160002090816118699190612737565b505050565b50505050565b50505050565b600061189b8473ffffffffffffffffffffffffffffffffffffffff16611b54565b156119f4578373ffffffffffffffffffffffffffffffffffffffff1663150b7a026118c4610d02565b8786866040518563ffffffff1660e01b81526004016118e69493929190612d77565b6020604051808303816000875af192505050801561192257506040513d601f19601f8201168201806040525081019061191f9190612dd8565b60015b6119a4573d8060008114611952576040519150601f19603f3d011682016040523d82523d6000602084013e611957565b606091505b50600081510361199c576040517f08c379a000000000000000000000000000000000000000000000000000000000815260040161199390612bfb565b60405180910390fd5b805181602001fd5b63150b7a0260e01b7bffffffffffffffffffffffffffffffffffffffffffffffffffffffff1916817bffffffffffffffffffffffffffffffffffffffffffffffffffffffff1916149150506119f9565b600190505b949350505050565b600080600090507a184f03e93ff9f4daa797ed6e38ed64bf6a1f0100000000000000008310611a5f577a184f03e93ff9f4daa797ed6e38ed64bf6a1f0100000000000000008381611a5557611a54612c1b565b5b0492506040810190505b6d04ee2d6d415b85acef81000000008310611a9c576d04ee2d6d415b85acef81000000008381611a9257611a91612c1b565b5b0492506020810190505b662386f26fc100008310611acb57662386f26fc100008381611ac157611ac0612c1b565b5b0492506010810190505b6305f5e1008310611af4576305f5e1008381611aea57611ae9612c1b565b5b0492506008810190505b6127108310611b19576127108381611b0f57611b0e612c1b565b5b0492506004810190505b60648310611b3c5760648381611b3257611b31612c1b565b5b0492506002810190505b600a8310611b4b576001810190505b80915050919050565b6000808273ffffffffffffffffffffffffffffffffffffffff163b119050919050565b6000604051905090565b600080fd5b600080fd5b60007fffffffff0000000000000000000000000000000000000000000000000000000082169050919050565b611bc081611b8b565b8114611bcb57600080fd5b50565b600081359050611bdd81611bb7565b92915050565b600060208284031215611bf957611bf8611b81565b5b6000611c0784828501611bce565b91505092915050565b60008115159050919050565b611c2581611c10565b82525050565b6000602082019050611c406000830184611c1c565b92915050565b600081519050919050565b600082825260208201905092915050565b60005b83811015611c80578082015181840152602081019050611c65565b60008484015250505050565b6000601f19601f8301169050919050565b6000611ca882611c46565b611cb28185611c51565b9350611cc2818560208601611c62565b611ccb81611c8c565b840191505092915050565b60006020820190508181036000830152611cf08184611c9d565b905092915050565b6000819050919050565b611d0b81611cf8565b8114611d1657600080fd5b50565b600081359050611d2881611d02565b92915050565b600060208284031215611d4457611d43611b81565b5b6000611d5284828501611d19565b91505092915050565b600073ffffffffffffffffffffffffffffffffffffffff82169050919050565b6000611d8682611d5b565b9050919050565b611d9681611d7b565b82525050565b6000602082019050611db16000830184611d8d565b92915050565b611dc081611d7b565b8114611dcb57600080fd5b50565b600081359050611ddd81611db7565b92915050565b60008060408385031215611dfa57611df9611b81565b5b6000611e0885828601611dce565b9250506020611e1985828601611d19565b9150509250929050565b600080600060608486031215611e3c57611e3b611b81565b5b6000611e4a86828701611dce565b9350506020611e5b86828701611dce565b9250506040611e6c86828701611d19565b9150509250925092565b600060208284031215611e8c57611e8b611b81565b5b6000611e9a84828501611dce565b91505092915050565b611eac81611cf8565b82525050565b6000602082019050611ec76000830184611ea3565b92915050565b600080fd5b600080fd5b7f4e487b7100000000000000000000000000000000000000000000000000000000600052604160045260246000fd5b611f0f82611c8c565b810181811067ffffffffffffffff82111715611f2e57611f2d611ed7565b5b80604052505050565b6000611f41611b77565b9050611f4d8282611f06565b919050565b600067ffffffffffffffff821115611f6d57611f6c611ed7565b5b611f7682611c8c565b9050602081019050919050565b82818337600083830152505050565b6000611fa5611fa084611f52565b611f37565b905082815260208101848484011115611fc157611fc0611ed2565b5b611fcc848285611f83565b509392505050565b600082601f830112611fe957611fe8611ecd565b5b8135611ff9848260208601611f92565b91505092915050565b60006020828403121561201857612017611b81565b5b600082013567ffffffffffffffff81111561203657612035611b86565b5b61204284828501611fd4565b91505092915050565b61205481611c10565b811461205f57600080fd5b50565b6000813590506120718161204b565b92915050565b6000806040838503121561208e5761208d611b81565b5b600061209c85828601611dce565b92505060206120ad85828601612062565b9150509250929050565b600067ffffffffffffffff8211156120d2576120d1611ed7565b5b6120db82611c8c565b9050602081019050919050565b60006120fb6120f6846120b7565b611f37565b90508281526020810184848401111561211757612116611ed2565b5b612122848285611f83565b509392505050565b600082601f83011261213f5761213e611ecd565b5b813561214f8482602086016120e8565b91505092915050565b6000806000806080858703121561217257612171611b81565b5b600061218087828801611dce565b945050602061219187828801611dce565b93505060406121a287828801611d19565b925050606085013567ffffffffffffffff8111156121c3576121c2611b86565b5b6121cf8782880161212a565b91505092959194509250565b600080604083850312156121f2576121f1611b81565b5b600061220085828601611dce565b925050602061221185828601611dce565b9150509250929050565b6000806040838503121561223257612231611b81565b5b600061224085828601611dce565b925050602083013567ffffffffffffffff81111561226157612260611b86565b5b61226d85828601611fd4565b9150509250929050565b7f4e487b7100000000000000000000000000000000000000000000000000000000600052602260045260246000fd5b600060028204905060018216806122be57607f821691505b6020821081036122d1576122d0612277565b5b50919050565b7f4552433732313a20617070726f76616c20746f2063757272656e74206f776e6560008201527f7200000000000000000000000000000000000000000000000000000000000000602082015250565b6000612333602183611c51565b915061233e826122d7565b604082019050919050565b6000602082019050818103600083015261236281612326565b9050919050565b7f4552433732313a20617070726f76652063616c6c6572206973206e6f7420746f60008201527f6b656e206f776e6572206f7220617070726f76656420666f7220616c6c000000602082015250565b60006123c5603d83611c51565b91506123d082612369565b604082019050919050565b600060208201905081810360008301526123f4816123b8565b9050919050565b7f4552433732313a2063616c6c6572206973206e6f7420746f6b656e206f776e6560008201527f72206f7220617070726f76656400000000000000000000000000000000000000602082015250565b6000612457602d83611c51565b9150612462826123fb565b604082019050919050565b600060208201905081810360008301526124868161244a565b9050919050565b7f4552433732313a20696e76616c696420746f6b656e2049440000000000000000600082015250565b60006124c3601883611c51565b91506124ce8261248d565b602082019050919050565b600060208201905081810360008301526124f2816124b6565b9050919050565b7f4552433732313a2061646472657373207a65726f206973206e6f74206120766160008201527f6c6964206f776e65720000000000000000000000000000000000000000000000602082015250565b6000612555602983611c51565b9150612560826124f9565b604082019050919050565b6000602082019050818103600083015261258481612548565b9050919050565b60008190508160005260206000209050919050565b60006020601f8301049050919050565b600082821b905092915050565b6000600883026125ed7fffffffffffffffffffffffffffffffffffffffffffffffffffffffffffffffff826125b0565b6125f786836125b0565b95508019841693508086168417925050509392505050565b6000819050919050565b600061263461262f61262a84611cf8565b61260f565b611cf8565b9050919050565b6000819050919050565b61264e83612619565b61266261265a8261263b565b8484546125bd565b825550505050565b600090565b61267761266a565b612682818484612645565b505050565b5b818110156126a65761269b60008261266f565b600181019050612688565b5050565b601f8211156126eb576126bc8161258b565b6126c5846125a0565b810160208510156126d4578190505b6126e86126e0856125a0565b830182612687565b50505b505050565b600082821c905092915050565b600061270e600019846008026126f0565b1980831691505092915050565b600061272783836126fd565b9150826002028217905092915050565b61274082611c46565b67ffffffffffffffff81111561275957612758611ed7565b5b61276382546122a6565b61276e8282856126aa565b600060209050601f8311600181146127a1576000841561278f578287015190505b612799858261271b565b865550612801565b601f1984166127af8661258b565b60005b828110156127d7578489015182556001820191506020850194506020810190506127b2565b868310156127f457848901516127f0601f8916826126fd565b8355505b6001600288020188555050505b505050505050565b7f4552433732314d4554413a55524920736574206f66206e6f6e6578697374656e60008201527f20746f6b656e0000000000000000000000000000000000000000000000000000602082015250565b6000612865602683611c51565b915061287082612809565b604082019050919050565b6000602082019050818103600083015261289481612858565b9050919050565b600081905092915050565b60006128b182611c46565b6128bb818561289b565b93506128cb818560208601611c62565b80840191505092915050565b60006128e382856128a6565b91506128ef82846128a6565b91508190509392505050565b7f4f776e61626c653a206e6577206f776e657220697320746865207a65726f206160008201527f6464726573730000000000000000000000000000000000000000000000000000602082015250565b6000612957602683611c51565b9150612962826128fb565b604082019050919050565b600060208201905081810360008301526129868161294a565b9050919050565b7f4552433732313a207472616e736665722066726f6d20696e636f72726563742060008201527f6f776e6572000000000000000000000000000000000000000000000000000000602082015250565b60006129e9602583611c51565b91506129f48261298d565b604082019050919050565b60006020820190508181036000830152612a18816129dc565b9050919050565b7f4552433732313a207472616e7366657220746f20746865207a65726f2061646460008201527f7265737300000000000000000000000000000000000000000000000000000000602082015250565b6000612a7b602483611c51565b9150612a8682612a1f565b604082019050919050565b60006020820190508181036000830152612aaa81612a6e565b9050919050565b7f4f776e61626c653a2063616c6c6572206973206e6f7420746865206f776e6572600082015250565b6000612ae7602083611c51565b9150612af282612ab1565b602082019050919050565b60006020820190508181036000830152612b1681612ada565b9050919050565b7f4552433732313a20617070726f766520746f2063616c6c657200000000000000600082015250565b6000612b53601983611c51565b9150612b5e82612b1d565b602082019050919050565b60006020820190508181036000830152612b8281612b46565b9050919050565b7f4552433732313a207472616e7366657220746f206e6f6e20455243373231526560008201527f63656976657220696d706c656d656e7465720000000000000000000000000000602082015250565b6000612be5603283611c51565b9150612bf082612b89565b604082019050919050565b60006020820190508181036000830152612c1481612bd8565b9050919050565b7f4e487b7100000000000000000000000000000000000000000000000000000000600052601260045260246000fd5b7f4552433732313a206d696e7420746f20746865207a65726f2061646472657373600082015250565b6000612c80602083611c51565b9150612c8b82612c4a565b602082019050919050565b60006020820190508181036000830152612caf81612c73565b9050919050565b7f4552433732313a20746f6b656e20616c7265616479206d696e74656400000000600082015250565b6000612cec601c83611c51565b9150612cf782612cb6565b602082019050919050565b60006020820190508181036000830152612d1b81612cdf565b9050919050565b600081519050919050565b600082825260208201905092915050565b6000612d4982612d22565b612d538185612d2d565b9350612d63818560208601611c62565b612d6c81611c8c565b840191505092915050565b6000608082019050612d8c6000830187611d8d565b612d996020830186611d8d565b612da66040830185611ea3565b8181036060830152612db88184612d3e565b905095945050505050565b600081519050612dd281611bb7565b92915050565b600060208284031215612dee57612ded611b81565b5b6000612dfc84828501612dc3565b9150509291505056fea26469706673582212204541e4b78c8197e364b718d618c10cd9143f0e43bed2be5f219b7eb83b67039b64736f6c634300081c0033",
  "linkReferences": {},
  "deployedLinkReferences": {}
}