{
  "_format": "hh-sol-artifact-1",
  "contractName": "Pagos",
  "sourceName": "contracts/Pagos.sol",
  "abi": [
    {
      "inputs": [
        {
          "internalType": "address[]",
          "name": "_payees",
          "type": "address[]"
        },
        {
          "internalType": "uint256[]",
          "name": "_shares",
          "type": "uint256[]"
        }
      ],
      "stateMutability": "nonpayable",
      "type": "constructor"
    },
    {
      "anonymous": false,
      "inputs": [
        {
          "indexed": true,
          "internalType": "address",
          "name": "sender",
          "type": "address"
        },
        {
          "indexed": false,
          "internalType": "uint256",
          "name": "amountt",
          "type": "uint256"
        }
      ],
      "name": "Deposit",
      "type": "event"
    },
    {
      "inputs": [],
      "name": "deposit",
      "outputs": [],
      "stateMutability": "payable",
      "type": "function"
    },
    {
      "inputs": [],
      "name": "getBalance",
      "outputs": [
        {
          "internalType": "uint256",
          "name": "",
          "type": "uint256"
        }
      ],
      "stateMutability": "view",
      "type": "function"
    },
    {
      "inputs": [
        {
          "internalType": "uint256",
          "name": "",
          "type": "uint256"
        }
      ],
      "name": "payees",
      "outputs": [
        {
          "internalType": "address",
          "name": "",
          "type": "address"
        }
      ],
      "stateMutability": "view",
      "type": "function"
    },
    {
      "inputs": [],
      "name": "release",
      "outputs": [],
      "stateMutability": "nonpayable",
      "type": "function"
    },
    {
      "inputs": [
        {
          "internalType": "address",
          "name": "",
          "type": "address"
        }
      ],
      "name": "shares",
      "outputs": [
        {
          "internalType": "uint256",
          "name": "",
          "type": "uint256"
        }
      ],
      "stateMutability": "view",
      "type": "function"
    },
    {
      "inputs": [],
      "name": "totalShares",
      "outputs": [
        {
          "internalType": "uint256",
          "name": "",
          "type": "uint256"
        }
      ],
      "stateMutability": "view",
      "type": "function"
    }
  ],
  "bytecode": "0x608060405234801561001057600080fd5b50604051611098380380611098833981810160405281019061003291906105ad565b8051825114610076576040517f08c379a000000000000000000000000000000000000000000000000000000000815260040161006d90610682565b60405180910390fd5b60008251116100ba576040517f08c379a00000000000000000000000000000000000000000000000000000000081526004016100b1906106ee565b60405180910390fd5b60005b82518110156102e157600073ffffffffffffffffffffffffffffffffffffffff168382815181106100f1576100f061070e565b5b602002602001015173ffffffffffffffffffffffffffffffffffffffff160361014f576040517f08c379a000000000000000000000000000000000000000000000000000000000815260040161014690610789565b60405180910390fd5b60008282815181106101645761016361070e565b5b6020026020010151116101ac576040517f08c379a00000000000000000000000000000000000000000000000000000000081526004016101a3906107f5565b60405180910390fd5b60008382815181106101c1576101c061070e565b5b60200260200101519080600181540180825580915050600190039060005260206000200160009091909190916101000a81548173ffffffffffffffffffffffffffffffffffffffff021916908373ffffffffffffffffffffffffffffffffffffffff16021790555081818151811061023c5761023b61070e565b5b60200260200101516001600085848151811061025b5761025a61070e565b5b602002602001015173ffffffffffffffffffffffffffffffffffffffff1673ffffffffffffffffffffffffffffffffffffffff168152602001908152602001600020819055508181815181106102b4576102b361070e565b5b6020026020010151600260008282546102cd9190610844565b9250508190555080806001019150506100bd565b505050610878565b6000604051905090565b600080fd5b600080fd5b600080fd5b6000601f19601f8301169050919050565b7f4e487b7100000000000000000000000000000000000000000000000000000000600052604160045260246000fd5b61034b82610302565b810181811067ffffffffffffffff8211171561036a57610369610313565b5b80604052505050565b600061037d6102e9565b90506103898282610342565b919050565b600067ffffffffffffffff8211156103a9576103a8610313565b5b602082029050602081019050919050565b600080fd5b600073ffffffffffffffffffffffffffffffffffffffff82169050919050565b60006103ea826103bf565b9050919050565b6103fa816103df565b811461040557600080fd5b50565b600081519050610417816103f1565b92915050565b600061043061042b8461038e565b610373565b90508083825260208201905060208402830185811115610453576104526103ba565b5b835b8181101561047c57806104688882610408565b845260208401935050602081019050610455565b5050509392505050565b600082601f83011261049b5761049a6102fd565b5b81516104ab84826020860161041d565b91505092915050565b600067ffffffffffffffff8211156104cf576104ce610313565b5b602082029050602081019050919050565b6000819050919050565b6104f3816104e0565b81146104fe57600080fd5b50565b600081519050610510816104ea565b92915050565b6000610529610524846104b4565b610373565b9050808382526020820190506020840283018581111561054c5761054b6103ba565b5b835b8181101561057557806105618882610501565b84526020840193505060208101905061054e565b5050509392505050565b600082601f830112610594576105936102fd565b5b81516105a4848260208601610516565b91505092915050565b600080604083850312156105c4576105c36102f3565b5b600083015167ffffffffffffffff8111156105e2576105e16102f8565b5b6105ee85828601610486565b925050602083015167ffffffffffffffff81111561060f5761060e6102f8565b5b61061b8582860161057f565b9150509250929050565b600082825260208201905092915050565b7f4c656e677468206d697374616368000000000000000000000000000000000000600082015250565b600061066c600e83610625565b915061067782610636565b602082019050919050565b6000602082019050818103600083015261069b8161065f565b9050919050565b7f4e6f207061796565730000000000000000000000000000000000000000000000600082015250565b60006106d8600983610625565b91506106e3826106a2565b602082019050919050565b60006020820190508181036000830152610707816106cb565b9050919050565b7f4e487b7100000000000000000000000000000000000000000000000000000000600052603260045260246000fd5b7f496e76616c696420616464726573730000000000000000000000000000000000600082015250565b6000610773600f83610625565b915061077e8261073d565b602082019050919050565b600060208201905081810360008301526107a281610766565b9050919050565b7f536861726573206d7573742062653e3000000000000000000000000000000000600082015250565b60006107df601083610625565b91506107ea826107a9565b602082019050919050565b6000602082019050818103600083015261080e816107d2565b9050919050565b7f4e487b7100000000000000000000000000000000000000000000000000000000600052601160045260246000fd5b600061084f826104e0565b915061085a836104e0565b925082820190508082111561087257610871610815565b5b92915050565b610811806108876000396000f3fe6080604052600436106100555760003560e01c806312065fe01461005a5780633a98ef391461008557806363037b0c146100b057806386d1a69f146100ed578063ce7c2ac214610104578063d0e30db014610141575b600080fd5b34801561006657600080fd5b5061006f61014b565b60405161007c9190610412565b60405180910390f35b34801561009157600080fd5b5061009a610153565b6040516100a79190610412565b60405180910390f35b3480156100bc57600080fd5b506100d760048036038101906100d2919061045e565b610159565b6040516100e491906104cc565b60405180910390f35b3480156100f957600080fd5b50610102610198565b005b34801561011057600080fd5b5061012b60048036038101906101269190610513565b61034e565b6040516101389190610412565b60405180910390f35b610149610366565b005b600047905090565b60025481565b6000818154811061016957600080fd5b906000526020600020016000915054906101000a900473ffffffffffffffffffffffffffffffffffffffff1681565b6000479050600081116101e0576040517f08c379a00000000000000000000000000000000000000000000000000000000081526004016101d79061059d565b60405180910390fd5b60005b60008054905081101561034a576000808281548110610205576102046105bd565b5b9060005260206000200160009054906101000a900473ffffffffffffffffffffffffffffffffffffffff1690506000600254600160008473ffffffffffffffffffffffffffffffffffffffff1673ffffffffffffffffffffffffffffffffffffffff1681526020019081526020016000205485610282919061061b565b61028c919061068c565b905060008273ffffffffffffffffffffffffffffffffffffffff16826040516102b4906106ee565b60006040518083038185875af1925050503d80600081146102f1576040519150601f19603f3d011682016040523d82523d6000602084013e6102f6565b606091505b505090508061033a576040517f08c379a00000000000000000000000000000000000000000000000000000000081526004016103319061074f565b60405180910390fd5b50505080806001019150506101e3565b5050565b60016020528060005260406000206000915090505481565b600034116103a9576040517f08c379a00000000000000000000000000000000000000000000000000000000081526004016103a0906107bb565b60405180910390fd5b3373ffffffffffffffffffffffffffffffffffffffff167fe1fffcc4923d04b559f4d29a8bfc6cda04eb5b0d3c460751c2402c5c5cc9109c346040516103ef9190610412565b60405180910390a2565b6000819050919050565b61040c816103f9565b82525050565b60006020820190506104276000830184610403565b92915050565b600080fd5b61043b816103f9565b811461044657600080fd5b50565b60008135905061045881610432565b92915050565b6000602082840312156104745761047361042d565b5b600061048284828501610449565b91505092915050565b600073ffffffffffffffffffffffffffffffffffffffff82169050919050565b60006104b68261048b565b9050919050565b6104c6816104ab565b82525050565b60006020820190506104e160008301846104bd565b92915050565b6104f0816104ab565b81146104fb57600080fd5b50565b60008135905061050d816104e7565b92915050565b6000602082840312156105295761052861042d565b5b6000610537848285016104fe565b91505092915050565b600082825260208201905092915050565b7f4e6f206861792062616c616e6365000000000000000000000000000000000000600082015250565b6000610587600e83610540565b915061059282610551565b602082019050919050565b600060208201905081810360008301526105b68161057a565b9050919050565b7f4e487b7100000000000000000000000000000000000000000000000000000000600052603260045260246000fd5b7f4e487b7100000000000000000000000000000000000000000000000000000000600052601160045260246000fd5b6000610626826103f9565b9150610631836103f9565b925082820261063f816103f9565b91508282048414831517610656576106556105ec565b5b5092915050565b7f4e487b7100000000000000000000000000000000000000000000000000000000600052601260045260246000fd5b6000610697826103f9565b91506106a2836103f9565b9250826106b2576106b161065d565b5b828204905092915050565b600081905092915050565b50565b60006106d86000836106bd565b91506106e3826106c8565b600082019050919050565b60006106f9826106cb565b9150819050919050565b7f66616c6c6f2064656c207061676f000000000000000000000000000000000000600082015250565b6000610739600e83610540565b915061074482610703565b602082019050919050565b600060208201905081810360008301526107688161072c565b9050919050565b7f4465626573206d616e6461722065746865720000000000000000000000000000600082015250565b60006107a5601283610540565b91506107b08261076f565b602082019050919050565b600060208201905081810360008301526107d481610798565b905091905056fea2646970667358221220572922a87f664fa9c07d82794ae52688abc2e4f703018f30214f162f5c900df064736f6c634300081c0033",
  "linkReferences": {},
  "deployedLinkReferences": {}
}