{
  "_format": "hh-sol-artifact-1",
  "contractName": "GatitoNFT",
  "sourceName": "contracts/GatitoNFT.sol",
  "abi": [
    {
      "inputs": [],
      "stateMutability": "nonpayable",
      "type": "constructor"
    },
    {
      "anonymous": false,
      "inputs": [
        {
          "indexed": true,
          "internalType": "address",
          "name": "owner",
          "type": "address"
        },
        {
          "indexed": true,
          "internalType": "address",
          "name": "approved",
          "type": "address"
        },
        {
          "indexed": true,
          "internalType": "uint256",
          "name": "tokenId",
          "type": "uint256"
        }
      ],
      "name": "Approval",
      "type": "event"
    },
    {
      "anonymous": false,
      "inputs": [
        {
          "indexed": true,
          "internalType": "address",
          "name": "owner",
          "type": "address"
        },
        {
          "indexed": true,
          "internalType": "address",
          "name": "operator",
          "type": "address"
        },
        {
          "indexed": false,
          "internalType": "bool",
          "name": "approved",
          "type": "bool"
        }
      ],
      "name": "ApprovalForAll",
      "type": "event"
    },
    {
      "anonymous": false,
      "inputs": [
        {
          "indexed": true,
          "internalType": "address",
          "name": "previousOwner",
          "type": "address"
        },
        {
          "indexed": true,
          "internalType": "address",
          "name": "newOwner",
          "type": "address"
        }
      ],
      "name": "OwnershipTransferred",
      "type": "event"
    },
    {
      "anonymous": false,
      "inputs": [
        {
          "indexed": true,
          "internalType": "address",
          "name": "from",
          "type": "address"
        },
        {
          "indexed": true,
          "internalType": "address",
          "name": "to",
          "type": "address"
        },
        {
          "indexed": true,
          "internalType": "uint256",
          "name": "tokenId",
          "type": "uint256"
        }
      ],
      "name": "Transfer",
      "type": "event"
    },
    {
      "inputs": [
        {
          "internalType": "address",
          "name": "to",
          "type": "address"
        },
        {
          "internalType": "uint256",
          "name": "tokenId",
          "type": "uint256"
        }
      ],
      "name": "approve",
      "outputs": [],
      "stateMutability": "nonpayable",
      "type": "function"
    },
    {
      "inputs": [
        {
          "internalType": "address",
          "name": "owner",
          "type": "address"
        }
      ],
      "name": "balanceOf",
      "outputs": [
        {
          "internalType": "uint256",
          "name": "",
          "type": "uint256"
        }
      ],
      "stateMutability": "view",
      "type": "function"
    },
    {
      "inputs": [
        {
          "internalType": "uint256",
          "name": "tokenId",
          "type": "uint256"
        }
      ],
      "name": "getApproved",
      "outputs": [
        {
          "internalType": "address",
          "name": "",
          "type": "address"
        }
      ],
      "stateMutability": "view",
      "type": "function"
    },
    {
      "inputs": [
        {
          "internalType": "address",
          "name": "owner",
          "type": "address"
        },
        {
          "internalType": "address",
          "name": "operator",
          "type": "address"
        }
      ],
      "name": "isApprovedForAll",
      "outputs": [
        {
          "internalType": "bool",
          "name": "",
          "type": "bool"
        }
      ],
      "stateMutability": "view",
      "type": "function"
    },
    {
      "inputs": [
        {
          "internalType": "address",
          "name": "dueno",
          "type": "address"
        },
        {
          "internalType": "string",
          "name": "_tokenURI",
          "type": "string"
        }
      ],
      "name": "mintearGatito",
      "outputs": [
        {
          "internalType": "uint256",
          "name": "",
          "type": "uint256"
        }
      ],
      "stateMutability": "nonpayable",
      "type": "function"
    },
    {
      "inputs": [],
      "name": "name",
      "outputs": [
        {
          "internalType": "string",
          "name": "",
          "type": "string"
        }
      ],
      "stateMutability": "view",
      "type": "function"
    },
    {
      "inputs": [],
      "name": "owner",
      "outputs": [
        {
          "internalType": "address",
          "name": "",
          "type": "address"
        }
      ],
      "stateMutability": "view",
      "type": "function"
    },
    {
      "inputs": [
        {
          "internalType": "uint256",
          "name": "tokenId",
          "type": "uint256"
        }
      ],
      "name": "ownerOf",
      "outputs": [
        {
          "internalType": "address",
          "name": "",
          "type": "address"
        }
      ],
      "stateMutability": "view",
      "type": "function"
    },
    {
      "inputs": [],
      "name": "renounceOwnership",
      "outputs": [],
      "stateMutability": "nonpayable",
      "type": "function"
    },
    {
      "inputs": [
        {
          "internalType": "address",
          "name": "from",
          "type": "address"
        },
        {
          "internalType": "address",
          "name": "to",
          "type": "address"
        },
        {
          "internalType": "uint256",
          "name": "tokenId",
          "type": "uint256"
        }
      ],
      "name": "safeTransferFrom",
      "outputs": [],
      "stateMutability": "nonpayable",
      "type": "function"
    },
    {
      "inputs": [
        {
          "internalType": "address",
          "name": "from",
          "type": "address"
        },
        {
          "internalType": "address",
          "name": "to",
          "type": "address"
        },
        {
          "internalType": "uint256",
          "name": "tokenId",
          "type": "uint256"
        },
        {
          "internalType": "bytes",
          "name": "data",
          "type": "bytes"
        }
      ],
      "name": "safeTransferFrom",
      "outputs": [],
      "stateMutability": "nonpayable",
      "type": "function"
    },
    {
      "inputs": [
        {
          "internalType": "address",
          "name": "operator",
          "type": "address"
        },
        {
          "internalType": "bool",
          "name": "approved",
          "type": "bool"
        }
      ],
      "name": "setApprovalForAll",
      "outputs": [],
      "stateMutability": "nonpayable",
      "type": "function"
    },
    {
      "inputs": [
        {
          "internalType": "string",
          "name": "baseUri",
          "type": "string"
        }
      ],
      "name": "setBaseURI",
      "outputs": [],
      "stateMutability": "nonpayable",
      "type": "function"
    },
    {
      "inputs": [
        {
          "internalType": "bytes4",
          "name": "interfaceId",
          "type": "bytes4"
        }
      ],
      "name": "supportsInterface",
      "outputs": [
        {
          "internalType": "bool",
          "name": "",
          "type": "bool"
        }
      ],
      "stateMutability": "view",
      "type": "function"
    },
    {
      "inputs": [],
      "name": "symbol",
      "outputs": [
        {
          "internalType": "string",
          "name": "",
          "type": "string"
        }
      ],
      "stateMutability": "view",
      "type": "function"
    },
    {
      "inputs": [
        {
          "internalType": "uint256",
          "name": "tokenId",
          "type": "uint256"
        }
      ],
      "name": "tokenURI",
      "outputs": [
        {
          "internalType": "string",
          "name": "",
          "type": "string"
        }
      ],
      "stateMutability": "view",
      "type": "function"
    },
    {
      "inputs": [
        {
          "internalType": "address",
          "name": "from",
          "type": "address"
        },
        {
          "internalType": "address",
          "name": "to",
          "type": "address"
        },
        {
          "internalType": "uint256",
          "name": "tokenId",
          "type": "uint256"
        }
      ],
      "name": "transferFrom",
      "outputs": [],
      "stateMutability": "nonpayable",
      "type": "function"
    },
    {
      "inputs": [
        {
          "internalType": "address",
          "name": "newOwner",
          "type": "address"
        }
      ],
      "name": "transferOwnership",
      "outputs": [],
      "stateMutability": "nonpayable",
      "type": "function"
    }
  ],
  "bytecode": "0x608060405234801561001057600080fd5b506040518060400160405280601181526020017f47617469746f73426c6f636b636861696e0000000000000000000000000000008152506040518060400160405280600481526020017f4741544f00000000000000000000000000000000000000000000000000000000815250816000908161008c91906103de565b50806001908161009c91906103de565b5050506100bb6100b06100c060201b60201c565b6100c860201b60201c565b6104b0565b600033905090565b6000600660009054906101000a900473ffffffffffffffffffffffffffffffffffffffff16905081600660006101000a81548173ffffffffffffffffffffffffffffffffffffffff021916908373ffffffffffffffffffffffffffffffffffffffff1602179055508173ffffffffffffffffffffffffffffffffffffffff168173ffffffffffffffffffffffffffffffffffffffff167f8be0079c531659141344cd1fd0a4f28419497f9722a3daafe3b4186f6b6457e060405160405180910390a35050565b600081519050919050565b7f4e487b7100000000000000000000000000000000000000000000000000000000600052604160045260246000fd5b7f4e487b7100000000000000000000000000000000000000000000000000000000600052602260045260246000fd5b6000600282049050600182168061020f57607f821691505b602082108103610222576102216101c8565b5b50919050565b60008190508160005260206000209050919050565b60006020601f8301049050919050565b600082821b905092915050565b60006008830261028a7fffffffffffffffffffffffffffffffffffffffffffffffffffffffffffffffff8261024d565b610294868361024d565b95508019841693508086168417925050509392505050565b6000819050919050565b6000819050919050565b60006102db6102d66102d1846102ac565b6102b6565b6102ac565b9050919050565b6000819050919050565b6102f5836102c0565b610309610301826102e2565b84845461025a565b825550505050565b600090565b61031e610311565b6103298184846102ec565b505050565b5b8181101561034d57610342600082610316565b60018101905061032f565b5050565b601f8211156103925761036381610228565b61036c8461023d565b8101602085101561037b578190505b61038f6103878561023d565b83018261032e565b50505b505050565b600082821c905092915050565b60006103b560001984600802610397565b1980831691505092915050565b60006103ce83836103a4565b9150826002028217905092915050565b6103e78261018e565b67ffffffffffffffff811115610400576103ff610199565b5b61040a82546101f7565b610415828285610351565b600060209050601f8311600181146104485760008415610436578287015190505b61044085826103c2565b8655506104a8565b601f19841661045686610228565b60005b8281101561047e57848901518255600182019150602085019450602081019050610459565b8683101561049b5784890151610497601f8916826103a4565b8355505b6001600288020188555050505b505050505050565b612e81806104bf6000396000f3fe608060405234801561001057600080fd5b50600436106101165760003560e01c8063715018a6116100a2578063a22cb46511610071578063a22cb465146102df578063b88d4fde146102fb578063c87b56dd14610317578063e985e9c514610347578063f2fde38b1461037757610116565b8063715018a6146102695780638da5cb5b1461027357806395d89b411461029157806397fb27a2146102af57610116565b806323b872dd116100e957806323b872dd146101b557806342842e0e146101d157806355f804b3146101ed5780636352211e1461020957806370a082311461023957610116565b806301ffc9a71461011b57806306fdde031461014b578063081812fc14610169578063095ea7b314610199575b600080fd5b61013560048036038101906101309190611c4f565b610393565b6040516101429190611c97565b60405180910390f35b610153610475565b6040516101609190611d42565b60405180910390f35b610183600480360381019061017e9190611d9a565b610507565b6040516101909190611e08565b60405180910390f35b6101b360048036038101906101ae9190611e4f565b61054d565b005b6101cf60048036038101906101ca9190611e8f565b610664565b005b6101eb60048036038101906101e69190611e8f565b6106c4565b005b61020760048036038101906102029190612017565b6106e4565b005b610223600480360381019061021e9190611d9a565b6106ff565b6040516102309190611e08565b60405180910390f35b610253600480360381019061024e9190612060565b610785565b604051610260919061209c565b60405180910390f35b61027161083c565b005b61027b610850565b6040516102889190611e08565b60405180910390f35b61029961087a565b6040516102a69190611d42565b60405180910390f35b6102c960048036038101906102c491906120b7565b61090c565b6040516102d6919061209c565b60405180910390f35b6102f960048036038101906102f4919061213f565b61094c565b005b61031560048036038101906103109190612220565b610962565b005b610331600480360381019061032c9190611d9a565b6109c4565b60405161033e9190611d42565b60405180910390f35b610361600480360381019061035c91906122a3565b610bb9565b60405161036e9190611c97565b60405180910390f35b610391600480360381019061038c9190612060565b610c4d565b005b60007f80ac58cd000000000000000000000000000000000000000000000000000000007bffffffffffffffffffffffffffffffffffffffffffffffffffffffff1916827bffffffffffffffffffffffffffffffffffffffffffffffffffffffff1916148061045e57507f5b5e139f000000000000000000000000000000000000000000000000000000007bffffffffffffffffffffffffffffffffffffffffffffffffffffffff1916827bffffffffffffffffffffffffffffffffffffffffffffffffffffffff1916145b8061046e575061046d82610cd0565b5b9050919050565b60606000805461048490612312565b80601f01602080910402602001604051908101604052809291908181526020018280546104b090612312565b80156104fd5780601f106104d2576101008083540402835291602001916104fd565b820191906000526020600020905b8154815290600101906020018083116104e057829003601f168201915b5050505050905090565b600061051282610d3a565b6004600083815260200190815260200160002060009054906101000a900473ffffffffffffffffffffffffffffffffffffffff169050919050565b6000610558826106ff565b90508073ffffffffffffffffffffffffffffffffffffffff168373ffffffffffffffffffffffffffffffffffffffff16036105c8576040517f08c379a00000000000000000000000000000000000000000000000000000000081526004016105bf906123b5565b60405180910390fd5b8073ffffffffffffffffffffffffffffffffffffffff166105e7610d85565b73ffffffffffffffffffffffffffffffffffffffff161480610616575061061581610610610d85565b610bb9565b5b610655576040517f08c379a000000000000000000000000000000000000000000000000000000000815260040161064c90612447565b60405180910390fd5b61065f8383610d8d565b505050565b61067561066f610d85565b82610e46565b6106b4576040517f08c379a00000000000000000000000000000000000000000000000000000000081526004016106ab906124d9565b60405180910390fd5b6106bf838383610edb565b505050565b6106df83838360405180602001604052806000815250610962565b505050565b6106ec6111d4565b80600990816106fb91906126a5565b5050565b60008061070b83611252565b9050600073ffffffffffffffffffffffffffffffffffffffff168173ffffffffffffffffffffffffffffffffffffffff160361077c576040517f08c379a0000000000000000000000000000000000000000000000000000000008152600401610773906127c3565b60405180910390fd5b80915050919050565b60008073ffffffffffffffffffffffffffffffffffffffff168273ffffffffffffffffffffffffffffffffffffffff16036107f5576040517f08c379a00000000000000000000000000000000000000000000000000000000081526004016107ec90612855565b60405180910390fd5b600360008373ffffffffffffffffffffffffffffffffffffffff1673ffffffffffffffffffffffffffffffffffffffff168152602001908152602001600020549050919050565b6108446111d4565b61084e600061128f565b565b6000600660009054906101000a900473ffffffffffffffffffffffffffffffffffffffff16905090565b60606001805461088990612312565b80601f01602080910402602001604051908101604052809291908181526020018280546108b590612312565b80156109025780601f106108d757610100808354040283529160200191610902565b820191906000526020600020905b8154815290600101906020018083116108e557829003601f168201915b5050505050905090565b60006109166111d4565b6109206007611355565b600061092c600761136b565b90506109388482611379565b6109428184611596565b8091505092915050565b61095e610957610d85565b8383611603565b5050565b61097361096d610d85565b83610e46565b6109b2576040517f08c379a00000000000000000000000000000000000000000000000000000000081526004016109a9906124d9565b60405180910390fd5b6109be8484848461176f565b50505050565b60606109cf826117cb565b610a0e576040517f08c379a0000000000000000000000000000000000000000000000000000000008152600401610a05906128c1565b60405180910390fd5b6000600860008481526020019081526020016000208054610a2e90612312565b80601f0160208091040260200160405190810160405280929190818152602001828054610a5a90612312565b8015610aa75780601f10610a7c57610100808354040283529160200191610aa7565b820191906000526020600020905b815481529060010190602001808311610a8a57829003601f168201915b50505050509050600060098054610abd90612312565b80601f0160208091040260200160405190810160405280929190818152602001828054610ae990612312565b8015610b365780601f10610b0b57610100808354040283529160200191610b36565b820191906000526020600020905b815481529060010190602001808311610b1957829003601f168201915b505050505090506000815103610b50578192505050610bb4565b600082511115610b85578082604051602001610b6d92919061291d565b60405160208183030381529060405292505050610bb4565b80610b8f8561180c565b604051602001610ba092919061291d565b604051602081830303815290604052925050505b919050565b6000600560008473ffffffffffffffffffffffffffffffffffffffff1673ffffffffffffffffffffffffffffffffffffffff16815260200190815260200160002060008373ffffffffffffffffffffffffffffffffffffffff1673ffffffffffffffffffffffffffffffffffffffff16815260200190815260200160002060009054906101000a900460ff16905092915050565b610c556111d4565b600073ffffffffffffffffffffffffffffffffffffffff168173ffffffffffffffffffffffffffffffffffffffff1603610cc4576040517f08c379a0000000000000000000000000000000000000000000000000000000008152600401610cbb906129b3565b60405180910390fd5b610ccd8161128f565b50565b60007f01ffc9a7000000000000000000000000000000000000000000000000000000007bffffffffffffffffffffffffffffffffffffffffffffffffffffffff1916827bffffffffffffffffffffffffffffffffffffffffffffffffffffffff1916149050919050565b610d43816117cb565b610d82576040517f08c379a0000000000000000000000000000000000000000000000000000000008152600401610d79906127c3565b60405180910390fd5b50565b600033905090565b816004600083815260200190815260200160002060006101000a81548173ffffffffffffffffffffffffffffffffffffffff021916908373ffffffffffffffffffffffffffffffffffffffff160217905550808273ffffffffffffffffffffffffffffffffffffffff16610e00836106ff565b73ffffffffffffffffffffffffffffffffffffffff167f8c5be1e5ebec7d5bd14f71427d1e84f3dd0314c0f7b2291e5b200ac8c7c3b92560405160405180910390a45050565b600080610e52836106ff565b90508073ffffffffffffffffffffffffffffffffffffffff168473ffffffffffffffffffffffffffffffffffffffff161480610e945750610e938185610bb9565b5b80610ed257508373ffffffffffffffffffffffffffffffffffffffff16610eba84610507565b73ffffffffffffffffffffffffffffffffffffffff16145b91505092915050565b8273ffffffffffffffffffffffffffffffffffffffff16610efb826106ff565b73ffffffffffffffffffffffffffffffffffffffff1614610f51576040517f08c379a0000000000000000000000000000000000000000000000000000000008152600401610f4890612a45565b60405180910390fd5b600073ffffffffffffffffffffffffffffffffffffffff168273ffffffffffffffffffffffffffffffffffffffff1603610fc0576040517f08c379a0000000000000000000000000000000000000000000000000000000008152600401610fb790612ad7565b60405180910390fd5b610fcd83838360016118da565b8273ffffffffffffffffffffffffffffffffffffffff16610fed826106ff565b73ffffffffffffffffffffffffffffffffffffffff1614611043576040517f08c379a000000000000000000000000000000000000000000000000000000000815260040161103a90612a45565b60405180910390fd5b6004600082815260200190815260200160002060006101000a81549073ffffffffffffffffffffffffffffffffffffffff02191690556001600360008573ffffffffffffffffffffffffffffffffffffffff1673ffffffffffffffffffffffffffffffffffffffff168152602001908152602001600020600082825403925050819055506001600360008473ffffffffffffffffffffffffffffffffffffffff1673ffffffffffffffffffffffffffffffffffffffff16815260200190815260200160002060008282540192505081905550816002600083815260200190815260200160002060006101000a81548173ffffffffffffffffffffffffffffffffffffffff021916908373ffffffffffffffffffffffffffffffffffffffff160217905550808273ffffffffffffffffffffffffffffffffffffffff168473ffffffffffffffffffffffffffffffffffffffff167fddf252ad1be2c89b69c2b068fc378daa952ba7f163c4a11628f55a4df523b3ef60405160405180910390a46111cf83838360016118e0565b505050565b6111dc610d85565b73ffffffffffffffffffffffffffffffffffffffff166111fa610850565b73ffffffffffffffffffffffffffffffffffffffff1614611250576040517f08c379a000000000000000000000000000000000000000000000000000000000815260040161124790612b43565b60405180910390fd5b565b60006002600083815260200190815260200160002060009054906101000a900473ffffffffffffffffffffffffffffffffffffffff169050919050565b6000600660009054906101000a900473ffffffffffffffffffffffffffffffffffffffff16905081600660006101000a81548173ffffffffffffffffffffffffffffffffffffffff021916908373ffffffffffffffffffffffffffffffffffffffff1602179055508173ffffffffffffffffffffffffffffffffffffffff168173ffffffffffffffffffffffffffffffffffffffff167f8be0079c531659141344cd1fd0a4f28419497f9722a3daafe3b4186f6b6457e060405160405180910390a35050565b6001816000016000828254019250508190555050565b600081600001549050919050565b600073ffffffffffffffffffffffffffffffffffffffff168273ffffffffffffffffffffffffffffffffffffffff16036113e8576040517f08c379a00000000000000000000000000000000000000000000000000000000081526004016113df90612baf565b60405180910390fd5b6113f1816117cb565b15611431576040517f08c379a000000000000000000000000000000000000000000000000000000000815260040161142890612c1b565b60405180910390fd5b61143f6000838360016118da565b611448816117cb565b15611488576040517f08c379a000000000000000000000000000000000000000000000000000000000815260040161147f90612c1b565b60405180910390fd5b6001600360008473ffffffffffffffffffffffffffffffffffffffff1673ffffffffffffffffffffffffffffffffffffffff16815260200190815260200160002060008282540192505081905550816002600083815260200190815260200160002060006101000a81548173ffffffffffffffffffffffffffffffffffffffff021916908373ffffffffffffffffffffffffffffffffffffffff160217905550808273ffffffffffffffffffffffffffffffffffffffff16600073ffffffffffffffffffffffffffffffffffffffff167fddf252ad1be2c89b69c2b068fc378daa952ba7f163c4a11628f55a4df523b3ef60405160405180910390a46115926000838360016118e0565b5050565b61159f826117cb565b6115de576040517f08c379a00000000000000000000000000000000000000000000000000000000081526004016115d5906128c1565b60405180910390fd5b806008600084815260200190815260200160002090816115fe91906126a5565b505050565b8173ffffffffffffffffffffffffffffffffffffffff168373ffffffffffffffffffffffffffffffffffffffff1603611671576040517f08c379a000000000000000000000000000000000000000000000000000000000815260040161166890612c87565b60405180910390fd5b80600560008573ffffffffffffffffffffffffffffffffffffffff1673ffffffffffffffffffffffffffffffffffffffff16815260200190815260200160002060008473ffffffffffffffffffffffffffffffffffffffff1673ffffffffffffffffffffffffffffffffffffffff16815260200190815260200160002060006101000a81548160ff0219169083151502179055508173ffffffffffffffffffffffffffffffffffffffff168373ffffffffffffffffffffffffffffffffffffffff167f17307eab39ab6107e8899845ad3d59bd9653f200f220920489ca2b5937696c31836040516117629190611c97565b60405180910390a3505050565b61177a848484610edb565b611786848484846118e6565b6117c5576040517f08c379a00000000000000000000000000000000000000000000000000000000081526004016117bc90612d19565b60405180910390fd5b50505050565b60008073ffffffffffffffffffffffffffffffffffffffff166117ed83611252565b73ffffffffffffffffffffffffffffffffffffffff1614159050919050565b60606000600161181b84611a6d565b01905060008167ffffffffffffffff81111561183a57611839611eec565b5b6040519080825280601f01601f19166020018201604052801561186c5781602001600182028036833780820191505090505b509050600082602001820190505b6001156118cf578080600190039150507f3031323334353637383961626364656600000000000000000000000000000000600a86061a8153600a85816118c3576118c2612d39565b5b0494506000850361187a575b819350505050919050565b50505050565b50505050565b60006119078473ffffffffffffffffffffffffffffffffffffffff16611bc0565b15611a60578373ffffffffffffffffffffffffffffffffffffffff1663150b7a02611930610d85565b8786866040518563ffffffff1660e01b81526004016119529493929190612dbd565b6020604051808303816000875af192505050801561198e57506040513d601f19601f8201168201806040525081019061198b9190612e1e565b60015b611a10573d80600081146119be576040519150601f19603f3d011682016040523d82523d6000602084013e6119c3565b606091505b506000815103611a08576040517f08c379a00000000000000000000000000000000000000000000000000000000081526004016119ff90612d19565b60405180910390fd5b805181602001fd5b63150b7a0260e01b7bffffffffffffffffffffffffffffffffffffffffffffffffffffffff1916817bffffffffffffffffffffffffffffffffffffffffffffffffffffffff191614915050611a65565b600190505b949350505050565b600080600090507a184f03e93ff9f4daa797ed6e38ed64bf6a1f0100000000000000008310611acb577a184f03e93ff9f4daa797ed6e38ed64bf6a1f0100000000000000008381611ac157611ac0612d39565b5b0492506040810190505b6d04ee2d6d415b85acef81000000008310611b08576d04ee2d6d415b85acef81000000008381611afe57611afd612d39565b5b0492506020810190505b662386f26fc100008310611b3757662386f26fc100008381611b2d57611b2c612d39565b5b0492506010810190505b6305f5e1008310611b60576305f5e1008381611b5657611b55612d39565b5b0492506008810190505b6127108310611b85576127108381611b7b57611b7a612d39565b5b0492506004810190505b60648310611ba85760648381611b9e57611b9d612d39565b5b0492506002810190505b600a8310611bb7576001810190505b80915050919050565b6000808273ffffffffffffffffffffffffffffffffffffffff163b119050919050565b6000604051905090565b600080fd5b600080fd5b60007fffffffff0000000000000000000000000000000000000000000000000000000082169050919050565b611c2c81611bf7565b8114611c3757600080fd5b50565b600081359050611c4981611c23565b92915050565b600060208284031215611c6557611c64611bed565b5b6000611c7384828501611c3a565b91505092915050565b60008115159050919050565b611c9181611c7c565b82525050565b6000602082019050611cac6000830184611c88565b92915050565b600081519050919050565b600082825260208201905092915050565b60005b83811015611cec578082015181840152602081019050611cd1565b60008484015250505050565b6000601f19601f8301169050919050565b6000611d1482611cb2565b611d1e8185611cbd565b9350611d2e818560208601611cce565b611d3781611cf8565b840191505092915050565b60006020820190508181036000830152611d5c8184611d09565b905092915050565b6000819050919050565b611d7781611d64565b8114611d8257600080fd5b50565b600081359050611d9481611d6e565b92915050565b600060208284031215611db057611daf611bed565b5b6000611dbe84828501611d85565b91505092915050565b600073ffffffffffffffffffffffffffffffffffffffff82169050919050565b6000611df282611dc7565b9050919050565b611e0281611de7565b82525050565b6000602082019050611e1d6000830184611df9565b92915050565b611e2c81611de7565b8114611e3757600080fd5b50565b600081359050611e4981611e23565b92915050565b60008060408385031215611e6657611e65611bed565b5b6000611e7485828601611e3a565b9250506020611e8585828601611d85565b9150509250929050565b600080600060608486031215611ea857611ea7611bed565b5b6000611eb686828701611e3a565b9350506020611ec786828701611e3a565b9250506040611ed886828701611d85565b9150509250925092565b600080fd5b600080fd5b7f4e487b7100000000000000000000000000000000000000000000000000000000600052604160045260246000fd5b611f2482611cf8565b810181811067ffffffffffffffff82111715611f4357611f42611eec565b5b80604052505050565b6000611f56611be3565b9050611f628282611f1b565b919050565b600067ffffffffffffffff821115611f8257611f81611eec565b5b611f8b82611cf8565b9050602081019050919050565b82818337600083830152505050565b6000611fba611fb584611f67565b611f4c565b905082815260208101848484011115611fd657611fd5611ee7565b5b611fe1848285611f98565b509392505050565b600082601f830112611ffe57611ffd611ee2565b5b813561200e848260208601611fa7565b91505092915050565b60006020828403121561202d5761202c611bed565b5b600082013567ffffffffffffffff81111561204b5761204a611bf2565b5b61205784828501611fe9565b91505092915050565b60006020828403121561207657612075611bed565b5b600061208484828501611e3a565b91505092915050565b61209681611d64565b82525050565b60006020820190506120b1600083018461208d565b92915050565b600080604083850312156120ce576120cd611bed565b5b60006120dc85828601611e3a565b925050602083013567ffffffffffffffff8111156120fd576120fc611bf2565b5b61210985828601611fe9565b9150509250929050565b61211c81611c7c565b811461212757600080fd5b50565b60008135905061213981612113565b92915050565b6000806040838503121561215657612155611bed565b5b600061216485828601611e3a565b92505060206121758582860161212a565b9150509250929050565b600067ffffffffffffffff82111561219a57612199611eec565b5b6121a382611cf8565b9050602081019050919050565b60006121c36121be8461217f565b611f4c565b9050828152602081018484840111156121df576121de611ee7565b5b6121ea848285611f98565b509392505050565b600082601f83011261220757612206611ee2565b5b81356122178482602086016121b0565b91505092915050565b6000806000806080858703121561223a57612239611bed565b5b600061224887828801611e3a565b945050602061225987828801611e3a565b935050604061226a87828801611d85565b925050606085013567ffffffffffffffff81111561228b5761228a611bf2565b5b612297878288016121f2565b91505092959194509250565b600080604083850312156122ba576122b9611bed565b5b60006122c885828601611e3a565b92505060206122d985828601611e3a565b9150509250929050565b7f4e487b7100000000000000000000000000000000000000000000000000000000600052602260045260246000fd5b6000600282049050600182168061232a57607f821691505b60208210810361233d5761233c6122e3565b5b50919050565b7f4552433732313a20617070726f76616c20746f2063757272656e74206f776e6560008201527f7200000000000000000000000000000000000000000000000000000000000000602082015250565b600061239f602183611cbd565b91506123aa82612343565b604082019050919050565b600060208201905081810360008301526123ce81612392565b9050919050565b7f4552433732313a20617070726f76652063616c6c6572206973206e6f7420746f60008201527f6b656e206f776e6572206f7220617070726f76656420666f7220616c6c000000602082015250565b6000612431603d83611cbd565b915061243c826123d5565b604082019050919050565b6000602082019050818103600083015261246081612424565b9050919050565b7f4552433732313a2063616c6c6572206973206e6f7420746f6b656e206f776e6560008201527f72206f7220617070726f76656400000000000000000000000000000000000000602082015250565b60006124c3602d83611cbd565b91506124ce82612467565b604082019050919050565b600060208201905081810360008301526124f2816124b6565b9050919050565b60008190508160005260206000209050919050565b60006020601f8301049050919050565b600082821b905092915050565b60006008830261255b7fffffffffffffffffffffffffffffffffffffffffffffffffffffffffffffffff8261251e565b612565868361251e565b95508019841693508086168417925050509392505050565b6000819050919050565b60006125a261259d61259884611d64565b61257d565b611d64565b9050919050565b6000819050919050565b6125bc83612587565b6125d06125c8826125a9565b84845461252b565b825550505050565b600090565b6125e56125d8565b6125f08184846125b3565b505050565b5b81811015612614576126096000826125dd565b6001810190506125f6565b5050565b601f8211156126595761262a816124f9565b6126338461250e565b81016020851015612642578190505b61265661264e8561250e565b8301826125f5565b50505b505050565b600082821c905092915050565b600061267c6000198460080261265e565b1980831691505092915050565b6000612695838361266b565b9150826002028217905092915050565b6126ae82611cb2565b67ffffffffffffffff8111156126c7576126c6611eec565b5b6126d18254612312565b6126dc828285612618565b600060209050601f83116001811461270f57600084156126fd578287015190505b6127078582612689565b86555061276f565b601f19841661271d866124f9565b60005b8281101561274557848901518255600182019150602085019450602081019050612720565b86831015612762578489015161275e601f89168261266b565b8355505b6001600288020188555050505b505050505050565b7f4552433732313a20696e76616c696420746f6b656e2049440000000000000000600082015250565b60006127ad601883611cbd565b91506127b882612777565b602082019050919050565b600060208201905081810360008301526127dc816127a0565b9050919050565b7f4552433732313a2061646472657373207a65726f206973206e6f74206120766160008201527f6c6964206f776e65720000000000000000000000000000000000000000000000602082015250565b600061283f602983611cbd565b915061284a826127e3565b604082019050919050565b6000602082019050818103600083015261286e81612832565b9050919050565b7f4761746f4e46543a204e6f206578697374652065736520746f6b656e00000000600082015250565b60006128ab601c83611cbd565b91506128b682612875565b602082019050919050565b600060208201905081810360008301526128da8161289e565b9050919050565b600081905092915050565b60006128f782611cb2565b61290181856128e1565b9350612911818560208601611cce565b80840191505092915050565b600061292982856128ec565b915061293582846128ec565b91508190509392505050565b7f4f776e61626c653a206e6577206f776e657220697320746865207a65726f206160008201527f6464726573730000000000000000000000000000000000000000000000000000602082015250565b600061299d602683611cbd565b91506129a882612941565b604082019050919050565b600060208201905081810360008301526129cc81612990565b9050919050565b7f4552433732313a207472616e736665722066726f6d20696e636f72726563742060008201527f6f776e6572000000000000000000000000000000000000000000000000000000602082015250565b6000612a2f602583611cbd565b9150612a3a826129d3565b604082019050919050565b60006020820190508181036000830152612a5e81612a22565b9050919050565b7f4552433732313a207472616e7366657220746f20746865207a65726f2061646460008201527f7265737300000000000000000000000000000000000000000000000000000000602082015250565b6000612ac1602483611cbd565b9150612acc82612a65565b604082019050919050565b60006020820190508181036000830152612af081612ab4565b9050919050565b7f4f776e61626c653a2063616c6c6572206973206e6f7420746865206f776e6572600082015250565b6000612b2d602083611cbd565b9150612b3882612af7565b602082019050919050565b60006020820190508181036000830152612b5c81612b20565b9050919050565b7f4552433732313a206d696e7420746f20746865207a65726f2061646472657373600082015250565b6000612b99602083611cbd565b9150612ba482612b63565b602082019050919050565b60006020820190508181036000830152612bc881612b8c565b9050919050565b7f4552433732313a20746f6b656e20616c7265616479206d696e74656400000000600082015250565b6000612c05601c83611cbd565b9150612c1082612bcf565b602082019050919050565b60006020820190508181036000830152612c3481612bf8565b9050919050565b7f4552433732313a20617070726f766520746f2063616c6c657200000000000000600082015250565b6000612c71601983611cbd565b9150612c7c82612c3b565b602082019050919050565b60006020820190508181036000830152612ca081612c64565b9050919050565b7f4552433732313a207472616e7366657220746f206e6f6e20455243373231526560008201527f63656976657220696d706c656d656e7465720000000000000000000000000000602082015250565b6000612d03603283611cbd565b9150612d0e82612ca7565b604082019050919050565b60006020820190508181036000830152612d3281612cf6565b9050919050565b7f4e487b7100000000000000000000000000000000000000000000000000000000600052601260045260246000fd5b600081519050919050565b600082825260208201905092915050565b6000612d8f82612d68565b612d998185612d73565b9350612da9818560208601611cce565b612db281611cf8565b840191505092915050565b6000608082019050612dd26000830187611df9565b612ddf6020830186611df9565b612dec604083018561208d565b8181036060830152612dfe8184612d84565b905095945050505050565b600081519050612e1881611c23565b92915050565b600060208284031215612e3457612e33611bed565b5b6000612e4284828501612e09565b9150509291505056fea26469706673582212201e7bb2d17b5c2e48e8cce7a1b115cb96848f8d141255afc15e171c58c221126264736f6c634300081c0033",
  "linkReferences": {},
  "deployedLinkReferences": {}
}