{
  "_format": "hh-sol-artifact-1",
  "contractName": "GatitosPaymentMultisig",
  "sourceName": "contracts/GatitoWallet.sol",
  "abi": [
    {
      "inputs": [
        {
          "internalType": "address[]",
          "name": "_cuidadores",
          "type": "address[]"
        },
        {
          "internalType": "uint256",
          "name": "_firmasRequeridas",
          "type": "uint256"
        },
        {
          "internalType": "address[]",
          "name": "_criadores",
          "type": "address[]"
        },
        {
          "internalType": "uint256[]",
          "name": "_porcentajes",
          "type": "uint256[]"
        }
      ],
      "stateMutability": "nonpayable",
      "type": "constructor"
    },
    {
      "anonymous": false,
      "inputs": [
        {
          "indexed": false,
          "internalType": "address",
          "name": "remitente",
          "type": "address"
        },
        {
          "indexed": false,
          "internalType": "uint256",
          "name": "cantidad",
          "type": "uint256"
        }
      ],
      "name": "Deposito",
      "type": "event"
    },
    {
      "anonymous": false,
      "inputs": [
        {
          "indexed": false,
          "internalType": "uint256",
          "name": "id",
          "type": "uint256"
        },
        {
          "indexed": false,
          "internalType": "string",
          "name": "nombre",
          "type": "string"
        },
        {
          "indexed": false,
          "internalType": "uint256",
          "name": "precio",
          "type": "uint256"
        },
        {
          "indexed": false,
          "internalType": "string",
          "name": "imagen",
          "type": "string"
        },
        {
          "indexed": false,
          "internalType": "address",
          "name": "criador",
          "type": "address"
        }
      ],
      "name": "GatitoAgregado",
      "type": "event"
    },
    {
      "anonymous": false,
      "inputs": [
        {
          "indexed": false,
          "internalType": "uint256",
          "name": "id",
          "type": "uint256"
        },
        {
          "indexed": false,
          "internalType": "address",
          "name": "comprador",
          "type": "address"
        },
        {
          "indexed": false,
          "internalType": "uint256",
          "name": "precio",
          "type": "uint256"
        }
      ],
      "name": "GatitoComprado",
      "type": "event"
    },
    {
      "anonymous": false,
      "inputs": [
        {
          "indexed": false,
          "internalType": "address",
          "name": "criador",
          "type": "address"
        },
        {
          "indexed": false,
          "internalType": "uint256",
          "name": "cantidad",
          "type": "uint256"
        }
      ],
      "name": "PagoLiberado",
      "type": "event"
    },
    {
      "anonymous": false,
      "inputs": [
        {
          "indexed": false,
          "internalType": "uint256",
          "name": "id",
          "type": "uint256"
        },
        {
          "indexed": false,
          "internalType": "address",
          "name": "destino",
          "type": "address"
        },
        {
          "indexed": false,
          "internalType": "uint256",
          "name": "monto",
          "type": "uint256"
        }
      ],
      "name": "TxCreada",
      "type": "event"
    },
    {
      "anonymous": false,
      "inputs": [
        {
          "indexed": false,
          "internalType": "uint256",
          "name": "id",
          "type": "uint256"
        },
        {
          "indexed": false,
          "internalType": "address",
          "name": "destino",
          "type": "address"
        },
        {
          "indexed": false,
          "internalType": "uint256",
          "name": "monto",
          "type": "uint256"
        }
      ],
      "name": "TxEjecutada",
      "type": "event"
    },
    {
      "anonymous": false,
      "inputs": [
        {
          "indexed": false,
          "internalType": "uint256",
          "name": "id",
          "type": "uint256"
        },
        {
          "indexed": false,
          "internalType": "address",
          "name": "firmante",
          "type": "address"
        }
      ],
      "name": "TxFirmada",
      "type": "event"
    },
    {
      "inputs": [
        {
          "internalType": "string",
          "name": "_nombre",
          "type": "string"
        },
        {
          "internalType": "uint256",
          "name": "_precio",
          "type": "uint256"
        },
        {
          "internalType": "string",
          "name": "_imagen",
          "type": "string"
        }
      ],
      "name": "agregarGatito",
      "outputs": [],
      "stateMutability": "nonpayable",
      "type": "function"
    },
    {
      "inputs": [
        {
          "internalType": "uint256",
          "name": "_gatitoId",
          "type": "uint256"
        }
      ],
      "name": "comprarGatito",
      "outputs": [],
      "stateMutability": "payable",
      "type": "function"
    },
    {
      "inputs": [
        {
          "internalType": "address",
          "name": "_destino",
          "type": "address"
        },
        {
          "internalType": "uint256",
          "name": "_monto",
          "type": "uint256"
        }
      ],
      "name": "crearTransaccion",
      "outputs": [],
      "stateMutability": "nonpayable",
      "type": "function"
    },
    {
      "inputs": [
        {
          "internalType": "uint256",
          "name": "",
          "type": "uint256"
        }
      ],
      "name": "criadores",
      "outputs": [
        {
          "internalType": "address",
          "name": "",
          "type": "address"
        }
      ],
      "stateMutability": "view",
      "type": "function"
    },
    {
      "inputs": [
        {
          "internalType": "uint256",
          "name": "",
          "type": "uint256"
        }
      ],
      "name": "cuidadores",
      "outputs": [
        {
          "internalType": "address",
          "name": "",
          "type": "address"
        }
      ],
      "stateMutability": "view",
      "type": "function"
    },
    {
      "inputs": [
        {
          "internalType": "uint256",
          "name": "_txId",
          "type": "uint256"
        }
      ],
      "name": "ejecutarTransaccion",
      "outputs": [],
      "stateMutability": "nonpayable",
      "type": "function"
    },
    {
      "inputs": [
        {
          "internalType": "address",
          "name": "",
          "type": "address"
        }
      ],
      "name": "esCuidador",
      "outputs": [
        {
          "internalType": "bool",
          "name": "",
          "type": "bool"
        }
      ],
      "stateMutability": "view",
      "type": "function"
    },
    {
      "inputs": [
        {
          "internalType": "uint256",
          "name": "_txId",
          "type": "uint256"
        }
      ],
      "name": "firmarTransaccion",
      "outputs": [],
      "stateMutability": "nonpayable",
      "type": "function"
    },
    {
      "inputs": [],
      "name": "firmasRequeridas",
      "outputs": [
        {
          "internalType": "uint256",
          "name": "",
          "type": "uint256"
        }
      ],
      "stateMutability": "view",
      "type": "function"
    },
    {
      "inputs": [
        {
          "internalType": "uint256",
          "name": "",
          "type": "uint256"
        },
        {
          "internalType": "address",
          "name": "",
          "type": "address"
        }
      ],
      "name": "firmo",
      "outputs": [
        {
          "internalType": "bool",
          "name": "",
          "type": "bool"
        }
      ],
      "stateMutability": "view",
      "type": "function"
    },
    {
      "inputs": [
        {
          "internalType": "uint256",
          "name": "",
          "type": "uint256"
        }
      ],
      "name": "gatitos",
      "outputs": [
        {
          "internalType": "uint256",
          "name": "id",
          "type": "uint256"
        },
        {
          "internalType": "string",
          "name": "nombre",
          "type": "string"
        },
        {
          "internalType": "uint256",
          "name": "precio",
          "type": "uint256"
        },
        {
          "internalType": "string",
          "name": "imagen",
          "type": "string"
        },
        {
          "internalType": "address",
          "name": "criador",
          "type": "address"
        },
        {
          "internalType": "bool",
          "name": "disponible",
          "type": "bool"
        }
      ],
      "stateMutability": "view",
      "type": "function"
    },
    {
      "inputs": [
        {
          "internalType": "uint256",
          "name": "",
          "type": "uint256"
        },
        {
          "internalType": "uint256",
          "name": "",
          "type": "uint256"
        }
      ],
      "name": "historialFirmas",
      "outputs": [
        {
          "internalType": "address",
          "name": "firmante",
          "type": "address"
        },
        {
          "internalType": "uint256",
          "name": "timestamp",
          "type": "uint256"
        }
      ],
      "stateMutability": "view",
      "type": "function"
    },
    {
      "inputs": [
        {
          "internalType": "address",
          "name": "",
          "type": "address"
        },
        {
          "internalType": "uint256",
          "name": "",
          "type": "uint256"
        }
      ],
      "name": "misGatitosComprados",
      "outputs": [
        {
          "internalType": "uint256",
          "name": "",
          "type": "uint256"
        }
      ],
      "stateMutability": "view",
      "type": "function"
    },
    {
      "inputs": [],
      "name": "nextGatitoId",
      "outputs": [
        {
          "internalType": "uint256",
          "name": "",
          "type": "uint256"
        }
      ],
      "stateMutability": "view",
      "type": "function"
    },
    {
      "inputs": [],
      "name": "nextTxId",
      "outputs": [
        {
          "internalType": "uint256",
          "name": "",
          "type": "uint256"
        }
      ],
      "stateMutability": "view",
      "type": "function"
    },
    {
      "inputs": [],
      "name": "obtenerGatitos",
      "outputs": [
        {
          "components": [
            {
              "internalType": "uint256",
              "name": "id",
              "type": "uint256"
            },
            {
              "internalType": "string",
              "name": "nombre",
              "type": "string"
            },
            {
              "internalType": "uint256",
              "name": "precio",
              "type": "uint256"
            },
            {
              "internalType": "string",
              "name": "imagen",
              "type": "string"
            },
            {
              "internalType": "address",
              "name": "criador",
              "type": "address"
            },
            {
              "internalType": "bool",
              "name": "disponible",
              "type": "bool"
            }
          ],
          "internalType": "struct GatitosPaymentMultisig.Gatito[]",
          "name": "",
          "type": "tuple[]"
        }
      ],
      "stateMutability": "view",
      "type": "function"
    },
    {
      "inputs": [
        {
          "internalType": "address",
          "name": "",
          "type": "address"
        }
      ],
      "name": "porcentajeGatitos",
      "outputs": [
        {
          "internalType": "uint256",
          "name": "",
          "type": "uint256"
        }
      ],
      "stateMutability": "view",
      "type": "function"
    },
    {
      "inputs": [],
      "name": "repartirFondos",
      "outputs": [],
      "stateMutability": "nonpayable",
      "type": "function"
    },
    {
      "inputs": [],
      "name": "totalPorcentajes",
      "outputs": [
        {
          "internalType": "uint256",
          "name": "",
          "type": "uint256"
        }
      ],
      "stateMutability": "view",
      "type": "function"
    },
    {
      "inputs": [
        {
          "internalType": "uint256",
          "name": "",
          "type": "uint256"
        }
      ],
      "name": "transacciones",
      "outputs": [
        {
          "internalType": "uint256",
          "name": "id",
          "type": "uint256"
        },
        {
          "internalType": "address",
          "name": "destino",
          "type": "address"
        },
        {
          "internalType": "uint256",
          "name": "monto",
          "type": "uint256"
        },
        {
          "internalType": "uint256",
          "name": "firmas",
          "type": "uint256"
        },
        {
          "internalType": "bool",
          "name": "ejecutada",
          "type": "bool"
        }
      ],
      "stateMutability": "view",
      "type": "function"
    },
    {
      "inputs": [],
      "name": "verBalance",
      "outputs": [
        {
          "internalType": "uint256",
          "name": "",
          "type": "uint256"
        }
      ],
      "stateMutability": "view",
      "type": "function"
    }
  ],
  "bytecode": "0x608060405234801561001057600080fd5b506040516135e83803806135e8833981810160405281019061003291906106a1565b6001600d81905550600084511161007e576040517f08c379a0000000000000000000000000000000000000000000000000000000008152600401610075906107b9565b60405180910390fd5b60008311801561008f575083518311155b61009857600080fd5b60005b845181101561024657600160008683815181106100bb576100ba6107d9565b5b602002602001015173ffffffffffffffffffffffffffffffffffffffff1673ffffffffffffffffffffffffffffffffffffffff16815260200190815260200160002060009054906101000a900460ff161561014b576040517f08c379a000000000000000000000000000000000000000000000000000000000815260040161014290610854565b60405180910390fd5b6001806000878481518110610163576101626107d9565b5b602002602001015173ffffffffffffffffffffffffffffffffffffffff1673ffffffffffffffffffffffffffffffffffffffff16815260200190815260200160002060006101000a81548160ff02191690831515021790555060008582815181106101d1576101d06107d9565b5b60200260200101519080600181540180825580915050600190039060005260206000200160009091909190916101000a81548173ffffffffffffffffffffffffffffffffffffffff021916908373ffffffffffffffffffffffffffffffffffffffff160217905550808060010191505061009b565b50826002819055508051825114610292576040517f08c379a0000000000000000000000000000000000000000000000000000000008152600401610289906108c0565b60405180910390fd5b60005b82518110156103d35760038382815181106102b3576102b26107d9565b5b60200260200101519080600181540180825580915050600190039060005260206000200160009091909190916101000a81548173ffffffffffffffffffffffffffffffffffffffff021916908373ffffffffffffffffffffffffffffffffffffffff16021790555081818151811061032e5761032d6107d9565b5b60200260200101516004600085848151811061034d5761034c6107d9565b5b602002602001015173ffffffffffffffffffffffffffffffffffffffff1673ffffffffffffffffffffffffffffffffffffffff168152602001908152602001600020819055508181815181106103a6576103a56107d9565b5b6020026020010151600560008282546103bf919061090f565b925050819055508080600101915050610295565b5050505050610943565b6000604051905090565b600080fd5b600080fd5b600080fd5b6000601f19601f8301169050919050565b7f4e487b7100000000000000000000000000000000000000000000000000000000600052604160045260246000fd5b61043f826103f6565b810181811067ffffffffffffffff8211171561045e5761045d610407565b5b80604052505050565b60006104716103dd565b905061047d8282610436565b919050565b600067ffffffffffffffff82111561049d5761049c610407565b5b602082029050602081019050919050565b600080fd5b600073ffffffffffffffffffffffffffffffffffffffff82169050919050565b60006104de826104b3565b9050919050565b6104ee816104d3565b81146104f957600080fd5b50565b60008151905061050b816104e5565b92915050565b600061052461051f84610482565b610467565b90508083825260208201905060208402830185811115610547576105466104ae565b5b835b81811015610570578061055c88826104fc565b845260208401935050602081019050610549565b5050509392505050565b600082601f83011261058f5761058e6103f1565b5b815161059f848260208601610511565b91505092915050565b6000819050919050565b6105bb816105a8565b81146105c657600080fd5b50565b6000815190506105d8816105b2565b92915050565b600067ffffffffffffffff8211156105f9576105f8610407565b5b602082029050602081019050919050565b600061061d610618846105de565b610467565b905080838252602082019050602084028301858111156106405761063f6104ae565b5b835b81811015610669578061065588826105c9565b845260208401935050602081019050610642565b5050509392505050565b600082601f830112610688576106876103f1565b5b815161069884826020860161060a565b91505092915050565b600080600080608085870312156106bb576106ba6103e7565b5b600085015167ffffffffffffffff8111156106d9576106d86103ec565b5b6106e58782880161057a565b94505060206106f6878288016105c9565b935050604085015167ffffffffffffffff811115610717576107166103ec565b5b6107238782880161057a565b925050606085015167ffffffffffffffff811115610744576107436103ec565b5b61075087828801610673565b91505092959194509250565b600082825260208201905092915050565b7f44656265206861626572206375696461646f7265730000000000000000000000600082015250565b60006107a360158361075c565b91506107ae8261076d565b602082019050919050565b600060208201905081810360008301526107d281610796565b9050919050565b7f4e487b7100000000000000000000000000000000000000000000000000000000600052603260045260246000fd5b7f4475706c696361646f0000000000000000000000000000000000000000000000600082015250565b600061083e60098361075c565b915061084982610808565b602082019050919050565b6000602082019050818103600083015261086d81610831565b9050919050565b7f4c6973746173206e6f20636f696e636964656e00000000000000000000000000600082015250565b60006108aa60138361075c565b91506108b582610874565b602082019050919050565b600060208201905081810360008301526108d98161089d565b9050919050565b7f4e487b7100000000000000000000000000000000000000000000000000000000600052601160045260246000fd5b600061091a826105a8565b9150610925836105a8565b925082820190508082111561093d5761093c6108e0565b5b92915050565b612c96806109526000396000f3fe60806040526004361061012a5760003560e01c80638aff87b2116100ab578063d5cf12731161006f578063d5cf127314610431578063db410c4e1461045c578063dc4fca4a1461049e578063e3ce48c5146104ba578063e5ba0162146104e3578063fd8abf731461050e5761012a565b80638aff87b21461034a57806392127701146103755780639c55f9d41461038c578063a6e149d5146103c9578063a98ec12c146103f45761012a565b806370d551e2116100f257806370d551e214610215578063714ac8261461025657806374278e54146102935780637a7c1795146102d05780637e5bad221461030d5761012a565b80631fb5db0a1461012f57806331d43b561461016d57806332c909921461019857806347c5d9a1146101c15780636a45e68d146101ec575b600080fd5b34801561013b57600080fd5b5061015660048036038101906101519190611afb565b610537565b604051610164929190611b8b565b60405180910390f35b34801561017957600080fd5b50610182610598565b60405161018f9190611dcf565b60405180910390f35b3480156101a457600080fd5b506101bf60048036038101906101ba9190611e1d565b6107fb565b005b3480156101cd57600080fd5b506101d6610a1b565b6040516101e39190611e5d565b60405180910390f35b3480156101f857600080fd5b50610213600480360381019061020e9190611fad565b610a21565b005b34801561022157600080fd5b5061023c60048036038101906102379190612038565b610c53565b60405161024d959493929190612074565b60405180910390f35b34801561026257600080fd5b5061027d60048036038101906102789190612038565b610cc6565b60405161028a91906120c7565b60405180910390f35b34801561029f57600080fd5b506102ba60048036038101906102b591906120e2565b610d05565b6040516102c79190612122565b60405180910390f35b3480156102dc57600080fd5b506102f760048036038101906102f2919061213d565b610d34565b6040516103049190611e5d565b60405180910390f35b34801561031957600080fd5b50610334600480360381019061032f9190611e1d565b610d4c565b6040516103419190611e5d565b60405180910390f35b34801561035657600080fd5b5061035f610d7d565b60405161036c9190611e5d565b60405180910390f35b34801561038157600080fd5b5061038a610d83565b005b34801561039857600080fd5b506103b360048036038101906103ae9190612038565b61105e565b6040516103c091906120c7565b60405180910390f35b3480156103d557600080fd5b506103de61109d565b6040516103eb9190611e5d565b60405180910390f35b34801561040057600080fd5b5061041b6004803603810190610416919061213d565b6110a3565b6040516104289190612122565b60405180910390f35b34801561043d57600080fd5b506104466110c3565b6040516104539190611e5d565b60405180910390f35b34801561046857600080fd5b50610483600480360381019061047e9190612038565b6110cb565b604051610495969594939291906121b4565b60405180910390f35b6104b860048036038101906104b39190612038565b611244565b005b3480156104c657600080fd5b506104e160048036038101906104dc9190612038565b611446565b005b3480156104ef57600080fd5b506104f8611741565b6040516105059190611e5d565b60405180910390f35b34801561051a57600080fd5b5061053560048036038101906105309190612038565b611747565b005b6009602052816000526040600020818154811061055357600080fd5b9060005260206000209060020201600091509150508060000160009054906101000a900473ffffffffffffffffffffffffffffffffffffffff16908060010154905082565b60606000600a5467ffffffffffffffff8111156105b8576105b7611e82565b5b6040519080825280602002602001820160405280156105f157816020015b6105de611a63565b8152602001906001900390816105d65790505b50905060005b600a548110156107f357600b60008281526020019081526020016000206040518060c00160405290816000820154815260200160018201805461063990612252565b80601f016020809104026020016040519081016040528092919081815260200182805461066590612252565b80156106b25780601f10610687576101008083540402835291602001916106b2565b820191906000526020600020905b81548152906001019060200180831161069557829003601f168201915b50505050508152602001600282015481526020016003820180546106d590612252565b80601f016020809104026020016040519081016040528092919081815260200182805461070190612252565b801561074e5780601f106107235761010080835404028352916020019161074e565b820191906000526020600020905b81548152906001019060200180831161073157829003601f168201915b505050505081526020016004820160009054906101000a900473ffffffffffffffffffffffffffffffffffffffff1673ffffffffffffffffffffffffffffffffffffffff1673ffffffffffffffffffffffffffffffffffffffff1681526020016004820160149054906101000a900460ff1615151515815250508282815181106107db576107da612283565b5b602002602001018190525080806001019150506105f7565b508091505090565b600160003373ffffffffffffffffffffffffffffffffffffffff1673ffffffffffffffffffffffffffffffffffffffff16815260200190815260200160002060009054906101000a900460ff16610887576040517f08c379a000000000000000000000000000000000000000000000000000000000815260040161087e906122fe565b60405180910390fd5b600073ffffffffffffffffffffffffffffffffffffffff168273ffffffffffffffffffffffffffffffffffffffff16036108c057600080fd5b600081116108cd57600080fd5b6000600760008154809291906108e29061234d565b91905055905060066040518060a001604052808381526020018573ffffffffffffffffffffffffffffffffffffffff168152602001848152602001600081526020016000151581525090806001815401808255809150506001900390600052602060002090600502016000909190919091506000820151816000015560208201518160010160006101000a81548173ffffffffffffffffffffffffffffffffffffffff021916908373ffffffffffffffffffffffffffffffffffffffff160217905550604082015181600201556060820151816003015560808201518160040160006101000a81548160ff02191690831515021790555050507f4d645868d4414f36720e92ba2ce8a8206bb254cc92c2ebc1fa114e0e6f19c8c6818484604051610a0e93929190612395565b60405180910390a1505050565b600a5481565b600160003373ffffffffffffffffffffffffffffffffffffffff1673ffffffffffffffffffffffffffffffffffffffff16815260200190815260200160002060009054906101000a900460ff16610aad576040517f08c379a0000000000000000000000000000000000000000000000000000000008152600401610aa4906122fe565b60405180910390fd5b60008211610af0576040517f08c379a0000000000000000000000000000000000000000000000000000000008152600401610ae790612418565b60405180910390fd5b6000600a6000815480929190610b059061234d565b9190505590506040518060c001604052808281526020018581526020018481526020018381526020013373ffffffffffffffffffffffffffffffffffffffff16815260200160011515815250600b6000838152602001908152602001600020600082015181600001556020820151816001019081610b8391906125e4565b50604082015181600201556060820151816003019081610ba391906125e4565b5060808201518160040160006101000a81548173ffffffffffffffffffffffffffffffffffffffff021916908373ffffffffffffffffffffffffffffffffffffffff16021790555060a08201518160040160146101000a81548160ff0219169083151502179055509050507fcf976c11b4f4e64a748e2e4fdb0ae58d55f8f22258348410665de010b4a8ffe48185858533604051610c459594939291906126b6565b60405180910390a150505050565b60068181548110610c6357600080fd5b90600052602060002090600502016000915090508060000154908060010160009054906101000a900473ffffffffffffffffffffffffffffffffffffffff16908060020154908060030154908060040160009054906101000a900460ff16905085565b60038181548110610cd657600080fd5b906000526020600020016000915054906101000a900473ffffffffffffffffffffffffffffffffffffffff1681565b60086020528160005260406000206020528060005260406000206000915091509054906101000a900460ff1681565b60046020528060005260406000206000915090505481565b600c6020528160005260406000208181548110610d6857600080fd5b90600052602060002001600091509150505481565b60075481565b600160003373ffffffffffffffffffffffffffffffffffffffff1673ffffffffffffffffffffffffffffffffffffffff16815260200190815260200160002060009054906101000a900460ff16610e0f576040517f08c379a0000000000000000000000000000000000000000000000000000000008152600401610e06906122fe565b60405180910390fd5b6002600d5403610e54576040517f08c379a0000000000000000000000000000000000000000000000000000000008152600401610e4b90612763565b60405180910390fd5b6002600d81905550600047905060008111610ea4576040517f08c379a0000000000000000000000000000000000000000000000000000000008152600401610e9b906127cf565b60405180910390fd5b60005b60038054905081101561105257600060038281548110610eca57610ec9612283565b5b9060005260206000200160009054906101000a900473ffffffffffffffffffffffffffffffffffffffff1690506000600554600460008473ffffffffffffffffffffffffffffffffffffffff1673ffffffffffffffffffffffffffffffffffffffff1681526020019081526020016000205485610f4791906127ef565b610f519190612860565b905060008111156110435760008273ffffffffffffffffffffffffffffffffffffffff1682604051610f82906128c2565b60006040518083038185875af1925050503d8060008114610fbf576040519150601f19603f3d011682016040523d82523d6000602084013e610fc4565b606091505b5050905080611008576040517f08c379a0000000000000000000000000000000000000000000000000000000008152600401610fff90612923565b60405180910390fd5b7f2630cfa8cd2628e061c2a2b3d058c588321ac79caf397e6260a7f097025d5fdb8383604051611039929190611b8b565b60405180910390a1505b50508080600101915050610ea7565b50506001600d81905550565b6000818154811061106e57600080fd5b906000526020600020016000915054906101000a900473ffffffffffffffffffffffffffffffffffffffff1681565b60025481565b60016020528060005260406000206000915054906101000a900460ff1681565b600047905090565b600b6020528060005260406000206000915090508060000154908060010180546110f490612252565b80601f016020809104026020016040519081016040528092919081815260200182805461112090612252565b801561116d5780601f106111425761010080835404028352916020019161116d565b820191906000526020600020905b81548152906001019060200180831161115057829003601f168201915b50505050509080600201549080600301805461118890612252565b80601f01602080910402602001604051908101604052809291908181526020018280546111b490612252565b80156112015780601f106111d657610100808354040283529160200191611201565b820191906000526020600020905b8154815290600101906020018083116111e457829003601f168201915b5050505050908060040160009054906101000a900473ffffffffffffffffffffffffffffffffffffffff16908060040160149054906101000a900460ff16905086565b6002600d5403611289576040517f08c379a000000000000000000000000000000000000000000000000000000000815260040161128090612763565b60405180910390fd5b6002600d819055506000600b600083815260200190815260200160002090508060040160149054906101000a900460ff166112f9576040517f08c379a00000000000000000000000000000000000000000000000000000000081526004016112f09061298f565b60405180910390fd5b8060020154341461133f576040517f08c379a0000000000000000000000000000000000000000000000000000000008152600401611336906129fb565b60405180910390fd5b60008160040160146101000a81548160ff0219169083151502179055507f56dfeae157fc265f01ff88e5928499b572a6be2e5860e55755bc84049bca07508233836002015460405161139393929190612395565b60405180910390a17f453529dac6ef979a41d67fbeeabdfae29903c185f64d77aa690df9eca5f1aa6033346040516113cc929190611b8b565b60405180910390a1600c60003373ffffffffffffffffffffffffffffffffffffffff1673ffffffffffffffffffffffffffffffffffffffff168152602001908152602001600020829080600181540180825580915050600190039060005260206000200160009091909190915055506001600d8190555050565b600160003373ffffffffffffffffffffffffffffffffffffffff1673ffffffffffffffffffffffffffffffffffffffff16815260200190815260200160002060009054906101000a900460ff166114d2576040517f08c379a00000000000000000000000000000000000000000000000000000000081526004016114c9906122fe565b60405180910390fd5b6002600d5403611517576040517f08c379a000000000000000000000000000000000000000000000000000000000815260040161150e90612763565b60405180910390fd5b6002600d8190555060006006828154811061153557611534612283565b5b906000526020600020906005020190508060040160009054906101000a900460ff1615611597576040517f08c379a000000000000000000000000000000000000000000000000000000000815260040161158e90612a67565b60405180910390fd5b600254816003015410156115e0576040517f08c379a00000000000000000000000000000000000000000000000000000000081526004016115d790612ad3565b60405180910390fd5b60018160040160006101000a81548160ff02191690831515021790555060008160010160009054906101000a900473ffffffffffffffffffffffffffffffffffffffff1673ffffffffffffffffffffffffffffffffffffffff16826002015460405161164b906128c2565b60006040518083038185875af1925050503d8060008114611688576040519150601f19603f3d011682016040523d82523d6000602084013e61168d565b606091505b50509050806116d1576040517f08c379a00000000000000000000000000000000000000000000000000000000081526004016116c890612b3f565b60405180910390fd5b7fd523d98e9ccf0f867b8aa2399f581bd4ab00685167d4348d4c70c81ce761bf40838360010160009054906101000a900473ffffffffffffffffffffffffffffffffffffffff16846002015460405161172c93929190612395565b60405180910390a150506001600d8190555050565b60055481565b600160003373ffffffffffffffffffffffffffffffffffffffff1673ffffffffffffffffffffffffffffffffffffffff16815260200190815260200160002060009054906101000a900460ff166117d3576040517f08c379a00000000000000000000000000000000000000000000000000000000081526004016117ca906122fe565b60405180910390fd5b6000600682815481106117e9576117e8612283565b5b906000526020600020906005020190506008600083815260200190815260200160002060003373ffffffffffffffffffffffffffffffffffffffff1673ffffffffffffffffffffffffffffffffffffffff16815260200190815260200160002060009054906101000a900460ff1615611897576040517f08c379a000000000000000000000000000000000000000000000000000000000815260040161188e90612bab565b60405180910390fd5b8060040160009054906101000a900460ff16156118e9576040517f08c379a00000000000000000000000000000000000000000000000000000000081526004016118e090612c17565b60405180910390fd5b60016008600084815260200190815260200160002060003373ffffffffffffffffffffffffffffffffffffffff1673ffffffffffffffffffffffffffffffffffffffff16815260200190815260200160002060006101000a81548160ff0219169083151502179055508060030160008154809291906119679061234d565b91905055506009600083815260200190815260200160002060405180604001604052803373ffffffffffffffffffffffffffffffffffffffff16815260200142815250908060018154018082558091505060019003906000526020600020906002020160009091909190915060008201518160000160006101000a81548173ffffffffffffffffffffffffffffffffffffffff021916908373ffffffffffffffffffffffffffffffffffffffff1602179055506020820151816001015550507fd9d679ee19c056ade7f0bb7d5f2f8378be1ac9b30005193d5b56a42504e65ca68233604051611a57929190612c37565b60405180910390a15050565b6040518060c0016040528060008152602001606081526020016000815260200160608152602001600073ffffffffffffffffffffffffffffffffffffffff1681526020016000151581525090565b6000604051905090565b600080fd5b600080fd5b6000819050919050565b611ad881611ac5565b8114611ae357600080fd5b50565b600081359050611af581611acf565b92915050565b60008060408385031215611b1257611b11611abb565b5b6000611b2085828601611ae6565b9250506020611b3185828601611ae6565b9150509250929050565b600073ffffffffffffffffffffffffffffffffffffffff82169050919050565b6000611b6682611b3b565b9050919050565b611b7681611b5b565b82525050565b611b8581611ac5565b82525050565b6000604082019050611ba06000830185611b6d565b611bad6020830184611b7c565b9392505050565b600081519050919050565b600082825260208201905092915050565b6000819050602082019050919050565b611be981611ac5565b82525050565b600081519050919050565b600082825260208201905092915050565b60005b83811015611c29578082015181840152602081019050611c0e565b60008484015250505050565b6000601f19601f8301169050919050565b6000611c5182611bef565b611c5b8185611bfa565b9350611c6b818560208601611c0b565b611c7481611c35565b840191505092915050565b611c8881611b5b565b82525050565b60008115159050919050565b611ca381611c8e565b82525050565b600060c083016000830151611cc16000860182611be0565b5060208301518482036020860152611cd98282611c46565b9150506040830151611cee6040860182611be0565b5060608301518482036060860152611d068282611c46565b9150506080830151611d1b6080860182611c7f565b5060a0830151611d2e60a0860182611c9a565b508091505092915050565b6000611d458383611ca9565b905092915050565b6000602082019050919050565b6000611d6582611bb4565b611d6f8185611bbf565b935083602082028501611d8185611bd0565b8060005b85811015611dbd5784840389528151611d9e8582611d39565b9450611da983611d4d565b925060208a01995050600181019050611d85565b50829750879550505050505092915050565b60006020820190508181036000830152611de98184611d5a565b905092915050565b611dfa81611b5b565b8114611e0557600080fd5b50565b600081359050611e1781611df1565b92915050565b60008060408385031215611e3457611e33611abb565b5b6000611e4285828601611e08565b9250506020611e5385828601611ae6565b9150509250929050565b6000602082019050611e726000830184611b7c565b92915050565b600080fd5b600080fd5b7f4e487b7100000000000000000000000000000000000000000000000000000000600052604160045260246000fd5b611eba82611c35565b810181811067ffffffffffffffff82111715611ed957611ed8611e82565b5b80604052505050565b6000611eec611ab1565b9050611ef88282611eb1565b919050565b600067ffffffffffffffff821115611f1857611f17611e82565b5b611f2182611c35565b9050602081019050919050565b82818337600083830152505050565b6000611f50611f4b84611efd565b611ee2565b905082815260208101848484011115611f6c57611f6b611e7d565b5b611f77848285611f2e565b509392505050565b600082601f830112611f9457611f93611e78565b5b8135611fa4848260208601611f3d565b91505092915050565b600080600060608486031215611fc657611fc5611abb565b5b600084013567ffffffffffffffff811115611fe457611fe3611ac0565b5b611ff086828701611f7f565b935050602061200186828701611ae6565b925050604084013567ffffffffffffffff81111561202257612021611ac0565b5b61202e86828701611f7f565b9150509250925092565b60006020828403121561204e5761204d611abb565b5b600061205c84828501611ae6565b91505092915050565b61206e81611c8e565b82525050565b600060a0820190506120896000830188611b7c565b6120966020830187611b6d565b6120a36040830186611b7c565b6120b06060830185611b7c565b6120bd6080830184612065565b9695505050505050565b60006020820190506120dc6000830184611b6d565b92915050565b600080604083850312156120f9576120f8611abb565b5b600061210785828601611ae6565b925050602061211885828601611e08565b9150509250929050565b60006020820190506121376000830184612065565b92915050565b60006020828403121561215357612152611abb565b5b600061216184828501611e08565b91505092915050565b600082825260208201905092915050565b600061218682611bef565b612190818561216a565b93506121a0818560208601611c0b565b6121a981611c35565b840191505092915050565b600060c0820190506121c96000830189611b7c565b81810360208301526121db818861217b565b90506121ea6040830187611b7c565b81810360608301526121fc818661217b565b905061220b6080830185611b6d565b61221860a0830184612065565b979650505050505050565b7f4e487b7100000000000000000000000000000000000000000000000000000000600052602260045260246000fd5b6000600282049050600182168061226a57607f821691505b60208210810361227d5761227c612223565b5b50919050565b7f4e487b7100000000000000000000000000000000000000000000000000000000600052603260045260246000fd5b7f4e6f206175746f72697a61646f00000000000000000000000000000000000000600082015250565b60006122e8600d8361216a565b91506122f3826122b2565b602082019050919050565b60006020820190508181036000830152612317816122db565b9050919050565b7f4e487b7100000000000000000000000000000000000000000000000000000000600052601160045260246000fd5b600061235882611ac5565b91507fffffffffffffffffffffffffffffffffffffffffffffffffffffffffffffffff820361238a5761238961231e565b5b600182019050919050565b60006060820190506123aa6000830186611b7c565b6123b76020830185611b6d565b6123c46040830184611b7c565b949350505050565b7f50726563696f20696e76616c69646f0000000000000000000000000000000000600082015250565b6000612402600f8361216a565b915061240d826123cc565b602082019050919050565b60006020820190508181036000830152612431816123f5565b9050919050565b60008190508160005260206000209050919050565b60006020601f8301049050919050565b600082821b905092915050565b60006008830261249a7fffffffffffffffffffffffffffffffffffffffffffffffffffffffffffffffff8261245d565b6124a4868361245d565b95508019841693508086168417925050509392505050565b6000819050919050565b60006124e16124dc6124d784611ac5565b6124bc565b611ac5565b9050919050565b6000819050919050565b6124fb836124c6565b61250f612507826124e8565b84845461246a565b825550505050565b600090565b612524612517565b61252f8184846124f2565b505050565b5b818110156125535761254860008261251c565b600181019050612535565b5050565b601f8211156125985761256981612438565b6125728461244d565b81016020851015612581578190505b61259561258d8561244d565b830182612534565b50505b505050565b600082821c905092915050565b60006125bb6000198460080261259d565b1980831691505092915050565b60006125d483836125aa565b9150826002028217905092915050565b6125ed82611bef565b67ffffffffffffffff81111561260657612605611e82565b5b6126108254612252565b61261b828285612557565b600060209050601f83116001811461264e576000841561263c578287015190505b61264685826125c8565b8655506126ae565b601f19841661265c86612438565b60005b828110156126845784890151825560018201915060208501945060208101905061265f565b868310156126a1578489015161269d601f8916826125aa565b8355505b6001600288020188555050505b505050505050565b600060a0820190506126cb6000830188611b7c565b81810360208301526126dd818761217b565b90506126ec6040830186611b7c565b81810360608301526126fe818561217b565b905061270d6080830184611b6d565b9695505050505050565b7f5265656e7472616e63792064657465637461646f000000000000000000000000600082015250565b600061274d60148361216a565b915061275882612717565b602082019050919050565b6000602082019050818103600083015261277c81612740565b9050919050565b7f4e6f2068617920666f6e646f7300000000000000000000000000000000000000600082015250565b60006127b9600d8361216a565b91506127c482612783565b602082019050919050565b600060208201905081810360008301526127e8816127ac565b9050919050565b60006127fa82611ac5565b915061280583611ac5565b925082820261281381611ac5565b9150828204841483151761282a5761282961231e565b5b5092915050565b7f4e487b7100000000000000000000000000000000000000000000000000000000600052601260045260246000fd5b600061286b82611ac5565b915061287683611ac5565b92508261288657612885612831565b5b828204905092915050565b600081905092915050565b50565b60006128ac600083612891565b91506128b78261289c565b600082019050919050565b60006128cd8261289f565b9150819050919050565b7f5061676f2066616c6c6f00000000000000000000000000000000000000000000600082015250565b600061290d600a8361216a565b9150612918826128d7565b602082019050919050565b6000602082019050818103600083015261293c81612900565b9050919050565b7f47617469746f206e6f20646973706f6e69626c65000000000000000000000000600082015250565b600061297960148361216a565b915061298482612943565b602082019050919050565b600060208201905081810360008301526129a88161296c565b9050919050565b7f4d6f6e746f20696e636f72726563746f00000000000000000000000000000000600082015250565b60006129e560108361216a565b91506129f0826129af565b602082019050919050565b60006020820190508181036000830152612a14816129d8565b9050919050565b7f596120656a656375746164610000000000000000000000000000000000000000600082015250565b6000612a51600c8361216a565b9150612a5c82612a1b565b602082019050919050565b60006020820190508181036000830152612a8081612a44565b9050919050565b7f4669726d617320696e737566696369656e746573000000000000000000000000600082015250565b6000612abd60148361216a565b9150612ac882612a87565b602082019050919050565b60006020820190508181036000830152612aec81612ab0565b9050919050565b7f5472616e73666572656e6369612066616c6c6f00000000000000000000000000600082015250565b6000612b2960138361216a565b9150612b3482612af3565b602082019050919050565b60006020820190508181036000830152612b5881612b1c565b9050919050565b7f5961206669726d61737465000000000000000000000000000000000000000000600082015250565b6000612b95600b8361216a565b9150612ba082612b5f565b602082019050919050565b60006020820190508181036000830152612bc481612b88565b9050919050565b7f5961206865636861000000000000000000000000000000000000000000000000600082015250565b6000612c0160088361216a565b9150612c0c82612bcb565b602082019050919050565b60006020820190508181036000830152612c3081612bf4565b9050919050565b6000604082019050612c4c6000830185611b7c565b612c596020830184611b6d565b939250505056fea264697066735822122088dd9cfa0e3f5db6c17c2338f56750e0634069c8c518e6e8be3dde46547fab3664736f6c634300081c0033",
  "linkReferences": {},
  "deployedLinkReferences": {}
}