{
  "_format": "hh-sol-artifact-1",
  "contractName": "MultiSignPaymentWallet",
  "sourceName": "contracts/Wallet.sol",
  "abi": [
    {
      "inputs": [
        {
          "internalType": "address[]",
          "name": "_owners",
          "type": "address[]"
        },
        {
          "internalType": "uint256",
          "name": "_requireApprovals",
          "type": "uint256"
        },
        {
          "internalType": "address[]",
          "name": "_payees",
          "type": "address[]"
        },
        {
          "internalType": "uint256[]",
          "name": "_shares",
          "type": "uint256[]"
        }
      ],
      "stateMutability": "nonpayable",
      "type": "constructor"
    },
    {
      "anonymous": false,
      "inputs": [
        {
          "indexed": true,
          "internalType": "address",
          "name": "sender",
          "type": "address"
        },
        {
          "indexed": false,
          "internalType": "uint256",
          "name": "amount",
          "type": "uint256"
        }
      ],
      "name": "Deposit",
      "type": "event"
    },
    {
      "anonymous": false,
      "inputs": [
        {
          "indexed": true,
          "internalType": "address",
          "name": "payee",
          "type": "address"
        },
        {
          "indexed": false,
          "internalType": "uint256",
          "name": "amount",
          "type": "uint256"
        }
      ],
      "name": "PaymentReleased",
      "type": "event"
    },
    {
      "anonymous": false,
      "inputs": [
        {
          "indexed": false,
          "internalType": "uint256",
          "name": "id",
          "type": "uint256"
        },
        {
          "indexed": false,
          "internalType": "string",
          "name": "name",
          "type": "string"
        },
        {
          "indexed": false,
          "internalType": "uint256",
          "name": "price",
          "type": "uint256"
        },
        {
          "indexed": false,
          "internalType": "address",
          "name": "seller",
          "type": "address"
        }
      ],
      "name": "ProductAdded",
      "type": "event"
    },
    {
      "anonymous": false,
      "inputs": [
        {
          "indexed": false,
          "internalType": "uint256",
          "name": "id",
          "type": "uint256"
        },
        {
          "indexed": false,
          "internalType": "address",
          "name": "buyer",
          "type": "address"
        },
        {
          "indexed": false,
          "internalType": "uint256",
          "name": "price",
          "type": "uint256"
        }
      ],
      "name": "ProductPurchased",
      "type": "event"
    },
    {
      "anonymous": false,
      "inputs": [
        {
          "indexed": true,
          "internalType": "uint256",
          "name": "txId",
          "type": "uint256"
        },
        {
          "indexed": false,
          "internalType": "address",
          "name": "owner",
          "type": "address"
        }
      ],
      "name": "TransactionApproved",
      "type": "event"
    },
    {
      "anonymous": false,
      "inputs": [
        {
          "indexed": true,
          "internalType": "uint256",
          "name": "txId",
          "type": "uint256"
        },
        {
          "indexed": true,
          "internalType": "address",
          "name": "to",
          "type": "address"
        },
        {
          "indexed": false,
          "internalType": "uint256",
          "name": "amount",
          "type": "uint256"
        }
      ],
      "name": "TransactionExecuted",
      "type": "event"
    },
    {
      "anonymous": false,
      "inputs": [
        {
          "indexed": true,
          "internalType": "uint256",
          "name": "txId",
          "type": "uint256"
        },
        {
          "indexed": true,
          "internalType": "address",
          "name": "to",
          "type": "address"
        },
        {
          "indexed": false,
          "internalType": "uint256",
          "name": "amount",
          "type": "uint256"
        }
      ],
      "name": "TransactionSubmitted",
      "type": "event"
    },
    {
      "inputs": [
        {
          "internalType": "address",
          "name": "_to",
          "type": "address"
        },
        {
          "internalType": "uint256",
          "name": "amount",
          "type": "uint256"
        }
      ],
      "name": "SubmitTransaction",
      "outputs": [],
      "stateMutability": "nonpayable",
      "type": "function"
    },
    {
      "inputs": [
        {
          "internalType": "string",
          "name": "_name",
          "type": "string"
        },
        {
          "internalType": "uint256",
          "name": "_price",
          "type": "uint256"
        }
      ],
      "name": "addProduct",
      "outputs": [],
      "stateMutability": "nonpayable",
      "type": "function"
    },
    {
      "inputs": [
        {
          "internalType": "uint256",
          "name": "",
          "type": "uint256"
        },
        {
          "internalType": "address",
          "name": "",
          "type": "address"
        }
      ],
      "name": "approvals",
      "outputs": [
        {
          "internalType": "bool",
          "name": "",
          "type": "bool"
        }
      ],
      "stateMutability": "view",
      "type": "function"
    },
    {
      "inputs": [
        {
          "internalType": "uint256",
          "name": "txId",
          "type": "uint256"
        }
      ],
      "name": "approveTransaction",
      "outputs": [],
      "stateMutability": "nonpayable",
      "type": "function"
    },
    {
      "inputs": [
        {
          "internalType": "uint256",
          "name": "_productId",
          "type": "uint256"
        }
      ],
      "name": "buyProduct",
      "outputs": [],
      "stateMutability": "payable",
      "type": "function"
    },
    {
      "inputs": [],
      "name": "deposit",
      "outputs": [],
      "stateMutability": "payable",
      "type": "function"
    },
    {
      "inputs": [
        {
          "internalType": "uint256",
          "name": "_productId",
          "type": "uint256"
        }
      ],
      "name": "disableProduct",
      "outputs": [],
      "stateMutability": "nonpayable",
      "type": "function"
    },
    {
      "inputs": [
        {
          "internalType": "uint256",
          "name": "txId",
          "type": "uint256"
        }
      ],
      "name": "executeTransaction",
      "outputs": [],
      "stateMutability": "nonpayable",
      "type": "function"
    },
    {
      "inputs": [],
      "name": "getAllProducts",
      "outputs": [
        {
          "components": [
            {
              "internalType": "uint256",
              "name": "id",
              "type": "uint256"
            },
            {
              "internalType": "string",
              "name": "name",
              "type": "string"
            },
            {
              "internalType": "uint256",
              "name": "price",
              "type": "uint256"
            },
            {
              "internalType": "address",
              "name": "seller",
              "type": "address"
            },
            {
              "internalType": "bool",
              "name": "active",
              "type": "bool"
            }
          ],
          "internalType": "struct MultiSignPaymentWallet.Product[]",
          "name": "",
          "type": "tuple[]"
        }
      ],
      "stateMutability": "view",
      "type": "function"
    },
    {
      "inputs": [
        {
          "internalType": "uint256",
          "name": "txId",
          "type": "uint256"
        }
      ],
      "name": "getApprovals",
      "outputs": [
        {
          "internalType": "uint256",
          "name": "txID",
          "type": "uint256"
        },
        {
          "internalType": "uint256",
          "name": "totalApprovals",
          "type": "uint256"
        },
        {
          "components": [
            {
              "internalType": "address",
              "name": "approver",
              "type": "address"
            },
            {
              "internalType": "uint256",
              "name": "timestamp",
              "type": "uint256"
            }
          ],
          "internalType": "struct MultiSignPaymentWallet.ApprovalInfo[]",
          "name": "approvalsList",
          "type": "tuple[]"
        }
      ],
      "stateMutability": "view",
      "type": "function"
    },
    {
      "inputs": [],
      "name": "getBalance",
      "outputs": [
        {
          "internalType": "uint256",
          "name": "",
          "type": "uint256"
        }
      ],
      "stateMutability": "view",
      "type": "function"
    },
    {
      "inputs": [],
      "name": "getTransactions",
      "outputs": [
        {
          "components": [
            {
              "internalType": "uint256",
              "name": "id",
              "type": "uint256"
            },
            {
              "internalType": "address",
              "name": "to",
              "type": "address"
            },
            {
              "internalType": "uint256",
              "name": "amount",
              "type": "uint256"
            },
            {
              "internalType": "uint256",
              "name": "approvalCount",
              "type": "uint256"
            },
            {
              "internalType": "bool",
              "name": "executed",
              "type": "bool"
            }
          ],
          "internalType": "struct MultiSignPaymentWallet.Transaction[]",
          "name": "",
          "type": "tuple[]"
        }
      ],
      "stateMutability": "view",
      "type": "function"
    },
    {
      "inputs": [
        {
          "internalType": "address",
          "name": "",
          "type": "address"
        }
      ],
      "name": "isOwner",
      "outputs": [
        {
          "internalType": "bool",
          "name": "",
          "type": "bool"
        }
      ],
      "stateMutability": "view",
      "type": "function"
    },
    {
      "inputs": [],
      "name": "nextProductId",
      "outputs": [
        {
          "internalType": "uint256",
          "name": "",
          "type": "uint256"
        }
      ],
      "stateMutability": "view",
      "type": "function"
    },
    {
      "inputs": [],
      "name": "nextTransactionId",
      "outputs": [
        {
          "internalType": "uint256",
          "name": "",
          "type": "uint256"
        }
      ],
      "stateMutability": "view",
      "type": "function"
    },
    {
      "inputs": [
        {
          "internalType": "uint256",
          "name": "",
          "type": "uint256"
        }
      ],
      "name": "owners",
      "outputs": [
        {
          "internalType": "address",
          "name": "",
          "type": "address"
        }
      ],
      "stateMutability": "view",
      "type": "function"
    },
    {
      "inputs": [
        {
          "internalType": "uint256",
          "name": "",
          "type": "uint256"
        }
      ],
      "name": "payees",
      "outputs": [
        {
          "internalType": "address",
          "name": "",
          "type": "address"
        }
      ],
      "stateMutability": "view",
      "type": "function"
    },
    {
      "inputs": [
        {
          "internalType": "uint256",
          "name": "",
          "type": "uint256"
        }
      ],
      "name": "products",
      "outputs": [
        {
          "internalType": "uint256",
          "name": "id",
          "type": "uint256"
        },
        {
          "internalType": "string",
          "name": "name",
          "type": "string"
        },
        {
          "internalType": "uint256",
          "name": "price",
          "type": "uint256"
        },
        {
          "internalType": "address",
          "name": "seller",
          "type": "address"
        },
        {
          "internalType": "bool",
          "name": "active",
          "type": "bool"
        }
      ],
      "stateMutability": "view",
      "type": "function"
    },
    {
      "inputs": [
        {
          "internalType": "address",
          "name": "",
          "type": "address"
        },
        {
          "internalType": "uint256",
          "name": "",
          "type": "uint256"
        }
      ],
      "name": "purchases",
      "outputs": [
        {
          "internalType": "uint256",
          "name": "",
          "type": "uint256"
        }
      ],
      "stateMutability": "view",
      "type": "function"
    },
    {
      "inputs": [],
      "name": "releasePayments",
      "outputs": [],
      "stateMutability": "nonpayable",
      "type": "function"
    },
    {
      "inputs": [
        {
          "internalType": "address payable",
          "name": "_to",
          "type": "address"
        }
      ],
      "name": "releasePaymentsAccount",
      "outputs": [],
      "stateMutability": "nonpayable",
      "type": "function"
    },
    {
      "inputs": [],
      "name": "requireApprovals",
      "outputs": [
        {
          "internalType": "uint256",
          "name": "",
          "type": "uint256"
        }
      ],
      "stateMutability": "view",
      "type": "function"
    },
    {
      "inputs": [
        {
          "internalType": "address",
          "name": "",
          "type": "address"
        }
      ],
      "name": "shares",
      "outputs": [
        {
          "internalType": "uint256",
          "name": "",
          "type": "uint256"
        }
      ],
      "stateMutability": "view",
      "type": "function"
    },
    {
      "inputs": [],
      "name": "totalShares",
      "outputs": [
        {
          "internalType": "uint256",
          "name": "",
          "type": "uint256"
        }
      ],
      "stateMutability": "view",
      "type": "function"
    },
    {
      "inputs": [
        {
          "internalType": "uint256",
          "name": "",
          "type": "uint256"
        },
        {
          "internalType": "uint256",
          "name": "",
          "type": "uint256"
        }
      ],
      "name": "transactionApprovals",
      "outputs": [
        {
          "internalType": "address",
          "name": "approver",
          "type": "address"
        },
        {
          "internalType": "uint256",
          "name": "timestamp",
          "type": "uint256"
        }
      ],
      "stateMutability": "view",
      "type": "function"
    },
    {
      "inputs": [
        {
          "internalType": "uint256",
          "name": "",
          "type": "uint256"
        }
      ],
      "name": "transactions",
      "outputs": [
        {
          "internalType": "uint256",
          "name": "id",
          "type": "uint256"
        },
        {
          "internalType": "address",
          "name": "to",
          "type": "address"
        },
        {
          "internalType": "uint256",
          "name": "amount",
          "type": "uint256"
        },
        {
          "internalType": "uint256",
          "name": "approvalCount",
          "type": "uint256"
        },
        {
          "internalType": "bool",
          "name": "executed",
          "type": "bool"
        }
      ],
      "stateMutability": "view",
      "type": "function"
    }
  ],
  "bytecode": "0x608060405234801561001057600080fd5b5060405161440f38038061440f83398181016040528101906100329190610843565b6001600a81905550600084511161007e576040517f08c379a00000000000000000000000000000000000000000000000000000000081526004016100759061095b565b60405180910390fd5b60008311801561008f575083518311155b6100ce576040517f08c379a00000000000000000000000000000000000000000000000000000000081526004016100c5906109c7565b60405180910390fd5b60005b84518110156102be5760008582815181106100ef576100ee6109e7565b5b60200260200101519050600073ffffffffffffffffffffffffffffffffffffffff168173ffffffffffffffffffffffffffffffffffffffff1603610168576040517f08c379a000000000000000000000000000000000000000000000000000000000815260040161015f90610a62565b60405180910390fd5b600260008273ffffffffffffffffffffffffffffffffffffffff1673ffffffffffffffffffffffffffffffffffffffff16815260200190815260200160002060009054906101000a900460ff16156101f5576040517f08c379a00000000000000000000000000000000000000000000000000000000081526004016101ec90610ace565b60405180910390fd5b6001600260008373ffffffffffffffffffffffffffffffffffffffff1673ffffffffffffffffffffffffffffffffffffffff16815260200190815260200160002060006101000a81548160ff0219169083151502179055506000819080600181540180825580915050600190039060005260206000200160009091909190916101000a81548173ffffffffffffffffffffffffffffffffffffffff021916908373ffffffffffffffffffffffffffffffffffffffff1602179055505080806001019150506100d1565b5082600181905550805182511461030a576040517f08c379a000000000000000000000000000000000000000000000000000000000815260040161030190610b3a565b60405180910390fd5b600082511161034e576040517f08c379a000000000000000000000000000000000000000000000000000000000815260040161034590610ba6565b60405180910390fd5b60005b825181101561057557600073ffffffffffffffffffffffffffffffffffffffff16838281518110610385576103846109e7565b5b602002602001015173ffffffffffffffffffffffffffffffffffffffff16036103e3576040517f08c379a00000000000000000000000000000000000000000000000000000000081526004016103da90610c12565b60405180910390fd5b60008282815181106103f8576103f76109e7565b5b602002602001015111610440576040517f08c379a000000000000000000000000000000000000000000000000000000000815260040161043790610c7e565b60405180910390fd5b6007838281518110610455576104546109e7565b5b60200260200101519080600181540180825580915050600190039060005260206000200160009091909190916101000a81548173ffffffffffffffffffffffffffffffffffffffff021916908373ffffffffffffffffffffffffffffffffffffffff1602179055508181815181106104d0576104cf6109e7565b5b6020026020010151600860008584815181106104ef576104ee6109e7565b5b602002602001015173ffffffffffffffffffffffffffffffffffffffff1673ffffffffffffffffffffffffffffffffffffffff16815260200190815260200160002081905550818181518110610548576105476109e7565b5b6020026020010151600960008282546105619190610ccd565b925050819055508080600101915050610351565b5050505050610d01565b6000604051905090565b600080fd5b600080fd5b600080fd5b6000601f19601f8301169050919050565b7f4e487b7100000000000000000000000000000000000000000000000000000000600052604160045260246000fd5b6105e182610598565b810181811067ffffffffffffffff82111715610600576105ff6105a9565b5b80604052505050565b600061061361057f565b905061061f82826105d8565b919050565b600067ffffffffffffffff82111561063f5761063e6105a9565b5b602082029050602081019050919050565b600080fd5b600073ffffffffffffffffffffffffffffffffffffffff82169050919050565b600061068082610655565b9050919050565b61069081610675565b811461069b57600080fd5b50565b6000815190506106ad81610687565b92915050565b60006106c66106c184610624565b610609565b905080838252602082019050602084028301858111156106e9576106e8610650565b5b835b8181101561071257806106fe888261069e565b8452602084019350506020810190506106eb565b5050509392505050565b600082601f83011261073157610730610593565b5b81516107418482602086016106b3565b91505092915050565b6000819050919050565b61075d8161074a565b811461076857600080fd5b50565b60008151905061077a81610754565b92915050565b600067ffffffffffffffff82111561079b5761079a6105a9565b5b602082029050602081019050919050565b60006107bf6107ba84610780565b610609565b905080838252602082019050602084028301858111156107e2576107e1610650565b5b835b8181101561080b57806107f7888261076b565b8452602084019350506020810190506107e4565b5050509392505050565b600082601f83011261082a57610829610593565b5b815161083a8482602086016107ac565b91505092915050565b6000806000806080858703121561085d5761085c610589565b5b600085015167ffffffffffffffff81111561087b5761087a61058e565b5b6108878782880161071c565b94505060206108988782880161076b565b935050604085015167ffffffffffffffff8111156108b9576108b861058e565b5b6108c58782880161071c565b925050606085015167ffffffffffffffff8111156108e6576108e561058e565b5b6108f287828801610815565b91505092959194509250565b600082825260208201905092915050565b7f4d7573742068617665206f776e65727300000000000000000000000000000000600082015250565b60006109456010836108fe565b91506109508261090f565b602082019050919050565b6000602082019050818103600083015261097481610938565b9050919050565b7f496e76616c696420417070726f76616c73000000000000000000000000000000600082015250565b60006109b16011836108fe565b91506109bc8261097b565b602082019050919050565b600060208201905081810360008301526109e0816109a4565b9050919050565b7f4e487b7100000000000000000000000000000000000000000000000000000000600052603260045260246000fd5b7f496e76616c696420416464726573730000000000000000000000000000000000600082015250565b6000610a4c600f836108fe565b9150610a5782610a16565b602082019050919050565b60006020820190508181036000830152610a7b81610a3f565b9050919050565b7f4f776e6572206e6f7420756e6971756500000000000000000000000000000000600082015250565b6000610ab86010836108fe565b9150610ac382610a82565b602082019050919050565b60006020820190508181036000830152610ae781610aab565b9050919050565b7f4c656e677468206d69736d617463680000000000000000000000000000000000600082015250565b6000610b24600f836108fe565b9150610b2f82610aee565b602082019050919050565b60006020820190508181036000830152610b5381610b17565b9050919050565b7f4e6f207061796565730000000000000000000000000000000000000000000000600082015250565b6000610b906009836108fe565b9150610b9b82610b5a565b602082019050919050565b60006020820190508181036000830152610bbf81610b83565b9050919050565b7f496e76616c696420616464726573730000000000000000000000000000000000600082015250565b6000610bfc600f836108fe565b9150610c0782610bc6565b602082019050919050565b60006020820190508181036000830152610c2b81610bef565b9050919050565b7f536861726573206d757374206265203e20300000000000000000000000000000600082015250565b6000610c686012836108fe565b9150610c7382610c32565b602082019050919050565b60006020820190508181036000830152610c9781610c5b565b9050919050565b7f4e487b7100000000000000000000000000000000000000000000000000000000600052601160045260246000fd5b6000610cd88261074a565b9150610ce38361074a565b9250828201905080821115610cfb57610cfa610c9e565b5b92915050565b6136ff80610d106000396000f3fe6080604052600436106101815760003560e01c806383920e90116100d1578063b15247d91161008a578063d0e30db011610064578063d0e30db0146105ca578063d7ca38f3146105d4578063ee22610b146105ff578063fc8903db1461062857610181565b8063b15247d91461053b578063c82555d614610564578063ce7c2ac21461058d57610181565b806383920e90146104205780638642269e1461044b5780639ace38c214610467578063a4e360c8146104a8578063ab2850da146104e7578063ada403a31461052457610181565b80633a98ef391161013e57806354e4b5c21161011857806354e4b5c21461033b57806363037b0c146103645780636a7ffb3d146103a15780637acc0b20146103df57610181565b80633a98ef39146102a85780634de91a63146102d357806352d3f849146102fe57610181565b8063025e7c271461018657806302ee3a52146101c357806312065fe0146101ee578063242232d11461021957806329339216146102425780632f54bf6e1461026b575b600080fd5b34801561019257600080fd5b506101ad60048036038101906101a8919061215c565b610653565b6040516101ba91906121ca565b60405180910390f35b3480156101cf57600080fd5b506101d8610692565b6040516101e591906123e6565b60405180910390f35b3480156101fa57600080fd5b50610203610863565b6040516102109190612417565b60405180910390f35b34801561022557600080fd5b50610240600480360381019061023b919061215c565b61086b565b005b34801561024e57600080fd5b5061026960048036038101906102649190612470565b610b86565b005b34801561027757600080fd5b50610292600480360381019061028d91906124c9565b610e1d565b60405161029f9190612505565b60405180910390f35b3480156102b457600080fd5b506102bd610e3d565b6040516102ca9190612417565b60405180910390f35b3480156102df57600080fd5b506102e8610e43565b6040516102f59190612417565b60405180910390f35b34801561030a57600080fd5b5061032560048036038101906103209190612520565b610e49565b6040516103329190612417565b60405180910390f35b34801561034757600080fd5b50610362600480360381019061035d919061215c565b610e7a565b005b34801561037057600080fd5b5061038b6004803603810190610386919061215c565b610f38565b60405161039891906121ca565b60405180910390f35b3480156103ad57600080fd5b506103c860048036038101906103c39190612560565b610f77565b6040516103d69291906125a0565b60405180910390f35b3480156103eb57600080fd5b506104066004803603810190610401919061215c565b610fd8565b604051610417959493929190612613565b60405180910390f35b34801561042c57600080fd5b506104356110c3565b6040516104429190612784565b60405180910390f35b6104656004803603810190610460919061215c565b6111b1565b005b34801561047357600080fd5b5061048e6004803603810190610489919061215c565b6113ab565b60405161049f9594939291906127a6565b60405180910390f35b3480156104b457600080fd5b506104cf60048036038101906104ca919061215c565b61141e565b6040516104de939291906128d7565b60405180910390f35b3480156104f357600080fd5b5061050e60048036038101906105099190612915565b61152c565b60405161051b9190612505565b60405180910390f35b34801561053057600080fd5b5061053961155b565b005b34801561054757600080fd5b50610562600480360381019061055d9190612a8a565b611841565b005b34801561057057600080fd5b5061058b60048036038101906105869190612520565b611a54565b005b34801561059957600080fd5b506105b460048036038101906105af91906124c9565b611d05565b6040516105c19190612417565b60405180910390f35b6105d2611d1d565b005b3480156105e057600080fd5b506105e9611db0565b6040516105f69190612417565b60405180910390f35b34801561060b57600080fd5b506106266004803603810190610621919061215c565b611db6565b005b34801561063457600080fd5b5061063d6120c5565b60405161064a9190612417565b60405180910390f35b6000818154811061066357600080fd5b906000526020600020016000915054906101000a900473ffffffffffffffffffffffffffffffffffffffff1681565b60606000600b5467ffffffffffffffff8111156106b2576106b161295f565b5b6040519080825280602002602001820160405280156106eb57816020015b6106d86120cb565b8152602001906001900390816106d05790505b50905060005b600b5481101561085b57600c60008281526020019081526020016000206040518060a00160405290816000820154815260200160018201805461073390612b15565b80601f016020809104026020016040519081016040528092919081815260200182805461075f90612b15565b80156107ac5780601f10610781576101008083540402835291602001916107ac565b820191906000526020600020905b81548152906001019060200180831161078f57829003601f168201915b50505050508152602001600282015481526020016003820160009054906101000a900473ffffffffffffffffffffffffffffffffffffffff1673ffffffffffffffffffffffffffffffffffffffff1673ffffffffffffffffffffffffffffffffffffffff1681526020016003820160149054906101000a900460ff16151515158152505082828151811061084357610842612b46565b5b602002602001018190525080806001019150506106f1565b508091505090565b600047905090565b600260003373ffffffffffffffffffffffffffffffffffffffff1673ffffffffffffffffffffffffffffffffffffffff16815260200190815260200160002060009054906101000a900460ff166108f7576040517f08c379a00000000000000000000000000000000000000000000000000000000081526004016108ee90612bc1565b60405180910390fd5b60006004828154811061090d5761090c612b46565b5b906000526020600020906005020190508060040160009054906101000a900460ff161561096f576040517f08c379a000000000000000000000000000000000000000000000000000000000815260040161096690612c2d565b60405180910390fd5b6005600083815260200190815260200160002060003373ffffffffffffffffffffffffffffffffffffffff1673ffffffffffffffffffffffffffffffffffffffff16815260200190815260200160002060009054906101000a900460ff1615610a0d576040517f08c379a0000000000000000000000000000000000000000000000000000000008152600401610a0490612c99565b60405180910390fd5b60016005600084815260200190815260200160002060003373ffffffffffffffffffffffffffffffffffffffff1673ffffffffffffffffffffffffffffffffffffffff16815260200190815260200160002060006101000a81548160ff021916908315150217905550806003016000815480929190610a8b90612ce8565b91905055506006600083815260200190815260200160002060405180604001604052803373ffffffffffffffffffffffffffffffffffffffff16815260200142815250908060018154018082558091505060019003906000526020600020906002020160009091909190915060008201518160000160006101000a81548173ffffffffffffffffffffffffffffffffffffffff021916908373ffffffffffffffffffffffffffffffffffffffff160217905550602082015181600101555050817f924813d717e221b5f46dcd8a56da1679e4612584ab3237d55e5faabf6f6a307933604051610b7a91906121ca565b60405180910390a25050565b600260003373ffffffffffffffffffffffffffffffffffffffff1673ffffffffffffffffffffffffffffffffffffffff16815260200190815260200160002060009054906101000a900460ff16610c12576040517f08c379a0000000000000000000000000000000000000000000000000000000008152600401610c0990612bc1565b60405180910390fd5b6002600a5403610c57576040517f08c379a0000000000000000000000000000000000000000000000000000000008152600401610c4e90612d7c565b60405180910390fd5b6002600a81905550600047905060008111610ca7576040517f08c379a0000000000000000000000000000000000000000000000000000000008152600401610c9e90612de8565b60405180910390fd5b600073ffffffffffffffffffffffffffffffffffffffff168273ffffffffffffffffffffffffffffffffffffffff1603610d16576040517f08c379a0000000000000000000000000000000000000000000000000000000008152600401610d0d90612e54565b60405180910390fd5b60008273ffffffffffffffffffffffffffffffffffffffff1682604051610d3c90612ea5565b60006040518083038185875af1925050503d8060008114610d79576040519150601f19603f3d011682016040523d82523d6000602084013e610d7e565b606091505b5050905080610dc2576040517f08c379a0000000000000000000000000000000000000000000000000000000008152600401610db990612f06565b60405180910390fd5b8273ffffffffffffffffffffffffffffffffffffffff167fdf20fd1e76bc69d672e4814fafb2c449bba3a5369d8359adf9e05e6fde87b05683604051610e089190612417565b60405180910390a250506001600a8190555050565b60026020528060005260406000206000915054906101000a900460ff1681565b60095481565b600b5481565b600d6020528160005260406000208181548110610e6557600080fd5b90600052602060002001600091509150505481565b600260003373ffffffffffffffffffffffffffffffffffffffff1673ffffffffffffffffffffffffffffffffffffffff16815260200190815260200160002060009054906101000a900460ff16610f06576040517f08c379a0000000000000000000000000000000000000000000000000000000008152600401610efd90612bc1565b60405180910390fd5b6000600c600083815260200190815260200160002060030160146101000a81548160ff02191690831515021790555050565b60078181548110610f4857600080fd5b906000526020600020016000915054906101000a900473ffffffffffffffffffffffffffffffffffffffff1681565b60066020528160005260406000208181548110610f9357600080fd5b9060005260206000209060020201600091509150508060000160009054906101000a900473ffffffffffffffffffffffffffffffffffffffff16908060010154905082565b600c60205280600052604060002060009150905080600001549080600101805461100190612b15565b80601f016020809104026020016040519081016040528092919081815260200182805461102d90612b15565b801561107a5780601f1061104f5761010080835404028352916020019161107a565b820191906000526020600020905b81548152906001019060200180831161105d57829003601f168201915b5050505050908060020154908060030160009054906101000a900473ffffffffffffffffffffffffffffffffffffffff16908060030160149054906101000a900460ff16905085565b60606004805480602002602001604051908101604052809291908181526020016000905b828210156111a857838290600052602060002090600502016040518060a0016040529081600082015481526020016001820160009054906101000a900473ffffffffffffffffffffffffffffffffffffffff1673ffffffffffffffffffffffffffffffffffffffff1673ffffffffffffffffffffffffffffffffffffffff16815260200160028201548152602001600382015481526020016004820160009054906101000a900460ff161515151581525050815260200190600101906110e7565b50505050905090565b6002600a54036111f6576040517f08c379a00000000000000000000000000000000000000000000000000000000081526004016111ed90612d7c565b60405180910390fd5b6002600a819055506000600c600083815260200190815260200160002090508060030160149054906101000a900460ff16611266576040517f08c379a000000000000000000000000000000000000000000000000000000000815260040161125d90612f72565b60405180910390fd5b806002015434146112ac576040517f08c379a00000000000000000000000000000000000000000000000000000000081526004016112a390612fde565b60405180910390fd5b3373ffffffffffffffffffffffffffffffffffffffff167fe1fffcc4923d04b559f4d29a8bfc6cda04eb5b0d3c460751c2402c5c5cc9109c346040516112f29190612417565b60405180910390a2600d60003373ffffffffffffffffffffffffffffffffffffffff1673ffffffffffffffffffffffffffffffffffffffff1681526020019081526020016000208290806001815401808255809150506001900390600052602060002001600090919091909150557fa530f889d7f1bd9a73028e48944ca013ab2c6624a31e3fa26f923f4bb719abd58233836002015460405161139793929190612ffe565b60405180910390a1506001600a8190555050565b600481815481106113bb57600080fd5b90600052602060002090600502016000915090508060000154908060010160009054906101000a900473ffffffffffffffffffffffffffffffffffffffff16908060020154908060030154908060040160009054906101000a900460ff16905085565b600080606060006004858154811061143957611438612b46565b5b90600052602060002090600502019050600060066000878152602001908152602001600020805480602002602001604051908101604052809291908181526020016000905b8282101561151057838290600052602060002090600202016040518060400160405290816000820160009054906101000a900473ffffffffffffffffffffffffffffffffffffffff1673ffffffffffffffffffffffffffffffffffffffff1673ffffffffffffffffffffffffffffffffffffffff1681526020016001820154815250508152602001906001019061147e565b5050505090508582600301548294509450945050509193909250565b60056020528160005260406000206020528060005260406000206000915091509054906101000a900460ff1681565b600260003373ffffffffffffffffffffffffffffffffffffffff1673ffffffffffffffffffffffffffffffffffffffff16815260200190815260200160002060009054906101000a900460ff166115e7576040517f08c379a00000000000000000000000000000000000000000000000000000000081526004016115de90612bc1565b60405180910390fd5b6002600a540361162c576040517f08c379a000000000000000000000000000000000000000000000000000000000815260040161162390612d7c565b60405180910390fd5b6002600a8190555060004790506000811161167c576040517f08c379a000000000000000000000000000000000000000000000000000000000815260040161167390612de8565b60405180910390fd5b60005b600780549050811015611835576000600782815481106116a2576116a1612b46565b5b9060005260206000200160009054906101000a900473ffffffffffffffffffffffffffffffffffffffff1690506000600954600860008473ffffffffffffffffffffffffffffffffffffffff1673ffffffffffffffffffffffffffffffffffffffff168152602001908152602001600020548561171f9190613035565b61172991906130a6565b905060008273ffffffffffffffffffffffffffffffffffffffff168260405161175190612ea5565b60006040518083038185875af1925050503d806000811461178e576040519150601f19603f3d011682016040523d82523d6000602084013e611793565b606091505b50509050806117d7576040517f08c379a00000000000000000000000000000000000000000000000000000000081526004016117ce90613123565b60405180910390fd5b8273ffffffffffffffffffffffffffffffffffffffff167fdf20fd1e76bc69d672e4814fafb2c449bba3a5369d8359adf9e05e6fde87b0568360405161181d9190612417565b60405180910390a2505050808060010191505061167f565b50506001600a81905550565b600260003373ffffffffffffffffffffffffffffffffffffffff1673ffffffffffffffffffffffffffffffffffffffff16815260200190815260200160002060009054906101000a900460ff166118cd576040517f08c379a00000000000000000000000000000000000000000000000000000000081526004016118c490612bc1565b60405180910390fd5b60008111611910576040517f08c379a00000000000000000000000000000000000000000000000000000000081526004016119079061318f565b60405180910390fd5b6000600b600081548092919061192590612ce8565b9190505590506040518060a001604052808281526020018481526020018381526020013373ffffffffffffffffffffffffffffffffffffffff16815260200160011515815250600c600083815260200190815260200160002060008201518160000155602082015181600101908161199d919061335b565b506040820151816002015560608201518160030160006101000a81548173ffffffffffffffffffffffffffffffffffffffff021916908373ffffffffffffffffffffffffffffffffffffffff16021790555060808201518160030160146101000a81548160ff0219169083151502179055509050507f52402cafb2ecec722b103e8f203f83362148c168659dc96678c2c6850d12dd9f81848433604051611a47949392919061342d565b60405180910390a1505050565b600260003373ffffffffffffffffffffffffffffffffffffffff1673ffffffffffffffffffffffffffffffffffffffff16815260200190815260200160002060009054906101000a900460ff16611ae0576040517f08c379a0000000000000000000000000000000000000000000000000000000008152600401611ad790612bc1565b60405180910390fd5b600073ffffffffffffffffffffffffffffffffffffffff168273ffffffffffffffffffffffffffffffffffffffff1603611b4f576040517f08c379a0000000000000000000000000000000000000000000000000000000008152600401611b46906134c5565b60405180910390fd5b60008111611b92576040517f08c379a0000000000000000000000000000000000000000000000000000000008152600401611b8990613531565b60405180910390fd5b600060036000815480929190611ba790612ce8565b91905055905060046040518060a001604052808381526020018573ffffffffffffffffffffffffffffffffffffffff168152602001848152602001600081526020016000151581525090806001815401808255809150506001900390600052602060002090600502016000909190919091506000820151816000015560208201518160010160006101000a81548173ffffffffffffffffffffffffffffffffffffffff021916908373ffffffffffffffffffffffffffffffffffffffff160217905550604082015181600201556060820151816003015560808201518160040160006101000a81548160ff02191690831515021790555050508273ffffffffffffffffffffffffffffffffffffffff166001600480549050611cc99190613551565b7f6974e8be5912ae917b788db2884a51e71cbe0f0979af347e6a32d07d52ef82a384604051611cf89190612417565b60405180910390a3505050565b60086020528060005260406000206000915090505481565b60003411611d60576040517f08c379a0000000000000000000000000000000000000000000000000000000008152600401611d57906135d1565b60405180910390fd5b3373ffffffffffffffffffffffffffffffffffffffff167fe1fffcc4923d04b559f4d29a8bfc6cda04eb5b0d3c460751c2402c5c5cc9109c34604051611da69190612417565b60405180910390a2565b60035481565b600260003373ffffffffffffffffffffffffffffffffffffffff1673ffffffffffffffffffffffffffffffffffffffff16815260200190815260200160002060009054906101000a900460ff16611e42576040517f08c379a0000000000000000000000000000000000000000000000000000000008152600401611e3990612bc1565b60405180910390fd5b6002600a5403611e87576040517f08c379a0000000000000000000000000000000000000000000000000000000008152600401611e7e90612d7c565b60405180910390fd5b6002600a81905550600060048281548110611ea557611ea4612b46565b5b9060005260206000209060050201905060015481600301541015611efe576040517f08c379a0000000000000000000000000000000000000000000000000000000008152600401611ef59061363d565b60405180910390fd5b8060040160009054906101000a900460ff1615611f50576040517f08c379a0000000000000000000000000000000000000000000000000000000008152600401611f4790612c2d565b60405180910390fd5b60018160040160006101000a81548160ff02191690831515021790555060008160010160009054906101000a900473ffffffffffffffffffffffffffffffffffffffff1673ffffffffffffffffffffffffffffffffffffffff168260020154604051611fbb90612ea5565b60006040518083038185875af1925050503d8060008114611ff8576040519150601f19603f3d011682016040523d82523d6000602084013e611ffd565b606091505b5050905080612041576040517f08c379a0000000000000000000000000000000000000000000000000000000008152600401612038906136a9565b60405180910390fd5b8160010160009054906101000a900473ffffffffffffffffffffffffffffffffffffffff1673ffffffffffffffffffffffffffffffffffffffff16837fda19024f6708ce28e75d9c0ec389fb05a8e5cc9dfe520f61239c10d51a11e59c84600201546040516120b09190612417565b60405180910390a350506001600a8190555050565b60015481565b6040518060a00160405280600081526020016060815260200160008152602001600073ffffffffffffffffffffffffffffffffffffffff1681526020016000151581525090565b6000604051905090565b600080fd5b600080fd5b6000819050919050565b61213981612126565b811461214457600080fd5b50565b60008135905061215681612130565b92915050565b6000602082840312156121725761217161211c565b5b600061218084828501612147565b91505092915050565b600073ffffffffffffffffffffffffffffffffffffffff82169050919050565b60006121b482612189565b9050919050565b6121c4816121a9565b82525050565b60006020820190506121df60008301846121bb565b92915050565b600081519050919050565b600082825260208201905092915050565b6000819050602082019050919050565b61221a81612126565b82525050565b600081519050919050565b600082825260208201905092915050565b60005b8381101561225a57808201518184015260208101905061223f565b60008484015250505050565b6000601f19601f8301169050919050565b600061228282612220565b61228c818561222b565b935061229c81856020860161223c565b6122a581612266565b840191505092915050565b6122b9816121a9565b82525050565b60008115159050919050565b6122d4816122bf565b82525050565b600060a0830160008301516122f26000860182612211565b506020830151848203602086015261230a8282612277565b915050604083015161231f6040860182612211565b50606083015161233260608601826122b0565b50608083015161234560808601826122cb565b508091505092915050565b600061235c83836122da565b905092915050565b6000602082019050919050565b600061237c826121e5565b61238681856121f0565b93508360208202850161239885612201565b8060005b858110156123d457848403895281516123b58582612350565b94506123c083612364565b925060208a0199505060018101905061239c565b50829750879550505050505092915050565b600060208201905081810360008301526124008184612371565b905092915050565b61241181612126565b82525050565b600060208201905061242c6000830184612408565b92915050565b600061243d82612189565b9050919050565b61244d81612432565b811461245857600080fd5b50565b60008135905061246a81612444565b92915050565b6000602082840312156124865761248561211c565b5b60006124948482850161245b565b91505092915050565b6124a6816121a9565b81146124b157600080fd5b50565b6000813590506124c38161249d565b92915050565b6000602082840312156124df576124de61211c565b5b60006124ed848285016124b4565b91505092915050565b6124ff816122bf565b82525050565b600060208201905061251a60008301846124f6565b92915050565b600080604083850312156125375761253661211c565b5b6000612545858286016124b4565b925050602061255685828601612147565b9150509250929050565b600080604083850312156125775761257661211c565b5b600061258585828601612147565b925050602061259685828601612147565b9150509250929050565b60006040820190506125b560008301856121bb565b6125c26020830184612408565b9392505050565b600082825260208201905092915050565b60006125e582612220565b6125ef81856125c9565b93506125ff81856020860161223c565b61260881612266565b840191505092915050565b600060a0820190506126286000830188612408565b818103602083015261263a81876125da565b90506126496040830186612408565b61265660608301856121bb565b61266360808301846124f6565b9695505050505050565b600081519050919050565b600082825260208201905092915050565b6000819050602082019050919050565b60a0820160008201516126af6000850182612211565b5060208201516126c260208501826122b0565b5060408201516126d56040850182612211565b5060608201516126e86060850182612211565b5060808201516126fb60808501826122cb565b50505050565b600061270d8383612699565b60a08301905092915050565b6000602082019050919050565b60006127318261266d565b61273b8185612678565b935061274683612689565b8060005b8381101561277757815161275e8882612701565b975061276983612719565b92505060018101905061274a565b5085935050505092915050565b6000602082019050818103600083015261279e8184612726565b905092915050565b600060a0820190506127bb6000830188612408565b6127c860208301876121bb565b6127d56040830186612408565b6127e26060830185612408565b6127ef60808301846124f6565b9695505050505050565b600081519050919050565b600082825260208201905092915050565b6000819050602082019050919050565b60408201600082015161283b60008501826122b0565b50602082015161284e6020850182612211565b50505050565b60006128608383612825565b60408301905092915050565b6000602082019050919050565b6000612884826127f9565b61288e8185612804565b935061289983612815565b8060005b838110156128ca5781516128b18882612854565b97506128bc8361286c565b92505060018101905061289d565b5085935050505092915050565b60006060820190506128ec6000830186612408565b6128f96020830185612408565b818103604083015261290b8184612879565b9050949350505050565b6000806040838503121561292c5761292b61211c565b5b600061293a85828601612147565b925050602061294b858286016124b4565b9150509250929050565b600080fd5b600080fd5b7f4e487b7100000000000000000000000000000000000000000000000000000000600052604160045260246000fd5b61299782612266565b810181811067ffffffffffffffff821117156129b6576129b561295f565b5b80604052505050565b60006129c9612112565b90506129d5828261298e565b919050565b600067ffffffffffffffff8211156129f5576129f461295f565b5b6129fe82612266565b9050602081019050919050565b82818337600083830152505050565b6000612a2d612a28846129da565b6129bf565b905082815260208101848484011115612a4957612a4861295a565b5b612a54848285612a0b565b509392505050565b600082601f830112612a7157612a70612955565b5b8135612a81848260208601612a1a565b91505092915050565b60008060408385031215612aa157612aa061211c565b5b600083013567ffffffffffffffff811115612abf57612abe612121565b5b612acb85828601612a5c565b9250506020612adc85828601612147565b9150509250929050565b7f4e487b7100000000000000000000000000000000000000000000000000000000600052602260045260246000fd5b60006002820490506001821680612b2d57607f821691505b602082108103612b4057612b3f612ae6565b5b50919050565b7f4e487b7100000000000000000000000000000000000000000000000000000000600052603260045260246000fd5b7f4e6f7420616e206f776e65720000000000000000000000000000000000000000600082015250565b6000612bab600c836125c9565b9150612bb682612b75565b602082019050919050565b60006020820190508181036000830152612bda81612b9e565b9050919050565b7f416c726561647920657865637574656400000000000000000000000000000000600082015250565b6000612c176010836125c9565b9150612c2282612be1565b602082019050919050565b60006020820190508181036000830152612c4681612c0a565b9050919050565b7f416c726561647920617070726f76656400000000000000000000000000000000600082015250565b6000612c836010836125c9565b9150612c8e82612c4d565b602082019050919050565b60006020820190508181036000830152612cb281612c76565b9050919050565b7f4e487b7100000000000000000000000000000000000000000000000000000000600052601160045260246000fd5b6000612cf382612126565b91507fffffffffffffffffffffffffffffffffffffffffffffffffffffffffffffffff8203612d2557612d24612cb9565b5b600182019050919050565b7f5265656e7472616e63792047756172643a205265656e7472616e742063616c6c600082015250565b6000612d666020836125c9565b9150612d7182612d30565b602082019050919050565b60006020820190508181036000830152612d9581612d59565b9050919050565b7f4e6f2068617920666f6e646f7300000000000000000000000000000000000000600082015250565b6000612dd2600d836125c9565b9150612ddd82612d9c565b602082019050919050565b60006020820190508181036000830152612e0181612dc5565b9050919050565b7f446972656363696f6e20696e76616c6964610000000000000000000000000000600082015250565b6000612e3e6012836125c9565b9150612e4982612e08565b602082019050919050565b60006020820190508181036000830152612e6d81612e31565b9050919050565b600081905092915050565b50565b6000612e8f600083612e74565b9150612e9a82612e7f565b600082019050919050565b6000612eb082612e82565b9150819050919050565b7f46616c6c6f20616c20656e76696172206c6f7320666f6e646f73000000000000600082015250565b6000612ef0601a836125c9565b9150612efb82612eba565b602082019050919050565b60006020820190508181036000830152612f1f81612ee3565b9050919050565b7f50726f647563746f206e6f20646973706f6e69626c6500000000000000000000600082015250565b6000612f5c6016836125c9565b9150612f6782612f26565b602082019050919050565b60006020820190508181036000830152612f8b81612f4f565b9050919050565b7f4d6f6e746f20696e636f72726563746f00000000000000000000000000000000600082015250565b6000612fc86010836125c9565b9150612fd382612f92565b602082019050919050565b60006020820190508181036000830152612ff781612fbb565b9050919050565b60006060820190506130136000830186612408565b61302060208301856121bb565b61302d6040830184612408565b949350505050565b600061304082612126565b915061304b83612126565b925082820261305981612126565b915082820484148315176130705761306f612cb9565b5b5092915050565b7f4e487b7100000000000000000000000000000000000000000000000000000000600052601260045260246000fd5b60006130b182612126565b91506130bc83612126565b9250826130cc576130cb613077565b5b828204905092915050565b7f66616c6c6f2064656c207061676f000000000000000000000000000000000000600082015250565b600061310d600e836125c9565b9150613118826130d7565b602082019050919050565b6000602082019050818103600083015261313c81613100565b9050919050565b7f456c2070726563696f206465626520736572206d61796f722061203000000000600082015250565b6000613179601c836125c9565b915061318482613143565b602082019050919050565b600060208201905081810360008301526131a88161316c565b9050919050565b60008190508160005260206000209050919050565b60006020601f8301049050919050565b600082821b905092915050565b6000600883026132117fffffffffffffffffffffffffffffffffffffffffffffffffffffffffffffffff826131d4565b61321b86836131d4565b95508019841693508086168417925050509392505050565b6000819050919050565b600061325861325361324e84612126565b613233565b612126565b9050919050565b6000819050919050565b6132728361323d565b61328661327e8261325f565b8484546131e1565b825550505050565b600090565b61329b61328e565b6132a6818484613269565b505050565b5b818110156132ca576132bf600082613293565b6001810190506132ac565b5050565b601f82111561330f576132e0816131af565b6132e9846131c4565b810160208510156132f8578190505b61330c613304856131c4565b8301826132ab565b50505b505050565b600082821c905092915050565b600061333260001984600802613314565b1980831691505092915050565b600061334b8383613321565b9150826002028217905092915050565b61336482612220565b67ffffffffffffffff81111561337d5761337c61295f565b5b6133878254612b15565b6133928282856132ce565b600060209050601f8311600181146133c557600084156133b3578287015190505b6133bd858261333f565b865550613425565b601f1984166133d3866131af565b60005b828110156133fb578489015182556001820191506020850194506020810190506133d6565b868310156134185784890151613414601f891682613321565b8355505b6001600288020188555050505b505050505050565b60006080820190506134426000830187612408565b818103602083015261345481866125da565b90506134636040830185612408565b61347060608301846121bb565b95945050505050565b7f496e76616c696420616464726573730000000000000000000000000000000000600082015250565b60006134af600f836125c9565b91506134ba82613479565b602082019050919050565b600060208201905081810360008301526134de816134a2565b9050919050565b7f496e76616c696420416d6f756e74000000000000000000000000000000000000600082015250565b600061351b600e836125c9565b9150613526826134e5565b602082019050919050565b6000602082019050818103600083015261354a8161350e565b9050919050565b600061355c82612126565b915061356783612126565b925082820390508181111561357f5761357e612cb9565b5b92915050565b7f4465626573206d616e6461722065746865720000000000000000000000000000600082015250565b60006135bb6012836125c9565b91506135c682613585565b602082019050919050565b600060208201905081810360008301526135ea816135ae565b9050919050565b7f4e6f7420656e6f75676820617070726f76616c73000000000000000000000000600082015250565b60006136276014836125c9565b9150613632826135f1565b602082019050919050565b600060208201905081810360008301526136568161361a565b9050919050565b7f5472616e73616374696f6e206661696c65640000000000000000000000000000600082015250565b60006136936012836125c9565b915061369e8261365d565b602082019050919050565b600060208201905081810360008301526136c281613686565b905091905056fea26469706673582212209fe4822b95d7154a9ab345fafd276b21f3cec2c26e45f5fc6d945ae9416b1dc664736f6c634300081c0033",
  "linkReferences": {},
  "deployedLinkReferences": {}
}