{
  "_format": "hh-sol-artifact-1",
  "contractName": "MultiSignPaymentWallet",
  "sourceName": "contracts/Wallet.sol",
  "abi": [
    {
      "inputs": [
        {
          "internalType": "address[]",
          "name": "_owners",
          "type": "address[]"
        },
        {
          "internalType": "uint256",
          "name": "_requireApprovals",
          "type": "uint256"
        },
        {
          "internalType": "address[]",
          "name": "_payees",
          "type": "address[]"
        },
        {
          "internalType": "uint256[]",
          "name": "_shares",
          "type": "uint256[]"
        }
      ],
      "stateMutability": "nonpayable",
      "type": "constructor"
    },
    {
      "anonymous": false,
      "inputs": [
        {
          "indexed": true,
          "internalType": "address",
          "name": "sender",
          "type": "address"
        },
        {
          "indexed": false,
          "internalType": "uint256",
          "name": "amount",
          "type": "uint256"
        }
      ],
      "name": "Deposit",
      "type": "event"
    },
    {
      "anonymous": false,
      "inputs": [
        {
          "indexed": true,
          "internalType": "address",
          "name": "payee",
          "type": "address"
        },
        {
          "indexed": false,
          "internalType": "uint256",
          "name": "amount",
          "type": "uint256"
        }
      ],
      "name": "PaymentReleased",
      "type": "event"
    },
    {
      "anonymous": false,
      "inputs": [
        {
          "indexed": false,
          "internalType": "uint256",
          "name": "id",
          "type": "uint256"
        },
        {
          "indexed": false,
          "internalType": "string",
          "name": "name",
          "type": "string"
        },
        {
          "indexed": false,
          "internalType": "uint256",
          "name": "price",
          "type": "uint256"
        },
        {
          "indexed": false,
          "internalType": "string",
          "name": "image",
          "type": "string"
        },
        {
          "indexed": false,
          "internalType": "address",
          "name": "seller",
          "type": "address"
        }
      ],
      "name": "ProductAdded",
      "type": "event"
    },
    {
      "anonymous": false,
      "inputs": [
        {
          "indexed": false,
          "internalType": "uint256",
          "name": "id",
          "type": "uint256"
        },
        {
          "indexed": false,
          "internalType": "address",
          "name": "buyer",
          "type": "address"
        },
        {
          "indexed": false,
          "internalType": "uint256",
          "name": "price",
          "type": "uint256"
        }
      ],
      "name": "ProductPurchased",
      "type": "event"
    },
    {
      "anonymous": false,
      "inputs": [
        {
          "indexed": true,
          "internalType": "uint256",
          "name": "txId",
          "type": "uint256"
        },
        {
          "indexed": false,
          "internalType": "address",
          "name": "owner",
          "type": "address"
        }
      ],
      "name": "TransactionApproved",
      "type": "event"
    },
    {
      "anonymous": false,
      "inputs": [
        {
          "indexed": true,
          "internalType": "uint256",
          "name": "txId",
          "type": "uint256"
        },
        {
          "indexed": true,
          "internalType": "address",
          "name": "to",
          "type": "address"
        },
        {
          "indexed": false,
          "internalType": "uint256",
          "name": "amount",
          "type": "uint256"
        }
      ],
      "name": "TransactionExecuted",
      "type": "event"
    },
    {
      "anonymous": false,
      "inputs": [
        {
          "indexed": true,
          "internalType": "uint256",
          "name": "txId",
          "type": "uint256"
        },
        {
          "indexed": true,
          "internalType": "address",
          "name": "to",
          "type": "address"
        },
        {
          "indexed": false,
          "internalType": "uint256",
          "name": "amount",
          "type": "uint256"
        }
      ],
      "name": "TransactionSubmitted",
      "type": "event"
    },
    {
      "inputs": [
        {
          "internalType": "address",
          "name": "_to",
          "type": "address"
        },
        {
          "internalType": "uint256",
          "name": "amount",
          "type": "uint256"
        }
      ],
      "name": "SubmitTransaction",
      "outputs": [],
      "stateMutability": "nonpayable",
      "type": "function"
    },
    {
      "inputs": [
        {
          "internalType": "string",
          "name": "_name",
          "type": "string"
        },
        {
          "internalType": "uint256",
          "name": "_price",
          "type": "uint256"
        },
        {
          "internalType": "string",
          "name": "_image",
          "type": "string"
        }
      ],
      "name": "addProduct",
      "outputs": [],
      "stateMutability": "nonpayable",
      "type": "function"
    },
    {
      "inputs": [
        {
          "internalType": "uint256",
          "name": "",
          "type": "uint256"
        },
        {
          "internalType": "address",
          "name": "",
          "type": "address"
        }
      ],
      "name": "approvals",
      "outputs": [
        {
          "internalType": "bool",
          "name": "",
          "type": "bool"
        }
      ],
      "stateMutability": "view",
      "type": "function"
    },
    {
      "inputs": [
        {
          "internalType": "uint256",
          "name": "txId",
          "type": "uint256"
        }
      ],
      "name": "approveTransaction",
      "outputs": [],
      "stateMutability": "nonpayable",
      "type": "function"
    },
    {
      "inputs": [
        {
          "internalType": "uint256",
          "name": "_productId",
          "type": "uint256"
        }
      ],
      "name": "buyProduct",
      "outputs": [],
      "stateMutability": "payable",
      "type": "function"
    },
    {
      "inputs": [],
      "name": "deposit",
      "outputs": [],
      "stateMutability": "payable",
      "type": "function"
    },
    {
      "inputs": [
        {
          "internalType": "uint256",
          "name": "_productId",
          "type": "uint256"
        }
      ],
      "name": "disableProduct",
      "outputs": [],
      "stateMutability": "nonpayable",
      "type": "function"
    },
    {
      "inputs": [
        {
          "internalType": "uint256",
          "name": "txId",
          "type": "uint256"
        }
      ],
      "name": "executeTransaction",
      "outputs": [],
      "stateMutability": "nonpayable",
      "type": "function"
    },
    {
      "inputs": [],
      "name": "getAllProducts",
      "outputs": [
        {
          "components": [
            {
              "internalType": "uint256",
              "name": "id",
              "type": "uint256"
            },
            {
              "internalType": "string",
              "name": "name",
              "type": "string"
            },
            {
              "internalType": "uint256",
              "name": "price",
              "type": "uint256"
            },
            {
              "internalType": "string",
              "name": "image",
              "type": "string"
            },
            {
              "internalType": "address",
              "name": "seller",
              "type": "address"
            },
            {
              "internalType": "bool",
              "name": "active",
              "type": "bool"
            }
          ],
          "internalType": "struct MultiSignPaymentWallet.Product[]",
          "name": "",
          "type": "tuple[]"
        }
      ],
      "stateMutability": "view",
      "type": "function"
    },
    {
      "inputs": [
        {
          "internalType": "uint256",
          "name": "txId",
          "type": "uint256"
        }
      ],
      "name": "getApprovals",
      "outputs": [
        {
          "internalType": "uint256",
          "name": "txID",
          "type": "uint256"
        },
        {
          "internalType": "uint256",
          "name": "totalApprovals",
          "type": "uint256"
        },
        {
          "components": [
            {
              "internalType": "address",
              "name": "approver",
              "type": "address"
            },
            {
              "internalType": "uint256",
              "name": "timestamp",
              "type": "uint256"
            }
          ],
          "internalType": "struct MultiSignPaymentWallet.ApprovalInfo[]",
          "name": "approvalsList",
          "type": "tuple[]"
        }
      ],
      "stateMutability": "view",
      "type": "function"
    },
    {
      "inputs": [],
      "name": "getBalance",
      "outputs": [
        {
          "internalType": "uint256",
          "name": "",
          "type": "uint256"
        }
      ],
      "stateMutability": "view",
      "type": "function"
    },
    {
      "inputs": [],
      "name": "getTransactions",
      "outputs": [
        {
          "components": [
            {
              "internalType": "uint256",
              "name": "id",
              "type": "uint256"
            },
            {
              "internalType": "address",
              "name": "to",
              "type": "address"
            },
            {
              "internalType": "uint256",
              "name": "amount",
              "type": "uint256"
            },
            {
              "internalType": "uint256",
              "name": "approvalCount",
              "type": "uint256"
            },
            {
              "internalType": "bool",
              "name": "executed",
              "type": "bool"
            }
          ],
          "internalType": "struct MultiSignPaymentWallet.Transaction[]",
          "name": "",
          "type": "tuple[]"
        }
      ],
      "stateMutability": "view",
      "type": "function"
    },
    {
      "inputs": [
        {
          "internalType": "address",
          "name": "",
          "type": "address"
        }
      ],
      "name": "isOwner",
      "outputs": [
        {
          "internalType": "bool",
          "name": "",
          "type": "bool"
        }
      ],
      "stateMutability": "view",
      "type": "function"
    },
    {
      "inputs": [],
      "name": "nextProductId",
      "outputs": [
        {
          "internalType": "uint256",
          "name": "",
          "type": "uint256"
        }
      ],
      "stateMutability": "view",
      "type": "function"
    },
    {
      "inputs": [],
      "name": "nextTransactionId",
      "outputs": [
        {
          "internalType": "uint256",
          "name": "",
          "type": "uint256"
        }
      ],
      "stateMutability": "view",
      "type": "function"
    },
    {
      "inputs": [
        {
          "internalType": "uint256",
          "name": "",
          "type": "uint256"
        }
      ],
      "name": "owners",
      "outputs": [
        {
          "internalType": "address",
          "name": "",
          "type": "address"
        }
      ],
      "stateMutability": "view",
      "type": "function"
    },
    {
      "inputs": [
        {
          "internalType": "uint256",
          "name": "",
          "type": "uint256"
        }
      ],
      "name": "payees",
      "outputs": [
        {
          "internalType": "address",
          "name": "",
          "type": "address"
        }
      ],
      "stateMutability": "view",
      "type": "function"
    },
    {
      "inputs": [
        {
          "internalType": "uint256",
          "name": "",
          "type": "uint256"
        }
      ],
      "name": "products",
      "outputs": [
        {
          "internalType": "uint256",
          "name": "id",
          "type": "uint256"
        },
        {
          "internalType": "string",
          "name": "name",
          "type": "string"
        },
        {
          "internalType": "uint256",
          "name": "price",
          "type": "uint256"
        },
        {
          "internalType": "string",
          "name": "image",
          "type": "string"
        },
        {
          "internalType": "address",
          "name": "seller",
          "type": "address"
        },
        {
          "internalType": "bool",
          "name": "active",
          "type": "bool"
        }
      ],
      "stateMutability": "view",
      "type": "function"
    },
    {
      "inputs": [
        {
          "internalType": "address",
          "name": "",
          "type": "address"
        },
        {
          "internalType": "uint256",
          "name": "",
          "type": "uint256"
        }
      ],
      "name": "purchases",
      "outputs": [
        {
          "internalType": "uint256",
          "name": "",
          "type": "uint256"
        }
      ],
      "stateMutability": "view",
      "type": "function"
    },
    {
      "inputs": [],
      "name": "releasePayments",
      "outputs": [],
      "stateMutability": "nonpayable",
      "type": "function"
    },
    {
      "inputs": [],
      "name": "requireApprovals",
      "outputs": [
        {
          "internalType": "uint256",
          "name": "",
          "type": "uint256"
        }
      ],
      "stateMutability": "view",
      "type": "function"
    },
    {
      "inputs": [
        {
          "internalType": "address",
          "name": "",
          "type": "address"
        }
      ],
      "name": "shares",
      "outputs": [
        {
          "internalType": "uint256",
          "name": "",
          "type": "uint256"
        }
      ],
      "stateMutability": "view",
      "type": "function"
    },
    {
      "inputs": [],
      "name": "totalShares",
      "outputs": [
        {
          "internalType": "uint256",
          "name": "",
          "type": "uint256"
        }
      ],
      "stateMutability": "view",
      "type": "function"
    },
    {
      "inputs": [
        {
          "internalType": "uint256",
          "name": "",
          "type": "uint256"
        },
        {
          "internalType": "uint256",
          "name": "",
          "type": "uint256"
        }
      ],
      "name": "transactionApprovals",
      "outputs": [
        {
          "internalType": "address",
          "name": "approver",
          "type": "address"
        },
        {
          "internalType": "uint256",
          "name": "timestamp",
          "type": "uint256"
        }
      ],
      "stateMutability": "view",
      "type": "function"
    },
    {
      "inputs": [
        {
          "internalType": "uint256",
          "name": "",
          "type": "uint256"
        }
      ],
      "name": "transactions",
      "outputs": [
        {
          "internalType": "uint256",
          "name": "id",
          "type": "uint256"
        },
        {
          "internalType": "address",
          "name": "to",
          "type": "address"
        },
        {
          "internalType": "uint256",
          "name": "amount",
          "type": "uint256"
        },
        {
          "internalType": "uint256",
          "name": "approvalCount",
          "type": "uint256"
        },
        {
          "internalType": "bool",
          "name": "executed",
          "type": "bool"
        }
      ],
      "stateMutability": "view",
      "type": "function"
    }
  ],
  "bytecode": "0x608060405234801561001057600080fd5b506040516141f83803806141f883398181016040528101906100329190610843565b6001600d81905550600084511161007e576040517f08c379a00000000000000000000000000000000000000000000000000000000081526004016100759061095b565b60405180910390fd5b60008311801561008f575083518311155b6100ce576040517f08c379a00000000000000000000000000000000000000000000000000000000081526004016100c5906109c7565b60405180910390fd5b60005b84518110156102be5760008582815181106100ef576100ee6109e7565b5b60200260200101519050600073ffffffffffffffffffffffffffffffffffffffff168173ffffffffffffffffffffffffffffffffffffffff1603610168576040517f08c379a000000000000000000000000000000000000000000000000000000000815260040161015f90610a62565b60405180910390fd5b600260008273ffffffffffffffffffffffffffffffffffffffff1673ffffffffffffffffffffffffffffffffffffffff16815260200190815260200160002060009054906101000a900460ff16156101f5576040517f08c379a00000000000000000000000000000000000000000000000000000000081526004016101ec90610ace565b60405180910390fd5b6001600260008373ffffffffffffffffffffffffffffffffffffffff1673ffffffffffffffffffffffffffffffffffffffff16815260200190815260200160002060006101000a81548160ff0219169083151502179055506000819080600181540180825580915050600190039060005260206000200160009091909190916101000a81548173ffffffffffffffffffffffffffffffffffffffff021916908373ffffffffffffffffffffffffffffffffffffffff1602179055505080806001019150506100d1565b5082600181905550805182511461030a576040517f08c379a000000000000000000000000000000000000000000000000000000000815260040161030190610b3a565b60405180910390fd5b600082511161034e576040517f08c379a000000000000000000000000000000000000000000000000000000000815260040161034590610ba6565b60405180910390fd5b60005b825181101561057557600073ffffffffffffffffffffffffffffffffffffffff16838281518110610385576103846109e7565b5b602002602001015173ffffffffffffffffffffffffffffffffffffffff16036103e3576040517f08c379a00000000000000000000000000000000000000000000000000000000081526004016103da90610c12565b60405180910390fd5b60008282815181106103f8576103f76109e7565b5b602002602001015111610440576040517f08c379a000000000000000000000000000000000000000000000000000000000815260040161043790610c7e565b60405180910390fd5b6003838281518110610455576104546109e7565b5b60200260200101519080600181540180825580915050600190039060005260206000200160009091909190916101000a81548173ffffffffffffffffffffffffffffffffffffffff021916908373ffffffffffffffffffffffffffffffffffffffff1602179055508181815181106104d0576104cf6109e7565b5b6020026020010151600460008584815181106104ef576104ee6109e7565b5b602002602001015173ffffffffffffffffffffffffffffffffffffffff1673ffffffffffffffffffffffffffffffffffffffff16815260200190815260200160002081905550818181518110610548576105476109e7565b5b6020026020010151600560008282546105619190610ccd565b925050819055508080600101915050610351565b5050505050610d01565b6000604051905090565b600080fd5b600080fd5b600080fd5b6000601f19601f8301169050919050565b7f4e487b7100000000000000000000000000000000000000000000000000000000600052604160045260246000fd5b6105e182610598565b810181811067ffffffffffffffff82111715610600576105ff6105a9565b5b80604052505050565b600061061361057f565b905061061f82826105d8565b919050565b600067ffffffffffffffff82111561063f5761063e6105a9565b5b602082029050602081019050919050565b600080fd5b600073ffffffffffffffffffffffffffffffffffffffff82169050919050565b600061068082610655565b9050919050565b61069081610675565b811461069b57600080fd5b50565b6000815190506106ad81610687565b92915050565b60006106c66106c184610624565b610609565b905080838252602082019050602084028301858111156106e9576106e8610650565b5b835b8181101561071257806106fe888261069e565b8452602084019350506020810190506106eb565b5050509392505050565b600082601f83011261073157610730610593565b5b81516107418482602086016106b3565b91505092915050565b6000819050919050565b61075d8161074a565b811461076857600080fd5b50565b60008151905061077a81610754565b92915050565b600067ffffffffffffffff82111561079b5761079a6105a9565b5b602082029050602081019050919050565b60006107bf6107ba84610780565b610609565b905080838252602082019050602084028301858111156107e2576107e1610650565b5b835b8181101561080b57806107f7888261076b565b8452602084019350506020810190506107e4565b5050509392505050565b600082601f83011261082a57610829610593565b5b815161083a8482602086016107ac565b91505092915050565b6000806000806080858703121561085d5761085c610589565b5b600085015167ffffffffffffffff81111561087b5761087a61058e565b5b6108878782880161071c565b94505060206108988782880161076b565b935050604085015167ffffffffffffffff8111156108b9576108b861058e565b5b6108c58782880161071c565b925050606085015167ffffffffffffffff8111156108e6576108e561058e565b5b6108f287828801610815565b91505092959194509250565b600082825260208201905092915050565b7f4d7573742068617665206f776e65727300000000000000000000000000000000600082015250565b60006109456010836108fe565b91506109508261090f565b602082019050919050565b6000602082019050818103600083015261097481610938565b9050919050565b7f496e76616c696420417070726f76616c73000000000000000000000000000000600082015250565b60006109b16011836108fe565b91506109bc8261097b565b602082019050919050565b600060208201905081810360008301526109e0816109a4565b9050919050565b7f4e487b7100000000000000000000000000000000000000000000000000000000600052603260045260246000fd5b7f496e76616c696420416464726573730000000000000000000000000000000000600082015250565b6000610a4c600f836108fe565b9150610a5782610a16565b602082019050919050565b60006020820190508181036000830152610a7b81610a3f565b9050919050565b7f4f776e6572206e6f7420756e6971756500000000000000000000000000000000600082015250565b6000610ab86010836108fe565b9150610ac382610a82565b602082019050919050565b60006020820190508181036000830152610ae781610aab565b9050919050565b7f4c656e677468206d69736d617463680000000000000000000000000000000000600082015250565b6000610b24600f836108fe565b9150610b2f82610aee565b602082019050919050565b60006020820190508181036000830152610b5381610b17565b9050919050565b7f4e6f207061796565730000000000000000000000000000000000000000000000600082015250565b6000610b906009836108fe565b9150610b9b82610b5a565b602082019050919050565b60006020820190508181036000830152610bbf81610b83565b9050919050565b7f496e76616c696420616464726573730000000000000000000000000000000000600082015250565b6000610bfc600f836108fe565b9150610c0782610bc6565b602082019050919050565b60006020820190508181036000830152610c2b81610bef565b9050919050565b7f536861726573206d757374206265203e20300000000000000000000000000000600082015250565b6000610c686012836108fe565b9150610c7382610c32565b602082019050919050565b60006020820190508181036000830152610c9781610c5b565b9050919050565b7f4e487b7100000000000000000000000000000000000000000000000000000000600052601160045260246000fd5b6000610cd88261074a565b9150610ce38361074a565b9250828201905080821115610cfb57610cfa610c9e565b5b92915050565b6134e880610d106000396000f3fe6080604052600436106101665760003560e01c806383920e90116100d1578063ada403a31161008a578063d0e30db011610064578063d0e30db014610587578063d7ca38f314610591578063ee22610b146105bc578063fc8903db146105e557610166565b8063ada403a31461050a578063c82555d614610521578063ce7c2ac21461054a57610166565b806383920e90146103dd5780638642269e146104085780638f29695a146104245780639ace38c21461044d578063a4e360c81461048e578063ab2850da146104cd57610166565b80634de91a63116101235780634de91a631461028f57806352d3f849146102ba57806354e4b5c2146102f757806363037b0c146103205780636a7ffb3d1461035d5780637acc0b201461039b57610166565b8063025e7c271461016b57806302ee3a52146101a857806312065fe0146101d3578063242232d1146101fe5780632f54bf6e146102275780633a98ef3914610264575b600080fd5b34801561017757600080fd5b50610192600480360381019061018d9190611fef565b610610565b60405161019f919061205d565b60405180910390f35b3480156101b457600080fd5b506101bd61064f565b6040516101ca9190612293565b60405180910390f35b3480156101df57600080fd5b506101e86108b2565b6040516101f591906122c4565b60405180910390f35b34801561020a57600080fd5b5061022560048036038101906102209190611fef565b6108ba565b005b34801561023357600080fd5b5061024e6004803603810190610249919061230b565b610bd5565b60405161025b9190612347565b60405180910390f35b34801561027057600080fd5b50610279610bf5565b60405161028691906122c4565b60405180910390f35b34801561029b57600080fd5b506102a4610bfb565b6040516102b191906122c4565b60405180910390f35b3480156102c657600080fd5b506102e160048036038101906102dc9190612362565b610c01565b6040516102ee91906122c4565b60405180910390f35b34801561030357600080fd5b5061031e60048036038101906103199190611fef565b610c32565b005b34801561032c57600080fd5b5061034760048036038101906103429190611fef565b610cf0565b604051610354919061205d565b60405180910390f35b34801561036957600080fd5b50610384600480360381019061037f91906123a2565b610d2f565b6040516103929291906123e2565b60405180910390f35b3480156103a757600080fd5b506103c260048036038101906103bd9190611fef565b610d90565b6040516103d496959493929190612455565b60405180910390f35b3480156103e957600080fd5b506103f2610f09565b6040516103ff91906125db565b60405180910390f35b610422600480360381019061041d9190611fef565b610ff7565b005b34801561043057600080fd5b5061044b60048036038101906104469190612732565b61120e565b005b34801561045957600080fd5b50610474600480360381019061046f9190611fef565b611440565b6040516104859594939291906127bd565b60405180910390f35b34801561049a57600080fd5b506104b560048036038101906104b09190611fef565b6114b3565b6040516104c4939291906128ee565b60405180910390f35b3480156104d957600080fd5b506104f460048036038101906104ef919061292c565b6115c1565b6040516105019190612347565b60405180910390f35b34801561051657600080fd5b5061051f6115f0565b005b34801561052d57600080fd5b5061054860048036038101906105439190612362565b6118e0565b005b34801561055657600080fd5b50610571600480360381019061056c919061230b565b611b91565b60405161057e91906122c4565b60405180910390f35b61058f611ba9565b005b34801561059d57600080fd5b506105a6611c3c565b6040516105b391906122c4565b60405180910390f35b3480156105c857600080fd5b506105e360048036038101906105de9190611fef565b611c42565b005b3480156105f157600080fd5b506105fa611f51565b60405161060791906122c4565b60405180910390f35b6000818154811061062057600080fd5b906000526020600020016000915054906101000a900473ffffffffffffffffffffffffffffffffffffffff1681565b60606000600a5467ffffffffffffffff81111561066f5761066e612607565b5b6040519080825280602002602001820160405280156106a857816020015b610695611f57565b81526020019060019003908161068d5790505b50905060005b600a548110156108aa57600b60008281526020019081526020016000206040518060c0016040529081600082015481526020016001820180546106f09061299b565b80601f016020809104026020016040519081016040528092919081815260200182805461071c9061299b565b80156107695780601f1061073e57610100808354040283529160200191610769565b820191906000526020600020905b81548152906001019060200180831161074c57829003601f168201915b505050505081526020016002820154815260200160038201805461078c9061299b565b80601f01602080910402602001604051908101604052809291908181526020018280546107b89061299b565b80156108055780601f106107da57610100808354040283529160200191610805565b820191906000526020600020905b8154815290600101906020018083116107e857829003601f168201915b505050505081526020016004820160009054906101000a900473ffffffffffffffffffffffffffffffffffffffff1673ffffffffffffffffffffffffffffffffffffffff1673ffffffffffffffffffffffffffffffffffffffff1681526020016004820160149054906101000a900460ff161515151581525050828281518110610892576108916129cc565b5b602002602001018190525080806001019150506106ae565b508091505090565b600047905090565b600260003373ffffffffffffffffffffffffffffffffffffffff1673ffffffffffffffffffffffffffffffffffffffff16815260200190815260200160002060009054906101000a900460ff16610946576040517f08c379a000000000000000000000000000000000000000000000000000000000815260040161093d90612a47565b60405180910390fd5b60006007828154811061095c5761095b6129cc565b5b906000526020600020906005020190508060040160009054906101000a900460ff16156109be576040517f08c379a00000000000000000000000000000000000000000000000000000000081526004016109b590612ab3565b60405180910390fd5b6008600083815260200190815260200160002060003373ffffffffffffffffffffffffffffffffffffffff1673ffffffffffffffffffffffffffffffffffffffff16815260200190815260200160002060009054906101000a900460ff1615610a5c576040517f08c379a0000000000000000000000000000000000000000000000000000000008152600401610a5390612b1f565b60405180910390fd5b60016008600084815260200190815260200160002060003373ffffffffffffffffffffffffffffffffffffffff1673ffffffffffffffffffffffffffffffffffffffff16815260200190815260200160002060006101000a81548160ff021916908315150217905550806003016000815480929190610ada90612b6e565b91905055506009600083815260200190815260200160002060405180604001604052803373ffffffffffffffffffffffffffffffffffffffff16815260200142815250908060018154018082558091505060019003906000526020600020906002020160009091909190915060008201518160000160006101000a81548173ffffffffffffffffffffffffffffffffffffffff021916908373ffffffffffffffffffffffffffffffffffffffff160217905550602082015181600101555050817f924813d717e221b5f46dcd8a56da1679e4612584ab3237d55e5faabf6f6a307933604051610bc9919061205d565b60405180910390a25050565b60026020528060005260406000206000915054906101000a900460ff1681565b60055481565b600a5481565b600c6020528160005260406000208181548110610c1d57600080fd5b90600052602060002001600091509150505481565b600260003373ffffffffffffffffffffffffffffffffffffffff1673ffffffffffffffffffffffffffffffffffffffff16815260200190815260200160002060009054906101000a900460ff16610cbe576040517f08c379a0000000000000000000000000000000000000000000000000000000008152600401610cb590612a47565b60405180910390fd5b6000600b600083815260200190815260200160002060040160146101000a81548160ff02191690831515021790555050565b60038181548110610d0057600080fd5b906000526020600020016000915054906101000a900473ffffffffffffffffffffffffffffffffffffffff1681565b60096020528160005260406000208181548110610d4b57600080fd5b9060005260206000209060020201600091509150508060000160009054906101000a900473ffffffffffffffffffffffffffffffffffffffff16908060010154905082565b600b602052806000526040600020600091509050806000015490806001018054610db99061299b565b80601f0160208091040260200160405190810160405280929190818152602001828054610de59061299b565b8015610e325780601f10610e0757610100808354040283529160200191610e32565b820191906000526020600020905b815481529060010190602001808311610e1557829003601f168201915b505050505090806002015490806003018054610e4d9061299b565b80601f0160208091040260200160405190810160405280929190818152602001828054610e799061299b565b8015610ec65780601f10610e9b57610100808354040283529160200191610ec6565b820191906000526020600020905b815481529060010190602001808311610ea957829003601f168201915b5050505050908060040160009054906101000a900473ffffffffffffffffffffffffffffffffffffffff16908060040160149054906101000a900460ff16905086565b60606007805480602002602001604051908101604052809291908181526020016000905b82821015610fee57838290600052602060002090600502016040518060a0016040529081600082015481526020016001820160009054906101000a900473ffffffffffffffffffffffffffffffffffffffff1673ffffffffffffffffffffffffffffffffffffffff1673ffffffffffffffffffffffffffffffffffffffff16815260200160028201548152602001600382015481526020016004820160009054906101000a900460ff16151515158152505081526020019060010190610f2d565b50505050905090565b6002600d540361103c576040517f08c379a000000000000000000000000000000000000000000000000000000000815260040161103390612c02565b60405180910390fd5b6002600d819055506000600b600083815260200190815260200160002090508060040160149054906101000a900460ff166110ac576040517f08c379a00000000000000000000000000000000000000000000000000000000081526004016110a390612c94565b60405180910390fd5b806002015434146110f2576040517f08c379a00000000000000000000000000000000000000000000000000000000081526004016110e990612d00565b60405180910390fd5b60008160040160146101000a81548160ff0219169083151502179055503373ffffffffffffffffffffffffffffffffffffffff167fe1fffcc4923d04b559f4d29a8bfc6cda04eb5b0d3c460751c2402c5c5cc9109c3460405161115591906122c4565b60405180910390a2600c60003373ffffffffffffffffffffffffffffffffffffffff1673ffffffffffffffffffffffffffffffffffffffff1681526020019081526020016000208290806001815401808255809150506001900390600052602060002001600090919091909150557fa530f889d7f1bd9a73028e48944ca013ab2c6624a31e3fa26f923f4bb719abd5823383600201546040516111fa93929190612d20565b60405180910390a1506001600d8190555050565b600260003373ffffffffffffffffffffffffffffffffffffffff1673ffffffffffffffffffffffffffffffffffffffff16815260200190815260200160002060009054906101000a900460ff1661129a576040517f08c379a000000000000000000000000000000000000000000000000000000000815260040161129190612a47565b60405180910390fd5b600082116112dd576040517f08c379a00000000000000000000000000000000000000000000000000000000081526004016112d490612da3565b60405180910390fd5b6000600a60008154809291906112f290612b6e565b9190505590506040518060c001604052808281526020018581526020018481526020018381526020013373ffffffffffffffffffffffffffffffffffffffff16815260200160011515815250600b60008381526020019081526020016000206000820151816000015560208201518160010190816113709190612f6f565b506040820151816002015560608201518160030190816113909190612f6f565b5060808201518160040160006101000a81548173ffffffffffffffffffffffffffffffffffffffff021916908373ffffffffffffffffffffffffffffffffffffffff16021790555060a08201518160040160146101000a81548160ff0219169083151502179055509050507ff366086f075d86651bd4ab4efd319581ee112a50e49f6a464514edb277632c338185858533604051611432959493929190613041565b60405180910390a150505050565b6007818154811061145057600080fd5b90600052602060002090600502016000915090508060000154908060010160009054906101000a900473ffffffffffffffffffffffffffffffffffffffff16908060020154908060030154908060040160009054906101000a900460ff16905085565b60008060606000600785815481106114ce576114cd6129cc565b5b90600052602060002090600502019050600060096000878152602001908152602001600020805480602002602001604051908101604052809291908181526020016000905b828210156115a557838290600052602060002090600202016040518060400160405290816000820160009054906101000a900473ffffffffffffffffffffffffffffffffffffffff1673ffffffffffffffffffffffffffffffffffffffff1673ffffffffffffffffffffffffffffffffffffffff16815260200160018201548152505081526020019060010190611513565b5050505090508582600301548294509450945050509193909250565b60086020528160005260406000206020528060005260406000206000915091509054906101000a900460ff1681565b600260003373ffffffffffffffffffffffffffffffffffffffff1673ffffffffffffffffffffffffffffffffffffffff16815260200190815260200160002060009054906101000a900460ff1661167c576040517f08c379a000000000000000000000000000000000000000000000000000000000815260040161167390612a47565b60405180910390fd5b6002600d54036116c1576040517f08c379a00000000000000000000000000000000000000000000000000000000081526004016116b890612c02565b60405180910390fd5b6002600d81905550600047905060008111611711576040517f08c379a0000000000000000000000000000000000000000000000000000000008152600401611708906130ee565b60405180910390fd5b60005b6003805490508110156118d457600060038281548110611737576117366129cc565b5b9060005260206000200160009054906101000a900473ffffffffffffffffffffffffffffffffffffffff1690506000600554600460008473ffffffffffffffffffffffffffffffffffffffff1673ffffffffffffffffffffffffffffffffffffffff16815260200190815260200160002054856117b4919061310e565b6117be919061317f565b905060008111156118c55760008273ffffffffffffffffffffffffffffffffffffffff16826040516117ef906131e1565b60006040518083038185875af1925050503d806000811461182c576040519150601f19603f3d011682016040523d82523d6000602084013e611831565b606091505b5050905080611875576040517f08c379a000000000000000000000000000000000000000000000000000000000815260040161186c90613242565b60405180910390fd5b8273ffffffffffffffffffffffffffffffffffffffff167fdf20fd1e76bc69d672e4814fafb2c449bba3a5369d8359adf9e05e6fde87b056836040516118bb91906122c4565b60405180910390a2505b50508080600101915050611714565b50506001600d81905550565b600260003373ffffffffffffffffffffffffffffffffffffffff1673ffffffffffffffffffffffffffffffffffffffff16815260200190815260200160002060009054906101000a900460ff1661196c576040517f08c379a000000000000000000000000000000000000000000000000000000000815260040161196390612a47565b60405180910390fd5b600073ffffffffffffffffffffffffffffffffffffffff168273ffffffffffffffffffffffffffffffffffffffff16036119db576040517f08c379a00000000000000000000000000000000000000000000000000000000081526004016119d2906132ae565b60405180910390fd5b60008111611a1e576040517f08c379a0000000000000000000000000000000000000000000000000000000008152600401611a159061331a565b60405180910390fd5b600060066000815480929190611a3390612b6e565b91905055905060076040518060a001604052808381526020018573ffffffffffffffffffffffffffffffffffffffff168152602001848152602001600081526020016000151581525090806001815401808255809150506001900390600052602060002090600502016000909190919091506000820151816000015560208201518160010160006101000a81548173ffffffffffffffffffffffffffffffffffffffff021916908373ffffffffffffffffffffffffffffffffffffffff160217905550604082015181600201556060820151816003015560808201518160040160006101000a81548160ff02191690831515021790555050508273ffffffffffffffffffffffffffffffffffffffff166001600780549050611b55919061333a565b7f6974e8be5912ae917b788db2884a51e71cbe0f0979af347e6a32d07d52ef82a384604051611b8491906122c4565b60405180910390a3505050565b60046020528060005260406000206000915090505481565b60003411611bec576040517f08c379a0000000000000000000000000000000000000000000000000000000008152600401611be3906133ba565b60405180910390fd5b3373ffffffffffffffffffffffffffffffffffffffff167fe1fffcc4923d04b559f4d29a8bfc6cda04eb5b0d3c460751c2402c5c5cc9109c34604051611c3291906122c4565b60405180910390a2565b60065481565b600260003373ffffffffffffffffffffffffffffffffffffffff1673ffffffffffffffffffffffffffffffffffffffff16815260200190815260200160002060009054906101000a900460ff16611cce576040517f08c379a0000000000000000000000000000000000000000000000000000000008152600401611cc590612a47565b60405180910390fd5b6002600d5403611d13576040517f08c379a0000000000000000000000000000000000000000000000000000000008152600401611d0a90612c02565b60405180910390fd5b6002600d81905550600060078281548110611d3157611d306129cc565b5b9060005260206000209060050201905060015481600301541015611d8a576040517f08c379a0000000000000000000000000000000000000000000000000000000008152600401611d8190613426565b60405180910390fd5b8060040160009054906101000a900460ff1615611ddc576040517f08c379a0000000000000000000000000000000000000000000000000000000008152600401611dd390612ab3565b60405180910390fd5b60018160040160006101000a81548160ff02191690831515021790555060008160010160009054906101000a900473ffffffffffffffffffffffffffffffffffffffff1673ffffffffffffffffffffffffffffffffffffffff168260020154604051611e47906131e1565b60006040518083038185875af1925050503d8060008114611e84576040519150601f19603f3d011682016040523d82523d6000602084013e611e89565b606091505b5050905080611ecd576040517f08c379a0000000000000000000000000000000000000000000000000000000008152600401611ec490613492565b60405180910390fd5b8160010160009054906101000a900473ffffffffffffffffffffffffffffffffffffffff1673ffffffffffffffffffffffffffffffffffffffff16837fda19024f6708ce28e75d9c0ec389fb05a8e5cc9dfe520f61239c10d51a11e59c8460020154604051611f3c91906122c4565b60405180910390a350506001600d8190555050565b60015481565b6040518060c0016040528060008152602001606081526020016000815260200160608152602001600073ffffffffffffffffffffffffffffffffffffffff1681526020016000151581525090565b6000604051905090565b600080fd5b600080fd5b6000819050919050565b611fcc81611fb9565b8114611fd757600080fd5b50565b600081359050611fe981611fc3565b92915050565b60006020828403121561200557612004611faf565b5b600061201384828501611fda565b91505092915050565b600073ffffffffffffffffffffffffffffffffffffffff82169050919050565b60006120478261201c565b9050919050565b6120578161203c565b82525050565b6000602082019050612072600083018461204e565b92915050565b600081519050919050565b600082825260208201905092915050565b6000819050602082019050919050565b6120ad81611fb9565b82525050565b600081519050919050565b600082825260208201905092915050565b60005b838110156120ed5780820151818401526020810190506120d2565b60008484015250505050565b6000601f19601f8301169050919050565b6000612115826120b3565b61211f81856120be565b935061212f8185602086016120cf565b612138816120f9565b840191505092915050565b61214c8161203c565b82525050565b60008115159050919050565b61216781612152565b82525050565b600060c08301600083015161218560008601826120a4565b506020830151848203602086015261219d828261210a565b91505060408301516121b260408601826120a4565b50606083015184820360608601526121ca828261210a565b91505060808301516121df6080860182612143565b5060a08301516121f260a086018261215e565b508091505092915050565b6000612209838361216d565b905092915050565b6000602082019050919050565b600061222982612078565b6122338185612083565b93508360208202850161224585612094565b8060005b85811015612281578484038952815161226285826121fd565b945061226d83612211565b925060208a01995050600181019050612249565b50829750879550505050505092915050565b600060208201905081810360008301526122ad818461221e565b905092915050565b6122be81611fb9565b82525050565b60006020820190506122d960008301846122b5565b92915050565b6122e88161203c565b81146122f357600080fd5b50565b600081359050612305816122df565b92915050565b60006020828403121561232157612320611faf565b5b600061232f848285016122f6565b91505092915050565b61234181612152565b82525050565b600060208201905061235c6000830184612338565b92915050565b6000806040838503121561237957612378611faf565b5b6000612387858286016122f6565b925050602061239885828601611fda565b9150509250929050565b600080604083850312156123b9576123b8611faf565b5b60006123c785828601611fda565b92505060206123d885828601611fda565b9150509250929050565b60006040820190506123f7600083018561204e565b61240460208301846122b5565b9392505050565b600082825260208201905092915050565b6000612427826120b3565b612431818561240b565b93506124418185602086016120cf565b61244a816120f9565b840191505092915050565b600060c08201905061246a60008301896122b5565b818103602083015261247c818861241c565b905061248b60408301876122b5565b818103606083015261249d818661241c565b90506124ac608083018561204e565b6124b960a0830184612338565b979650505050505050565b600081519050919050565b600082825260208201905092915050565b6000819050602082019050919050565b60a08201600082015161250660008501826120a4565b5060208201516125196020850182612143565b50604082015161252c60408501826120a4565b50606082015161253f60608501826120a4565b506080820151612552608085018261215e565b50505050565b600061256483836124f0565b60a08301905092915050565b6000602082019050919050565b6000612588826124c4565b61259281856124cf565b935061259d836124e0565b8060005b838110156125ce5781516125b58882612558565b97506125c083612570565b9250506001810190506125a1565b5085935050505092915050565b600060208201905081810360008301526125f5818461257d565b905092915050565b600080fd5b600080fd5b7f4e487b7100000000000000000000000000000000000000000000000000000000600052604160045260246000fd5b61263f826120f9565b810181811067ffffffffffffffff8211171561265e5761265d612607565b5b80604052505050565b6000612671611fa5565b905061267d8282612636565b919050565b600067ffffffffffffffff82111561269d5761269c612607565b5b6126a6826120f9565b9050602081019050919050565b82818337600083830152505050565b60006126d56126d084612682565b612667565b9050828152602081018484840111156126f1576126f0612602565b5b6126fc8482856126b3565b509392505050565b600082601f830112612719576127186125fd565b5b81356127298482602086016126c2565b91505092915050565b60008060006060848603121561274b5761274a611faf565b5b600084013567ffffffffffffffff81111561276957612768611fb4565b5b61277586828701612704565b935050602061278686828701611fda565b925050604084013567ffffffffffffffff8111156127a7576127a6611fb4565b5b6127b386828701612704565b9150509250925092565b600060a0820190506127d260008301886122b5565b6127df602083018761204e565b6127ec60408301866122b5565b6127f960608301856122b5565b6128066080830184612338565b9695505050505050565b600081519050919050565b600082825260208201905092915050565b6000819050602082019050919050565b6040820160008201516128526000850182612143565b50602082015161286560208501826120a4565b50505050565b6000612877838361283c565b60408301905092915050565b6000602082019050919050565b600061289b82612810565b6128a5818561281b565b93506128b08361282c565b8060005b838110156128e15781516128c8888261286b565b97506128d383612883565b9250506001810190506128b4565b5085935050505092915050565b600060608201905061290360008301866122b5565b61291060208301856122b5565b81810360408301526129228184612890565b9050949350505050565b6000806040838503121561294357612942611faf565b5b600061295185828601611fda565b9250506020612962858286016122f6565b9150509250929050565b7f4e487b7100000000000000000000000000000000000000000000000000000000600052602260045260246000fd5b600060028204905060018216806129b357607f821691505b6020821081036129c6576129c561296c565b5b50919050565b7f4e487b7100000000000000000000000000000000000000000000000000000000600052603260045260246000fd5b7f4e6f7420616e206f776e65720000000000000000000000000000000000000000600082015250565b6000612a31600c8361240b565b9150612a3c826129fb565b602082019050919050565b60006020820190508181036000830152612a6081612a24565b9050919050565b7f416c726561647920657865637574656400000000000000000000000000000000600082015250565b6000612a9d60108361240b565b9150612aa882612a67565b602082019050919050565b60006020820190508181036000830152612acc81612a90565b9050919050565b7f416c726561647920617070726f76656400000000000000000000000000000000600082015250565b6000612b0960108361240b565b9150612b1482612ad3565b602082019050919050565b60006020820190508181036000830152612b3881612afc565b9050919050565b7f4e487b7100000000000000000000000000000000000000000000000000000000600052601160045260246000fd5b6000612b7982611fb9565b91507fffffffffffffffffffffffffffffffffffffffffffffffffffffffffffffffff8203612bab57612baa612b3f565b5b600182019050919050565b7f5265656e7472616e63792047756172643a205265656e7472616e742063616c6c600082015250565b6000612bec60208361240b565b9150612bf782612bb6565b602082019050919050565b60006020820190508181036000830152612c1b81612bdf565b9050919050565b7f50726f647563746f2079612076656e6469646f206f206e6f20646973706f6e6960008201527f626c650000000000000000000000000000000000000000000000000000000000602082015250565b6000612c7e60238361240b565b9150612c8982612c22565b604082019050919050565b60006020820190508181036000830152612cad81612c71565b9050919050565b7f4d6f6e746f20696e636f72726563746f20656e766961646f0000000000000000600082015250565b6000612cea60188361240b565b9150612cf582612cb4565b602082019050919050565b60006020820190508181036000830152612d1981612cdd565b9050919050565b6000606082019050612d3560008301866122b5565b612d42602083018561204e565b612d4f60408301846122b5565b949350505050565b7f456c2070726563696f206465626520736572206d61796f722061203000000000600082015250565b6000612d8d601c8361240b565b9150612d9882612d57565b602082019050919050565b60006020820190508181036000830152612dbc81612d80565b9050919050565b60008190508160005260206000209050919050565b60006020601f8301049050919050565b600082821b905092915050565b600060088302612e257fffffffffffffffffffffffffffffffffffffffffffffffffffffffffffffffff82612de8565b612e2f8683612de8565b95508019841693508086168417925050509392505050565b6000819050919050565b6000612e6c612e67612e6284611fb9565b612e47565b611fb9565b9050919050565b6000819050919050565b612e8683612e51565b612e9a612e9282612e73565b848454612df5565b825550505050565b600090565b612eaf612ea2565b612eba818484612e7d565b505050565b5b81811015612ede57612ed3600082612ea7565b600181019050612ec0565b5050565b601f821115612f2357612ef481612dc3565b612efd84612dd8565b81016020851015612f0c578190505b612f20612f1885612dd8565b830182612ebf565b50505b505050565b600082821c905092915050565b6000612f4660001984600802612f28565b1980831691505092915050565b6000612f5f8383612f35565b9150826002028217905092915050565b612f78826120b3565b67ffffffffffffffff811115612f9157612f90612607565b5b612f9b825461299b565b612fa6828285612ee2565b600060209050601f831160018114612fd95760008415612fc7578287015190505b612fd18582612f53565b865550613039565b601f198416612fe786612dc3565b60005b8281101561300f57848901518255600182019150602085019450602081019050612fea565b8683101561302c5784890151613028601f891682612f35565b8355505b6001600288020188555050505b505050505050565b600060a08201905061305660008301886122b5565b8181036020830152613068818761241c565b905061307760408301866122b5565b8181036060830152613089818561241c565b9050613098608083018461204e565b9695505050505050565b7f4e6f2068617920666f6e646f7320706172612072657061727469720000000000600082015250565b60006130d8601b8361240b565b91506130e3826130a2565b602082019050919050565b60006020820190508181036000830152613107816130cb565b9050919050565b600061311982611fb9565b915061312483611fb9565b925082820261313281611fb9565b9150828204841483151761314957613148612b3f565b5b5092915050565b7f4e487b7100000000000000000000000000000000000000000000000000000000600052601260045260246000fd5b600061318a82611fb9565b915061319583611fb9565b9250826131a5576131a4613150565b5b828204905092915050565b600081905092915050565b50565b60006131cb6000836131b0565b91506131d6826131bb565b600082019050919050565b60006131ec826131be565b9150819050919050565b7f66616c6c6f2064656c207061676f000000000000000000000000000000000000600082015250565b600061322c600e8361240b565b9150613237826131f6565b602082019050919050565b6000602082019050818103600083015261325b8161321f565b9050919050565b7f496e76616c696420616464726573730000000000000000000000000000000000600082015250565b6000613298600f8361240b565b91506132a382613262565b602082019050919050565b600060208201905081810360008301526132c78161328b565b9050919050565b7f496e76616c696420416d6f756e74000000000000000000000000000000000000600082015250565b6000613304600e8361240b565b915061330f826132ce565b602082019050919050565b60006020820190508181036000830152613333816132f7565b9050919050565b600061334582611fb9565b915061335083611fb9565b925082820390508181111561336857613367612b3f565b5b92915050565b7f4465626573206d616e6461722065746865720000000000000000000000000000600082015250565b60006133a460128361240b565b91506133af8261336e565b602082019050919050565b600060208201905081810360008301526133d381613397565b9050919050565b7f4e6f7420656e6f75676820617070726f76616c73000000000000000000000000600082015250565b600061341060148361240b565b915061341b826133da565b602082019050919050565b6000602082019050818103600083015261343f81613403565b9050919050565b7f5472616e73616374696f6e206661696c65640000000000000000000000000000600082015250565b600061347c60128361240b565b915061348782613446565b602082019050919050565b600060208201905081810360008301526134ab8161346f565b905091905056fea26469706673582212207d364c61b7ef8b0323c899b0b985a766042d740858bdd9103b1d80eff96382a764736f6c634300081c0033",
  "linkReferences": {},
  "deployedLinkReferences": {}
}