{
  "_format": "hh-sol-artifact-1",
  "contractName": "PagosGatitos",
  "sourceName": "contracts/GatitoPagos.sol",
  "abi": [
    {
      "inputs": [
        {
          "internalType": "address[]",
          "name": "_criadores",
          "type": "address[]"
        },
        {
          "internalType": "uint256[]",
          "name": "_porcentajes",
          "type": "uint256[]"
        }
      ],
      "stateMutability": "nonpayable",
      "type": "constructor"
    },
    {
      "anonymous": false,
      "inputs": [
        {
          "indexed": false,
          "internalType": "address",
          "name": "comprador",
          "type": "address"
        },
        {
          "indexed": false,
          "internalType": "uint256",
          "name": "cantidad",
          "type": "uint256"
        }
      ],
      "name": "PagoRecibido",
      "type": "event"
    },
    {
      "anonymous": false,
      "inputs": [
        {
          "indexed": false,
          "internalType": "address",
          "name": "criador",
          "type": "address"
        },
        {
          "indexed": false,
          "internalType": "uint256",
          "name": "cantidad",
          "type": "uint256"
        }
      ],
      "name": "PagoRepartido",
      "type": "event"
    },
    {
      "anonymous": false,
      "inputs": [
        {
          "indexed": false,
          "internalType": "uint256",
          "name": "residuo",
          "type": "uint256"
        }
      ],
      "name": "ResiduoGuardado",
      "type": "event"
    },
    {
      "inputs": [
        {
          "internalType": "uint256",
          "name": "",
          "type": "uint256"
        }
      ],
      "name": "criadores",
      "outputs": [
        {
          "internalType": "address",
          "name": "",
          "type": "address"
        }
      ],
      "stateMutability": "view",
      "type": "function"
    },
    {
      "inputs": [],
      "name": "owner",
      "outputs": [
        {
          "internalType": "address",
          "name": "",
          "type": "address"
        }
      ],
      "stateMutability": "view",
      "type": "function"
    },
    {
      "inputs": [],
      "name": "pagarGatito",
      "outputs": [],
      "stateMutability": "payable",
      "type": "function"
    },
    {
      "inputs": [
        {
          "internalType": "address",
          "name": "",
          "type": "address"
        }
      ],
      "name": "porcentajeGatitos",
      "outputs": [
        {
          "internalType": "uint256",
          "name": "",
          "type": "uint256"
        }
      ],
      "stateMutability": "view",
      "type": "function"
    },
    {
      "inputs": [],
      "name": "repartirPagos",
      "outputs": [],
      "stateMutability": "nonpayable",
      "type": "function"
    },
    {
      "inputs": [],
      "name": "totalPorcentajes",
      "outputs": [
        {
          "internalType": "uint256",
          "name": "",
          "type": "uint256"
        }
      ],
      "stateMutability": "view",
      "type": "function"
    },
    {
      "inputs": [],
      "name": "verBalance",
      "outputs": [
        {
          "internalType": "uint256",
          "name": "",
          "type": "uint256"
        }
      ],
      "stateMutability": "view",
      "type": "function"
    }
  ],
  "bytecode": "0x608060405234801561001057600080fd5b5060405161137e38038061137e833981810160405281019061003291906105ed565b8051825114610076576040517f08c379a000000000000000000000000000000000000000000000000000000000815260040161006d906106c2565b60405180910390fd5b60008251116100ba576040517f08c379a00000000000000000000000000000000000000000000000000000000081526004016100b19061072e565b60405180910390fd5b336000806101000a81548173ffffffffffffffffffffffffffffffffffffffff021916908373ffffffffffffffffffffffffffffffffffffffff16021790555060005b825181101561032157600073ffffffffffffffffffffffffffffffffffffffff168382815181106101315761013061074e565b5b602002602001015173ffffffffffffffffffffffffffffffffffffffff160361018f576040517f08c379a0000000000000000000000000000000000000000000000000000000008152600401610186906107c9565b60405180910390fd5b60008282815181106101a4576101a361074e565b5b6020026020010151116101ec576040517f08c379a00000000000000000000000000000000000000000000000000000000081526004016101e390610835565b60405180910390fd5b60018382815181106102015761020061074e565b5b60200260200101519080600181540180825580915050600190039060005260206000200160009091909190916101000a81548173ffffffffffffffffffffffffffffffffffffffff021916908373ffffffffffffffffffffffffffffffffffffffff16021790555081818151811061027c5761027b61074e565b5b60200260200101516002600085848151811061029b5761029a61074e565b5b602002602001015173ffffffffffffffffffffffffffffffffffffffff1673ffffffffffffffffffffffffffffffffffffffff168152602001908152602001600020819055508181815181106102f4576102f361074e565b5b60200260200101516003600082825461030d9190610884565b9250508190555080806001019150506100fd565b5050506108b8565b6000604051905090565b600080fd5b600080fd5b600080fd5b6000601f19601f8301169050919050565b7f4e487b7100000000000000000000000000000000000000000000000000000000600052604160045260246000fd5b61038b82610342565b810181811067ffffffffffffffff821117156103aa576103a9610353565b5b80604052505050565b60006103bd610329565b90506103c98282610382565b919050565b600067ffffffffffffffff8211156103e9576103e8610353565b5b602082029050602081019050919050565b600080fd5b600073ffffffffffffffffffffffffffffffffffffffff82169050919050565b600061042a826103ff565b9050919050565b61043a8161041f565b811461044557600080fd5b50565b60008151905061045781610431565b92915050565b600061047061046b846103ce565b6103b3565b90508083825260208201905060208402830185811115610493576104926103fa565b5b835b818110156104bc57806104a88882610448565b845260208401935050602081019050610495565b5050509392505050565b600082601f8301126104db576104da61033d565b5b81516104eb84826020860161045d565b91505092915050565b600067ffffffffffffffff82111561050f5761050e610353565b5b602082029050602081019050919050565b6000819050919050565b61053381610520565b811461053e57600080fd5b50565b6000815190506105508161052a565b92915050565b6000610569610564846104f4565b6103b3565b9050808382526020820190506020840283018581111561058c5761058b6103fa565b5b835b818110156105b557806105a18882610541565b84526020840193505060208101905061058e565b5050509392505050565b600082601f8301126105d4576105d361033d565b5b81516105e4848260208601610556565b91505092915050565b6000806040838503121561060457610603610333565b5b600083015167ffffffffffffffff81111561062257610621610338565b5b61062e858286016104c6565b925050602083015167ffffffffffffffff81111561064f5761064e610338565b5b61065b858286016105bf565b9150509250929050565b600082825260208201905092915050565b7f4c6973746173206e6f20636f696e636964656e00000000000000000000000000600082015250565b60006106ac601383610665565b91506106b782610676565b602082019050919050565b600060208201905081810360008301526106db8161069f565b9050919050565b7f4465626520686162657220616c206d656e6f7320756e2063726961646f720000600082015250565b6000610718601e83610665565b9150610723826106e2565b602082019050919050565b600060208201905081810360008301526107478161070b565b9050919050565b7f4e487b7100000000000000000000000000000000000000000000000000000000600052603260045260246000fd5b7f446972656363696f6e20696e76616c6964610000000000000000000000000000600082015250565b60006107b3601283610665565b91506107be8261077d565b602082019050919050565b600060208201905081810360008301526107e2816107a6565b9050919050565b7f506f7263656e74616a65206465626520736572206d61796f7220612030000000600082015250565b600061081f601d83610665565b915061082a826107e9565b602082019050919050565b6000602082019050818103600083015261084e81610812565b9050919050565b7f4e487b7100000000000000000000000000000000000000000000000000000000600052601160045260246000fd5b600061088f82610520565b915061089a83610520565b92508282019050808211156108b2576108b1610855565b5b92915050565b610ab7806108c76000396000f3fe6080604052600436106100705760003560e01c80638da5cb5b1161004e5780638da5cb5b14610106578063a09126ba14610131578063d5cf12731461013b578063e5ba01621461016657610070565b80632c01670d14610075578063714ac8261461008c5780637a7c1795146100c9575b600080fd5b34801561008157600080fd5b5061008a610191565b005b34801561009857600080fd5b506100b360048036038101906100ae91906105b7565b610475565b6040516100c09190610625565b60405180910390f35b3480156100d557600080fd5b506100f060048036038101906100eb919061066c565b6104b4565b6040516100fd91906106a8565b60405180910390f35b34801561011257600080fd5b5061011b6104cc565b6040516101289190610625565b60405180910390f35b6101396104f0565b005b34801561014757600080fd5b5061015061056e565b60405161015d91906106a8565b60405180910390f35b34801561017257600080fd5b5061017b610576565b60405161018891906106a8565b60405180910390f35b60008054906101000a900473ffffffffffffffffffffffffffffffffffffffff1673ffffffffffffffffffffffffffffffffffffffff163373ffffffffffffffffffffffffffffffffffffffff161461021f576040517f08c379a000000000000000000000000000000000000000000000000000000000815260040161021690610746565b60405180910390fd5b600047905060008111610267576040517f08c379a000000000000000000000000000000000000000000000000000000000815260040161025e906107b2565b60405180910390fd5b600080600090505b60018054905081101561041e57600060018281548110610292576102916107d2565b5b9060005260206000200160009054906101000a900473ffffffffffffffffffffffffffffffffffffffff1690506000600354600260008473ffffffffffffffffffffffffffffffffffffffff1673ffffffffffffffffffffffffffffffffffffffff168152602001908152602001600020548661030f9190610830565b61031991906108a1565b9050808461032791906108d2565b935060008273ffffffffffffffffffffffffffffffffffffffff168260405161034f90610937565b60006040518083038185875af1925050503d806000811461038c576040519150601f19603f3d011682016040523d82523d6000602084013e610391565b606091505b50509050806103d5576040517f08c379a00000000000000000000000000000000000000000000000000000000081526004016103cc90610998565b60405180910390fd5b7f1a7511929a60659f878a81d8daeec766145e03c2373ee5af41c6bfcac5e1882c83836040516104069291906109b8565b60405180910390a1505050808060010191505061026f565b506000818361042d91906109e1565b90506000811115610470577f89898dbfa921aecd6a5680b3e41937874fc7fcaeff854087215bc37bfed8f1678160405161046791906106a8565b60405180910390a15b505050565b6001818154811061048557600080fd5b906000526020600020016000915054906101000a900473ffffffffffffffffffffffffffffffffffffffff1681565b60026020528060005260406000206000915090505481565b60008054906101000a900473ffffffffffffffffffffffffffffffffffffffff1681565b60003411610533576040517f08c379a000000000000000000000000000000000000000000000000000000000815260040161052a90610a61565b60405180910390fd5b7f4bb20fc15893e6dda4ec53a19253fd67d246fc3345a672876a971ad734d7b53f33346040516105649291906109b8565b60405180910390a1565b600047905090565b60035481565b600080fd5b6000819050919050565b61059481610581565b811461059f57600080fd5b50565b6000813590506105b18161058b565b92915050565b6000602082840312156105cd576105cc61057c565b5b60006105db848285016105a2565b91505092915050565b600073ffffffffffffffffffffffffffffffffffffffff82169050919050565b600061060f826105e4565b9050919050565b61061f81610604565b82525050565b600060208201905061063a6000830184610616565b92915050565b61064981610604565b811461065457600080fd5b50565b60008135905061066681610640565b92915050565b6000602082840312156106825761068161057c565b5b600061069084828501610657565b91505092915050565b6106a281610581565b82525050565b60006020820190506106bd6000830184610699565b92915050565b600082825260208201905092915050565b7f536f6c6f20656c206f776e657220707565646520656a6563757461722065737460008201527f6f00000000000000000000000000000000000000000000000000000000000000602082015250565b60006107306021836106c3565b915061073b826106d4565b604082019050919050565b6000602082019050818103600083015261075f81610723565b9050919050565b7f4e6f206861792073616c646f20646973706f6e69626c65000000000000000000600082015250565b600061079c6017836106c3565b91506107a782610766565b602082019050919050565b600060208201905081810360008301526107cb8161078f565b9050919050565b7f4e487b7100000000000000000000000000000000000000000000000000000000600052603260045260246000fd5b7f4e487b7100000000000000000000000000000000000000000000000000000000600052601160045260246000fd5b600061083b82610581565b915061084683610581565b925082820261085481610581565b9150828204841483151761086b5761086a610801565b5b5092915050565b7f4e487b7100000000000000000000000000000000000000000000000000000000600052601260045260246000fd5b60006108ac82610581565b91506108b783610581565b9250826108c7576108c6610872565b5b828204905092915050565b60006108dd82610581565b91506108e883610581565b9250828201905080821115610900576108ff610801565b5b92915050565b600081905092915050565b50565b6000610921600083610906565b915061092c82610911565b600082019050919050565b600061094282610914565b9150819050919050565b7f4e6f207365207075646f20656e7669617220656c207061676f00000000000000600082015250565b60006109826019836106c3565b915061098d8261094c565b602082019050919050565b600060208201905081810360008301526109b181610975565b9050919050565b60006040820190506109cd6000830185610616565b6109da6020830184610699565b9392505050565b60006109ec82610581565b91506109f783610581565b9250828203905081811115610a0f57610a0e610801565b5b92915050565b7f446562657320656e766961722045746865720000000000000000000000000000600082015250565b6000610a4b6012836106c3565b9150610a5682610a15565b602082019050919050565b60006020820190508181036000830152610a7a81610a3e565b905091905056fea26469706673582212201ab4ac9be511bb6baf45ed5f6d0286a244f38e0892348317a1e721721bfddd1b64736f6c634300081c0033",
  "linkReferences": {},
  "deployedLinkReferences": {}
}